{
	"impar.sol": {
		"impar": {
			"abi": [
				{
					"inputs": [
						{
							"internalType": "int256",
							"name": "numero",
							"type": "int256"
						}
					],
					"name": "adicionarNumerosImpares",
					"outputs": [],
					"stateMutability": "nonpayable",
					"type": "function"
				},
				{
					"inputs": [],
					"name": "mostrarNumeros",
					"outputs": [
						{
							"internalType": "int256[]",
							"name": "",
							"type": "int256[]"
						}
					],
					"stateMutability": "view",
					"type": "function"
				},
				{
					"inputs": [
						{
							"internalType": "int256",
							"name": "numero",
							"type": "int256"
						}
					],
					"name": "reenviarNumero",
					"outputs": [],
					"stateMutability": "nonpayable",
					"type": "function"
				}
			],
			"devdoc": {
				"kind": "dev",
				"methods": {},
				"version": 1
			},
			"evm": {
				"assembly": "    /* \"impar.sol\":149:623  contract impar{... */\n  mstore(0x40, 0x80)\n  callvalue\n  dup1\n  iszero\n  tag_1\n  jumpi\n  0x00\n  dup1\n  revert\ntag_1:\n  pop\n  dataSize(sub_0)\n  dup1\n  dataOffset(sub_0)\n  0x00\n  codecopy\n  0x00\n  return\nstop\n\nsub_0: assembly {\n        /* \"impar.sol\":149:623  contract impar{... */\n      mstore(0x40, 0x80)\n      callvalue\n      dup1\n      iszero\n      tag_1\n      jumpi\n      0x00\n      dup1\n      revert\n    tag_1:\n      pop\n      jumpi(tag_2, lt(calldatasize, 0x04))\n      shr(0xe0, calldataload(0x00))\n      dup1\n      0x1236fbf7\n      eq\n      tag_3\n      jumpi\n      dup1\n      0x5c22be61\n      eq\n      tag_4\n      jumpi\n      dup1\n      0xc55b7b0c\n      eq\n      tag_5\n      jumpi\n    tag_2:\n      0x00\n      dup1\n      revert\n        /* \"impar.sol\":388:488  function mostrarNumeros() public view returns (int[] memory){... */\n    tag_3:\n      tag_6\n      tag_7\n      jump\t// in\n    tag_6:\n      mload(0x40)\n      tag_8\n      swap2\n      swap1\n      tag_9\n      jump\t// in\n    tag_8:\n      mload(0x40)\n      dup1\n      swap2\n      sub\n      swap1\n      return\n        /* \"impar.sol\":207:380  function adicionarNumerosImpares(int numero) public  {... */\n    tag_4:\n      tag_10\n      0x04\n      dup1\n      calldatasize\n      sub\n      dup2\n      add\n      swap1\n      tag_11\n      swap2\n      swap1\n      tag_12\n      jump\t// in\n    tag_11:\n      tag_13\n      jump\t// in\n    tag_10:\n      stop\n        /* \"impar.sol\":496:620  function reenviarNumero(int numero) public {... */\n    tag_5:\n      tag_14\n      0x04\n      dup1\n      calldatasize\n      sub\n      dup2\n      add\n      swap1\n      tag_15\n      swap2\n      swap1\n      tag_12\n      jump\t// in\n    tag_15:\n      tag_16\n      jump\t// in\n    tag_14:\n      stop\n        /* \"impar.sol\":388:488  function mostrarNumeros() public view returns (int[] memory){... */\n    tag_7:\n        /* \"impar.sol\":435:447  int[] memory */\n      0x60\n        /* \"impar.sol\":466:480  numerosImpares */\n      0x00\n        /* \"impar.sol\":459:480  return numerosImpares */\n      dup1\n      sload\n      dup1\n      0x20\n      mul\n      0x20\n      add\n      mload(0x40)\n      swap1\n      dup2\n      add\n      0x40\n      mstore\n      dup1\n      swap3\n      swap2\n      swap1\n      dup2\n      dup2\n      mstore\n      0x20\n      add\n      dup3\n      dup1\n      sload\n      dup1\n      iszero\n      tag_18\n      jumpi\n      0x20\n      mul\n      dup3\n      add\n      swap2\n      swap1\n      0x00\n      mstore\n      keccak256(0x00, 0x20)\n      swap1\n    tag_19:\n      dup2\n      sload\n      dup2\n      mstore\n      0x20\n      add\n      swap1\n      0x01\n      add\n      swap1\n      dup1\n      dup4\n      gt\n      tag_19\n      jumpi\n    tag_18:\n      pop\n      pop\n      pop\n      pop\n      pop\n      swap1\n      pop\n        /* \"impar.sol\":388:488  function mostrarNumeros() public view returns (int[] memory){... */\n      swap1\n      jump\t// out\n        /* \"impar.sol\":207:380  function adicionarNumerosImpares(int numero) public  {... */\n    tag_13:\n        /* \"impar.sol\":303:304  0 */\n      0x00\n        /* \"impar.sol\":298:299  2 */\n      0x02\n        /* \"impar.sol\":289:295  numero */\n      dup3\n        /* \"impar.sol\":289:299  numero % 2 */\n      tag_21\n      swap2\n      swap1\n      tag_22\n      jump\t// in\n    tag_21:\n        /* \"impar.sol\":289:304  numero % 2 != 0 */\n      sub\n        /* \"impar.sol\":281:330  require(numero % 2 != 0,\"apenas numeros impares\") */\n      tag_23\n      jumpi\n      mload(0x40)\n      0x08c379a000000000000000000000000000000000000000000000000000000000\n      dup2\n      mstore\n      0x04\n      add\n      tag_24\n      swap1\n      tag_25\n      jump\t// in\n    tag_24:\n      mload(0x40)\n      dup1\n      swap2\n      sub\n      swap1\n      revert\n    tag_23:\n        /* \"impar.sol\":341:355  numerosImpares */\n      0x00\n        /* \"impar.sol\":361:367  numero */\n      dup2\n        /* \"impar.sol\":341:368  numerosImpares.push(numero) */\n      swap1\n      dup1\n      0x01\n      dup2\n      sload\n      add\n      dup1\n      dup3\n      sstore\n      dup1\n      swap2\n      pop\n      pop\n      0x01\n      swap1\n      sub\n      swap1\n      0x00\n      mstore\n      keccak256(0x00, 0x20)\n      add\n      0x00\n      swap1\n      swap2\n      swap1\n      swap2\n      swap1\n      swap2\n      pop\n      sstore\n        /* \"impar.sol\":207:380  function adicionarNumerosImpares(int numero) public  {... */\n      pop\n      jump\t// out\n        /* \"impar.sol\":496:620  function reenviarNumero(int numero) public {... */\n    tag_16:\n        /* \"impar.sol\":550:564  numerosImpares */\n      0x00\n        /* \"impar.sol\":550:570  numerosImpares.pop() */\n      dup1\n      sload\n      dup1\n      tag_28\n      jumpi\n      tag_29\n      tag_30\n      jump\t// in\n    tag_29:\n    tag_28:\n      0x01\n      swap1\n      sub\n      dup2\n      dup2\n      swap1\n      0x00\n      mstore\n      keccak256(0x00, 0x20)\n      add\n      0x00\n      swap1\n      sstore\n      swap1\n      sstore\n        /* \"impar.sol\":581:612  adicionarNumerosImpares(numero) */\n      tag_32\n        /* \"impar.sol\":605:611  numero */\n      dup2\n        /* \"impar.sol\":581:604  adicionarNumerosImpares */\n      tag_13\n        /* \"impar.sol\":581:612  adicionarNumerosImpares(numero) */\n      jump\t// in\n    tag_32:\n        /* \"impar.sol\":496:620  function reenviarNumero(int numero) public {... */\n      pop\n      jump\t// out\n        /* \"#utility.yul\":7:120   */\n    tag_33:\n        /* \"#utility.yul\":73:79   */\n      0x00\n        /* \"#utility.yul\":107:112   */\n      dup2\n        /* \"#utility.yul\":101:113   */\n      mload\n        /* \"#utility.yul\":91:113   */\n      swap1\n      pop\n        /* \"#utility.yul\":7:120   */\n      swap2\n      swap1\n      pop\n      jump\t// out\n        /* \"#utility.yul\":126:309   */\n    tag_34:\n        /* \"#utility.yul\":224:235   */\n      0x00\n        /* \"#utility.yul\":258:264   */\n      dup3\n        /* \"#utility.yul\":253:256   */\n      dup3\n        /* \"#utility.yul\":246:265   */\n      mstore\n        /* \"#utility.yul\":298:302   */\n      0x20\n        /* \"#utility.yul\":293:296   */\n      dup3\n        /* \"#utility.yul\":289:303   */\n      add\n        /* \"#utility.yul\":274:303   */\n      swap1\n      pop\n        /* \"#utility.yul\":126:309   */\n      swap3\n      swap2\n      pop\n      pop\n      jump\t// out\n        /* \"#utility.yul\":315:446   */\n    tag_35:\n        /* \"#utility.yul\":381:385   */\n      0x00\n        /* \"#utility.yul\":404:407   */\n      dup2\n        /* \"#utility.yul\":396:407   */\n      swap1\n      pop\n        /* \"#utility.yul\":434:438   */\n      0x20\n        /* \"#utility.yul\":429:432   */\n      dup3\n        /* \"#utility.yul\":425:439   */\n      add\n        /* \"#utility.yul\":417:439   */\n      swap1\n      pop\n        /* \"#utility.yul\":315:446   */\n      swap2\n      swap1\n      pop\n      jump\t// out\n        /* \"#utility.yul\":452:528   */\n    tag_36:\n        /* \"#utility.yul\":488:495   */\n      0x00\n        /* \"#utility.yul\":517:522   */\n      dup2\n        /* \"#utility.yul\":506:522   */\n      swap1\n      pop\n        /* \"#utility.yul\":452:528   */\n      swap2\n      swap1\n      pop\n      jump\t// out\n        /* \"#utility.yul\":534:639   */\n    tag_37:\n        /* \"#utility.yul\":609:632   */\n      tag_56\n        /* \"#utility.yul\":626:631   */\n      dup2\n        /* \"#utility.yul\":609:632   */\n      tag_36\n      jump\t// in\n    tag_56:\n        /* \"#utility.yul\":604:607   */\n      dup3\n        /* \"#utility.yul\":597:633   */\n      mstore\n        /* \"#utility.yul\":534:639   */\n      pop\n      pop\n      jump\t// out\n        /* \"#utility.yul\":645:820   */\n    tag_38:\n        /* \"#utility.yul\":712:722   */\n      0x00\n        /* \"#utility.yul\":733:777   */\n      tag_58\n        /* \"#utility.yul\":773:776   */\n      dup4\n        /* \"#utility.yul\":765:771   */\n      dup4\n        /* \"#utility.yul\":733:777   */\n      tag_37\n      jump\t// in\n    tag_58:\n        /* \"#utility.yul\":809:813   */\n      0x20\n        /* \"#utility.yul\":804:807   */\n      dup4\n        /* \"#utility.yul\":800:814   */\n      add\n        /* \"#utility.yul\":786:814   */\n      swap1\n      pop\n        /* \"#utility.yul\":645:820   */\n      swap3\n      swap2\n      pop\n      pop\n      jump\t// out\n        /* \"#utility.yul\":826:938   */\n    tag_39:\n        /* \"#utility.yul\":895:899   */\n      0x00\n        /* \"#utility.yul\":927:931   */\n      0x20\n        /* \"#utility.yul\":922:925   */\n      dup3\n        /* \"#utility.yul\":918:932   */\n      add\n        /* \"#utility.yul\":910:932   */\n      swap1\n      pop\n        /* \"#utility.yul\":826:938   */\n      swap2\n      swap1\n      pop\n      jump\t// out\n        /* \"#utility.yul\":972:1696   */\n    tag_40:\n        /* \"#utility.yul\":1089:1092   */\n      0x00\n        /* \"#utility.yul\":1118:1171   */\n      tag_61\n        /* \"#utility.yul\":1165:1170   */\n      dup3\n        /* \"#utility.yul\":1118:1171   */\n      tag_33\n      jump\t// in\n    tag_61:\n        /* \"#utility.yul\":1187:1272   */\n      tag_62\n        /* \"#utility.yul\":1265:1271   */\n      dup2\n        /* \"#utility.yul\":1260:1263   */\n      dup6\n        /* \"#utility.yul\":1187:1272   */\n      tag_34\n      jump\t// in\n    tag_62:\n        /* \"#utility.yul\":1180:1272   */\n      swap4\n      pop\n        /* \"#utility.yul\":1296:1351   */\n      tag_63\n        /* \"#utility.yul\":1345:1350   */\n      dup4\n        /* \"#utility.yul\":1296:1351   */\n      tag_35\n      jump\t// in\n    tag_63:\n        /* \"#utility.yul\":1374:1381   */\n      dup1\n        /* \"#utility.yul\":1405:1406   */\n      0x00\n        /* \"#utility.yul\":1390:1671   */\n    tag_64:\n        /* \"#utility.yul\":1415:1421   */\n      dup4\n        /* \"#utility.yul\":1412:1413   */\n      dup2\n        /* \"#utility.yul\":1409:1422   */\n      lt\n        /* \"#utility.yul\":1390:1671   */\n      iszero\n      tag_66\n      jumpi\n        /* \"#utility.yul\":1491:1497   */\n      dup2\n        /* \"#utility.yul\":1485:1498   */\n      mload\n        /* \"#utility.yul\":1518:1579   */\n      tag_67\n        /* \"#utility.yul\":1575:1578   */\n      dup9\n        /* \"#utility.yul\":1560:1573   */\n      dup3\n        /* \"#utility.yul\":1518:1579   */\n      tag_38\n      jump\t// in\n    tag_67:\n        /* \"#utility.yul\":1511:1579   */\n      swap8\n      pop\n        /* \"#utility.yul\":1602:1661   */\n      tag_68\n        /* \"#utility.yul\":1654:1660   */\n      dup4\n        /* \"#utility.yul\":1602:1661   */\n      tag_39\n      jump\t// in\n    tag_68:\n        /* \"#utility.yul\":1592:1661   */\n      swap3\n      pop\n        /* \"#utility.yul\":1450:1671   */\n      pop\n        /* \"#utility.yul\":1437:1438   */\n      0x01\n        /* \"#utility.yul\":1434:1435   */\n      dup2\n        /* \"#utility.yul\":1430:1439   */\n      add\n        /* \"#utility.yul\":1425:1439   */\n      swap1\n      pop\n        /* \"#utility.yul\":1390:1671   */\n      jump(tag_64)\n    tag_66:\n        /* \"#utility.yul\":1394:1408   */\n      pop\n        /* \"#utility.yul\":1687:1690   */\n      dup6\n        /* \"#utility.yul\":1680:1690   */\n      swap4\n      pop\n        /* \"#utility.yul\":1094:1696   */\n      pop\n      pop\n      pop\n        /* \"#utility.yul\":972:1696   */\n      swap3\n      swap2\n      pop\n      pop\n      jump\t// out\n        /* \"#utility.yul\":1702:2071   */\n    tag_9:\n        /* \"#utility.yul\":1843:1847   */\n      0x00\n        /* \"#utility.yul\":1881:1883   */\n      0x20\n        /* \"#utility.yul\":1870:1879   */\n      dup3\n        /* \"#utility.yul\":1866:1884   */\n      add\n        /* \"#utility.yul\":1858:1884   */\n      swap1\n      pop\n        /* \"#utility.yul\":1930:1939   */\n      dup2\n        /* \"#utility.yul\":1924:1928   */\n      dup2\n        /* \"#utility.yul\":1920:1940   */\n      sub\n        /* \"#utility.yul\":1916:1917   */\n      0x00\n        /* \"#utility.yul\":1905:1914   */\n      dup4\n        /* \"#utility.yul\":1901:1918   */\n      add\n        /* \"#utility.yul\":1894:1941   */\n      mstore\n        /* \"#utility.yul\":1958:2064   */\n      tag_70\n        /* \"#utility.yul\":2059:2063   */\n      dup2\n        /* \"#utility.yul\":2050:2056   */\n      dup5\n        /* \"#utility.yul\":1958:2064   */\n      tag_40\n      jump\t// in\n    tag_70:\n        /* \"#utility.yul\":1950:2064   */\n      swap1\n      pop\n        /* \"#utility.yul\":1702:2071   */\n      swap3\n      swap2\n      pop\n      pop\n      jump\t// out\n        /* \"#utility.yul\":2158:2275   */\n    tag_42:\n        /* \"#utility.yul\":2267:2268   */\n      0x00\n        /* \"#utility.yul\":2264:2265   */\n      dup1\n        /* \"#utility.yul\":2257:2269   */\n      revert\n        /* \"#utility.yul\":2404:2524   */\n    tag_44:\n        /* \"#utility.yul\":2476:2499   */\n      tag_75\n        /* \"#utility.yul\":2493:2498   */\n      dup2\n        /* \"#utility.yul\":2476:2499   */\n      tag_36\n      jump\t// in\n    tag_75:\n        /* \"#utility.yul\":2469:2474   */\n      dup2\n        /* \"#utility.yul\":2466:2500   */\n      eq\n        /* \"#utility.yul\":2456:2518   */\n      tag_76\n      jumpi\n        /* \"#utility.yul\":2514:2515   */\n      0x00\n        /* \"#utility.yul\":2511:2512   */\n      dup1\n        /* \"#utility.yul\":2504:2516   */\n      revert\n        /* \"#utility.yul\":2456:2518   */\n    tag_76:\n        /* \"#utility.yul\":2404:2524   */\n      pop\n      jump\t// out\n        /* \"#utility.yul\":2530:2667   */\n    tag_45:\n        /* \"#utility.yul\":2575:2580   */\n      0x00\n        /* \"#utility.yul\":2613:2619   */\n      dup2\n        /* \"#utility.yul\":2600:2620   */\n      calldataload\n        /* \"#utility.yul\":2591:2620   */\n      swap1\n      pop\n        /* \"#utility.yul\":2629:2661   */\n      tag_78\n        /* \"#utility.yul\":2655:2660   */\n      dup2\n        /* \"#utility.yul\":2629:2661   */\n      tag_44\n      jump\t// in\n    tag_78:\n        /* \"#utility.yul\":2530:2667   */\n      swap3\n      swap2\n      pop\n      pop\n      jump\t// out\n        /* \"#utility.yul\":2673:3000   */\n    tag_12:\n        /* \"#utility.yul\":2731:2737   */\n      0x00\n        /* \"#utility.yul\":2780:2782   */\n      0x20\n        /* \"#utility.yul\":2768:2777   */\n      dup3\n        /* \"#utility.yul\":2759:2766   */\n      dup5\n        /* \"#utility.yul\":2755:2778   */\n      sub\n        /* \"#utility.yul\":2751:2783   */\n      slt\n        /* \"#utility.yul\":2748:2867   */\n      iszero\n      tag_80\n      jumpi\n        /* \"#utility.yul\":2786:2865   */\n      tag_81\n      tag_42\n      jump\t// in\n    tag_81:\n        /* \"#utility.yul\":2748:2867   */\n    tag_80:\n        /* \"#utility.yul\":2906:2907   */\n      0x00\n        /* \"#utility.yul\":2931:2983   */\n      tag_82\n        /* \"#utility.yul\":2975:2982   */\n      dup5\n        /* \"#utility.yul\":2966:2972   */\n      dup3\n        /* \"#utility.yul\":2955:2964   */\n      dup6\n        /* \"#utility.yul\":2951:2973   */\n      add\n        /* \"#utility.yul\":2931:2983   */\n      tag_45\n      jump\t// in\n    tag_82:\n        /* \"#utility.yul\":2921:2983   */\n      swap2\n      pop\n        /* \"#utility.yul\":2877:2993   */\n      pop\n        /* \"#utility.yul\":2673:3000   */\n      swap3\n      swap2\n      pop\n      pop\n      jump\t// out\n        /* \"#utility.yul\":3006:3186   */\n    tag_46:\n        /* \"#utility.yul\":3054:3131   */\n      0x4e487b7100000000000000000000000000000000000000000000000000000000\n        /* \"#utility.yul\":3051:3052   */\n      0x00\n        /* \"#utility.yul\":3044:3132   */\n      mstore\n        /* \"#utility.yul\":3151:3155   */\n      0x12\n        /* \"#utility.yul\":3148:3149   */\n      0x04\n        /* \"#utility.yul\":3141:3156   */\n      mstore\n        /* \"#utility.yul\":3175:3179   */\n      0x24\n        /* \"#utility.yul\":3172:3173   */\n      0x00\n        /* \"#utility.yul\":3165:3180   */\n      revert\n        /* \"#utility.yul\":3192:3366   */\n    tag_22:\n        /* \"#utility.yul\":3223:3224   */\n      0x00\n        /* \"#utility.yul\":3240:3259   */\n      tag_85\n        /* \"#utility.yul\":3257:3258   */\n      dup3\n        /* \"#utility.yul\":3240:3259   */\n      tag_36\n      jump\t// in\n    tag_85:\n        /* \"#utility.yul\":3235:3259   */\n      swap2\n      pop\n        /* \"#utility.yul\":3273:3292   */\n      tag_86\n        /* \"#utility.yul\":3290:3291   */\n      dup4\n        /* \"#utility.yul\":3273:3292   */\n      tag_36\n      jump\t// in\n    tag_86:\n        /* \"#utility.yul\":3268:3292   */\n      swap3\n      pop\n        /* \"#utility.yul\":3311:3312   */\n      dup3\n        /* \"#utility.yul\":3301:3336   */\n      tag_87\n      jumpi\n        /* \"#utility.yul\":3316:3334   */\n      tag_88\n      tag_46\n      jump\t// in\n    tag_88:\n        /* \"#utility.yul\":3301:3336   */\n    tag_87:\n        /* \"#utility.yul\":3358:3359   */\n      dup3\n        /* \"#utility.yul\":3355:3356   */\n      dup3\n        /* \"#utility.yul\":3350:3360   */\n      smod\n        /* \"#utility.yul\":3345:3360   */\n      swap1\n      pop\n        /* \"#utility.yul\":3192:3366   */\n      swap3\n      swap2\n      pop\n      pop\n      jump\t// out\n        /* \"#utility.yul\":3372:3541   */\n    tag_47:\n        /* \"#utility.yul\":3456:3467   */\n      0x00\n        /* \"#utility.yul\":3490:3496   */\n      dup3\n        /* \"#utility.yul\":3485:3488   */\n      dup3\n        /* \"#utility.yul\":3478:3497   */\n      mstore\n        /* \"#utility.yul\":3530:3534   */\n      0x20\n        /* \"#utility.yul\":3525:3528   */\n      dup3\n        /* \"#utility.yul\":3521:3535   */\n      add\n        /* \"#utility.yul\":3506:3535   */\n      swap1\n      pop\n        /* \"#utility.yul\":3372:3541   */\n      swap3\n      swap2\n      pop\n      pop\n      jump\t// out\n        /* \"#utility.yul\":3547:3719   */\n    tag_48:\n        /* \"#utility.yul\":3687:3711   */\n      0x6170656e6173206e756d65726f7320696d706172657300000000000000000000\n        /* \"#utility.yul\":3683:3684   */\n      0x00\n        /* \"#utility.yul\":3675:3681   */\n      dup3\n        /* \"#utility.yul\":3671:3685   */\n      add\n        /* \"#utility.yul\":3664:3712   */\n      mstore\n        /* \"#utility.yul\":3547:3719   */\n      pop\n      jump\t// out\n        /* \"#utility.yul\":3725:4091   */\n    tag_49:\n        /* \"#utility.yul\":3867:3870   */\n      0x00\n        /* \"#utility.yul\":3888:3955   */\n      tag_92\n        /* \"#utility.yul\":3952:3954   */\n      0x16\n        /* \"#utility.yul\":3947:3950   */\n      dup4\n        /* \"#utility.yul\":3888:3955   */\n      tag_47\n      jump\t// in\n    tag_92:\n        /* \"#utility.yul\":3881:3955   */\n      swap2\n      pop\n        /* \"#utility.yul\":3964:4057   */\n      tag_93\n        /* \"#utility.yul\":4053:4056   */\n      dup3\n        /* \"#utility.yul\":3964:4057   */\n      tag_48\n      jump\t// in\n    tag_93:\n        /* \"#utility.yul\":4082:4084   */\n      0x20\n        /* \"#utility.yul\":4077:4080   */\n      dup3\n        /* \"#utility.yul\":4073:4085   */\n      add\n        /* \"#utility.yul\":4066:4085   */\n      swap1\n      pop\n        /* \"#utility.yul\":3725:4091   */\n      swap2\n      swap1\n      pop\n      jump\t// out\n        /* \"#utility.yul\":4097:4516   */\n    tag_25:\n        /* \"#utility.yul\":4263:4267   */\n      0x00\n        /* \"#utility.yul\":4301:4303   */\n      0x20\n        /* \"#utility.yul\":4290:4299   */\n      dup3\n        /* \"#utility.yul\":4286:4304   */\n      add\n        /* \"#utility.yul\":4278:4304   */\n      swap1\n      pop\n        /* \"#utility.yul\":4350:4359   */\n      dup2\n        /* \"#utility.yul\":4344:4348   */\n      dup2\n        /* \"#utility.yul\":4340:4360   */\n      sub\n        /* \"#utility.yul\":4336:4337   */\n      0x00\n        /* \"#utility.yul\":4325:4334   */\n      dup4\n        /* \"#utility.yul\":4321:4338   */\n      add\n        /* \"#utility.yul\":4314:4361   */\n      mstore\n        /* \"#utility.yul\":4378:4509   */\n      tag_95\n        /* \"#utility.yul\":4504:4508   */\n      dup2\n        /* \"#utility.yul\":4378:4509   */\n      tag_49\n      jump\t// in\n    tag_95:\n        /* \"#utility.yul\":4370:4509   */\n      swap1\n      pop\n        /* \"#utility.yul\":4097:4516   */\n      swap2\n      swap1\n      pop\n      jump\t// out\n        /* \"#utility.yul\":4522:4702   */\n    tag_30:\n        /* \"#utility.yul\":4570:4647   */\n      0x4e487b7100000000000000000000000000000000000000000000000000000000\n        /* \"#utility.yul\":4567:4568   */\n      0x00\n        /* \"#utility.yul\":4560:4648   */\n      mstore\n        /* \"#utility.yul\":4667:4671   */\n      0x31\n        /* \"#utility.yul\":4664:4665   */\n      0x04\n        /* \"#utility.yul\":4657:4672   */\n      mstore\n        /* \"#utility.yul\":4691:4695   */\n      0x24\n        /* \"#utility.yul\":4688:4689   */\n      0x00\n        /* \"#utility.yul\":4681:4696   */\n      revert\n\n    auxdata: 0xa2646970667358221220a0edc8606ebfebc92bf3e9925df565bb38582dd709482069bcfdd73a1650ffae64736f6c63430008110033\n}\n",
				"bytecode": {
					"linkReferences": {},
					"object": "608060405234801561001057600080fd5b5061042d806100206000396000f3fe608060405234801561001057600080fd5b50600436106100415760003560e01c80631236fbf7146100465780635c22be6114610064578063c55b7b0c14610080575b600080fd5b61004e61009c565b60405161005b919061026b565b60405180910390f35b61007e600480360381019061007991906102be565b6100f4565b005b61009a600480360381019061009591906102be565b61016f565b005b606060008054806020026020016040519081016040528092919081815260200182805480156100ea57602002820191906000526020600020905b8154815260200190600101908083116100d6575b5050505050905090565b6000600282610103919061031a565b03610143576040517f08c379a000000000000000000000000000000000000000000000000000000000815260040161013a906103a8565b60405180910390fd5b600081908060018154018082558091505060019003906000526020600020016000909190919091505550565b6000805480610181576101806103c8565b5b600190038181906000526020600020016000905590556101a0816100f4565b50565b600081519050919050565b600082825260208201905092915050565b6000819050602082019050919050565b6000819050919050565b6101e2816101cf565b82525050565b60006101f483836101d9565b60208301905092915050565b6000602082019050919050565b6000610218826101a3565b61022281856101ae565b935061022d836101bf565b8060005b8381101561025e57815161024588826101e8565b975061025083610200565b925050600181019050610231565b5085935050505092915050565b60006020820190508181036000830152610285818461020d565b905092915050565b600080fd5b61029b816101cf565b81146102a657600080fd5b50565b6000813590506102b881610292565b92915050565b6000602082840312156102d4576102d361028d565b5b60006102e2848285016102a9565b91505092915050565b7f4e487b7100000000000000000000000000000000000000000000000000000000600052601260045260246000fd5b6000610325826101cf565b9150610330836101cf565b9250826103405761033f6102eb565b5b828207905092915050565b600082825260208201905092915050565b7f6170656e6173206e756d65726f7320696d706172657300000000000000000000600082015250565b600061039260168361034b565b915061039d8261035c565b602082019050919050565b600060208201905081810360008301526103c181610385565b9050919050565b7f4e487b7100000000000000000000000000000000000000000000000000000000600052603160045260246000fdfea2646970667358221220a0edc8606ebfebc92bf3e9925df565bb38582dd709482069bcfdd73a1650ffae64736f6c63430008110033",
					"opcodes": "PUSH1 0x80 PUSH1 0x40 MSTORE CALLVALUE DUP1 ISZERO PUSH2 0x10 JUMPI PUSH1 0x0 DUP1 REVERT JUMPDEST POP PUSH2 0x42D DUP1 PUSH2 0x20 PUSH1 0x0 CODECOPY PUSH1 0x0 RETURN INVALID PUSH1 0x80 PUSH1 0x40 MSTORE CALLVALUE DUP1 ISZERO PUSH2 0x10 JUMPI PUSH1 0x0 DUP1 REVERT JUMPDEST POP PUSH1 0x4 CALLDATASIZE LT PUSH2 0x41 JUMPI PUSH1 0x0 CALLDATALOAD PUSH1 0xE0 SHR DUP1 PUSH4 0x1236FBF7 EQ PUSH2 0x46 JUMPI DUP1 PUSH4 0x5C22BE61 EQ PUSH2 0x64 JUMPI DUP1 PUSH4 0xC55B7B0C EQ PUSH2 0x80 JUMPI JUMPDEST PUSH1 0x0 DUP1 REVERT JUMPDEST PUSH2 0x4E PUSH2 0x9C JUMP JUMPDEST PUSH1 0x40 MLOAD PUSH2 0x5B SWAP2 SWAP1 PUSH2 0x26B JUMP JUMPDEST PUSH1 0x40 MLOAD DUP1 SWAP2 SUB SWAP1 RETURN JUMPDEST PUSH2 0x7E PUSH1 0x4 DUP1 CALLDATASIZE SUB DUP2 ADD SWAP1 PUSH2 0x79 SWAP2 SWAP1 PUSH2 0x2BE JUMP JUMPDEST PUSH2 0xF4 JUMP JUMPDEST STOP JUMPDEST PUSH2 0x9A PUSH1 0x4 DUP1 CALLDATASIZE SUB DUP2 ADD SWAP1 PUSH2 0x95 SWAP2 SWAP1 PUSH2 0x2BE JUMP JUMPDEST PUSH2 0x16F JUMP JUMPDEST STOP JUMPDEST PUSH1 0x60 PUSH1 0x0 DUP1 SLOAD DUP1 PUSH1 0x20 MUL PUSH1 0x20 ADD PUSH1 0x40 MLOAD SWAP1 DUP2 ADD PUSH1 0x40 MSTORE DUP1 SWAP3 SWAP2 SWAP1 DUP2 DUP2 MSTORE PUSH1 0x20 ADD DUP3 DUP1 SLOAD DUP1 ISZERO PUSH2 0xEA JUMPI PUSH1 0x20 MUL DUP3 ADD SWAP2 SWAP1 PUSH1 0x0 MSTORE PUSH1 0x20 PUSH1 0x0 KECCAK256 SWAP1 JUMPDEST DUP2 SLOAD DUP2 MSTORE PUSH1 0x20 ADD SWAP1 PUSH1 0x1 ADD SWAP1 DUP1 DUP4 GT PUSH2 0xD6 JUMPI JUMPDEST POP POP POP POP POP SWAP1 POP SWAP1 JUMP JUMPDEST PUSH1 0x0 PUSH1 0x2 DUP3 PUSH2 0x103 SWAP2 SWAP1 PUSH2 0x31A JUMP JUMPDEST SUB PUSH2 0x143 JUMPI PUSH1 0x40 MLOAD PUSH32 0x8C379A000000000000000000000000000000000000000000000000000000000 DUP2 MSTORE PUSH1 0x4 ADD PUSH2 0x13A SWAP1 PUSH2 0x3A8 JUMP JUMPDEST PUSH1 0x40 MLOAD DUP1 SWAP2 SUB SWAP1 REVERT JUMPDEST PUSH1 0x0 DUP2 SWAP1 DUP1 PUSH1 0x1 DUP2 SLOAD ADD DUP1 DUP3 SSTORE DUP1 SWAP2 POP POP PUSH1 0x1 SWAP1 SUB SWAP1 PUSH1 0x0 MSTORE PUSH1 0x20 PUSH1 0x0 KECCAK256 ADD PUSH1 0x0 SWAP1 SWAP2 SWAP1 SWAP2 SWAP1 SWAP2 POP SSTORE POP JUMP JUMPDEST PUSH1 0x0 DUP1 SLOAD DUP1 PUSH2 0x181 JUMPI PUSH2 0x180 PUSH2 0x3C8 JUMP JUMPDEST JUMPDEST PUSH1 0x1 SWAP1 SUB DUP2 DUP2 SWAP1 PUSH1 0x0 MSTORE PUSH1 0x20 PUSH1 0x0 KECCAK256 ADD PUSH1 0x0 SWAP1 SSTORE SWAP1 SSTORE PUSH2 0x1A0 DUP2 PUSH2 0xF4 JUMP JUMPDEST POP JUMP JUMPDEST PUSH1 0x0 DUP2 MLOAD SWAP1 POP SWAP2 SWAP1 POP JUMP JUMPDEST PUSH1 0x0 DUP3 DUP3 MSTORE PUSH1 0x20 DUP3 ADD SWAP1 POP SWAP3 SWAP2 POP POP JUMP JUMPDEST PUSH1 0x0 DUP2 SWAP1 POP PUSH1 0x20 DUP3 ADD SWAP1 POP SWAP2 SWAP1 POP JUMP JUMPDEST PUSH1 0x0 DUP2 SWAP1 POP SWAP2 SWAP1 POP JUMP JUMPDEST PUSH2 0x1E2 DUP2 PUSH2 0x1CF JUMP JUMPDEST DUP3 MSTORE POP POP JUMP JUMPDEST PUSH1 0x0 PUSH2 0x1F4 DUP4 DUP4 PUSH2 0x1D9 JUMP JUMPDEST PUSH1 0x20 DUP4 ADD SWAP1 POP SWAP3 SWAP2 POP POP JUMP JUMPDEST PUSH1 0x0 PUSH1 0x20 DUP3 ADD SWAP1 POP SWAP2 SWAP1 POP JUMP JUMPDEST PUSH1 0x0 PUSH2 0x218 DUP3 PUSH2 0x1A3 JUMP JUMPDEST PUSH2 0x222 DUP2 DUP6 PUSH2 0x1AE JUMP JUMPDEST SWAP4 POP PUSH2 0x22D DUP4 PUSH2 0x1BF JUMP JUMPDEST DUP1 PUSH1 0x0 JUMPDEST DUP4 DUP2 LT ISZERO PUSH2 0x25E JUMPI DUP2 MLOAD PUSH2 0x245 DUP9 DUP3 PUSH2 0x1E8 JUMP JUMPDEST SWAP8 POP PUSH2 0x250 DUP4 PUSH2 0x200 JUMP JUMPDEST SWAP3 POP POP PUSH1 0x1 DUP2 ADD SWAP1 POP PUSH2 0x231 JUMP JUMPDEST POP DUP6 SWAP4 POP POP POP POP SWAP3 SWAP2 POP POP JUMP JUMPDEST PUSH1 0x0 PUSH1 0x20 DUP3 ADD SWAP1 POP DUP2 DUP2 SUB PUSH1 0x0 DUP4 ADD MSTORE PUSH2 0x285 DUP2 DUP5 PUSH2 0x20D JUMP JUMPDEST SWAP1 POP SWAP3 SWAP2 POP POP JUMP JUMPDEST PUSH1 0x0 DUP1 REVERT JUMPDEST PUSH2 0x29B DUP2 PUSH2 0x1CF JUMP JUMPDEST DUP2 EQ PUSH2 0x2A6 JUMPI PUSH1 0x0 DUP1 REVERT JUMPDEST POP JUMP JUMPDEST PUSH1 0x0 DUP2 CALLDATALOAD SWAP1 POP PUSH2 0x2B8 DUP2 PUSH2 0x292 JUMP JUMPDEST SWAP3 SWAP2 POP POP JUMP JUMPDEST PUSH1 0x0 PUSH1 0x20 DUP3 DUP5 SUB SLT ISZERO PUSH2 0x2D4 JUMPI PUSH2 0x2D3 PUSH2 0x28D JUMP JUMPDEST JUMPDEST PUSH1 0x0 PUSH2 0x2E2 DUP5 DUP3 DUP6 ADD PUSH2 0x2A9 JUMP JUMPDEST SWAP2 POP POP SWAP3 SWAP2 POP POP JUMP JUMPDEST PUSH32 0x4E487B7100000000000000000000000000000000000000000000000000000000 PUSH1 0x0 MSTORE PUSH1 0x12 PUSH1 0x4 MSTORE PUSH1 0x24 PUSH1 0x0 REVERT JUMPDEST PUSH1 0x0 PUSH2 0x325 DUP3 PUSH2 0x1CF JUMP JUMPDEST SWAP2 POP PUSH2 0x330 DUP4 PUSH2 0x1CF JUMP JUMPDEST SWAP3 POP DUP3 PUSH2 0x340 JUMPI PUSH2 0x33F PUSH2 0x2EB JUMP JUMPDEST JUMPDEST DUP3 DUP3 SMOD SWAP1 POP SWAP3 SWAP2 POP POP JUMP JUMPDEST PUSH1 0x0 DUP3 DUP3 MSTORE PUSH1 0x20 DUP3 ADD SWAP1 POP SWAP3 SWAP2 POP POP JUMP JUMPDEST PUSH32 0x6170656E6173206E756D65726F7320696D706172657300000000000000000000 PUSH1 0x0 DUP3 ADD MSTORE POP JUMP JUMPDEST PUSH1 0x0 PUSH2 0x392 PUSH1 0x16 DUP4 PUSH2 0x34B JUMP JUMPDEST SWAP2 POP PUSH2 0x39D DUP3 PUSH2 0x35C JUMP JUMPDEST PUSH1 0x20 DUP3 ADD SWAP1 POP SWAP2 SWAP1 POP JUMP JUMPDEST PUSH1 0x0 PUSH1 0x20 DUP3 ADD SWAP1 POP DUP2 DUP2 SUB PUSH1 0x0 DUP4 ADD MSTORE PUSH2 0x3C1 DUP2 PUSH2 0x385 JUMP JUMPDEST SWAP1 POP SWAP2 SWAP1 POP JUMP JUMPDEST PUSH32 0x4E487B7100000000000000000000000000000000000000000000000000000000 PUSH1 0x0 MSTORE PUSH1 0x31 PUSH1 0x4 MSTORE PUSH1 0x24 PUSH1 0x0 REVERT INVALID LOG2 PUSH5 0x6970667358 0x22 SLT KECCAK256 LOG0 0xED 0xC8 PUSH1 0x6E 0xBF 0xEB 0xC9 0x2B RETURN 0xE9 SWAP3 0x5D CREATE2 PUSH6 0xBB38582DD709 BASEFEE KECCAK256 PUSH10 0xBCFDD73A1650FFAE6473 PUSH16 0x6C634300081100330000000000000000 "
				},
				"gasEstimates": {
					"creation": {
						"codeDepositCost": "213800",
						"executionCost": "257",
						"totalCost": "214057"
					},
					"external": {
						"adicionarNumerosImpares(int256)": "infinite",
						"mostrarNumeros()": "infinite",
						"reenviarNumero(int256)": "infinite"
					}
				},
				"methodIdentifiers": {
					"adicionarNumerosImpares(int256)": "5c22be61",
					"mostrarNumeros()": "1236fbf7",
					"reenviarNumero(int256)": "c55b7b0c"
				}
			},
			"storageLayout": {
				"storage": [
					{
						"astId": 4,
						"contract": "impar.sol:impar",
						"label": "numerosImpares",
						"offset": 0,
						"slot": "0",
						"type": "t_array(t_int256)dyn_storage"
					}
				],
				"types": {
					"t_array(t_int256)dyn_storage": {
						"base": "t_int256",
						"encoding": "dynamic_array",
						"label": "int256[]",
						"numberOfBytes": "32"
					},
					"t_int256": {
						"encoding": "inplace",
						"label": "int256",
						"numberOfBytes": "32"
					}
				}
			},
			"userdoc": {
				"kind": "user",
				"methods": {},
				"version": 1
			}
		}
	}
}