{
	"transferirMoeda.sol": {
		"transacaoEther": {
			"abi": [
				{
					"inputs": [
						{
							"internalType": "address",
							"name": "",
							"type": "address"
						}
					],
					"name": "carteira",
					"outputs": [
						{
							"internalType": "string",
							"name": "",
							"type": "string"
						}
					],
					"stateMutability": "view",
					"type": "function"
				},
				{
					"inputs": [],
					"name": "dolar",
					"outputs": [
						{
							"internalType": "string",
							"name": "",
							"type": "string"
						}
					],
					"stateMutability": "view",
					"type": "function"
				},
				{
					"inputs": [
						{
							"internalType": "address",
							"name": "",
							"type": "address"
						}
					],
					"name": "meuEmprestimo",
					"outputs": [
						{
							"internalType": "string",
							"name": "",
							"type": "string"
						}
					],
					"stateMutability": "view",
					"type": "function"
				},
				{
					"inputs": [
						{
							"internalType": "address",
							"name": "to",
							"type": "address"
						},
						{
							"internalType": "string",
							"name": "extrato",
							"type": "string"
						},
						{
							"internalType": "string",
							"name": "valor",
							"type": "string"
						}
					],
					"name": "transferir",
					"outputs": [],
					"stateMutability": "payable",
					"type": "function"
				}
			],
			"devdoc": {
				"kind": "dev",
				"methods": {},
				"version": 1
			},
			"evm": {
				"assembly": "    /* \"transferirMoeda.sol\":64:469  contract transacaoEther{... */\n  mstore(0x40, 0x80)\n  callvalue\n  dup1\n  iszero\n  tag_1\n  jumpi\n  0x00\n  dup1\n  revert\ntag_1:\n  pop\n  dataSize(sub_0)\n  dup1\n  dataOffset(sub_0)\n  0x00\n  codecopy\n  0x00\n  return\nstop\n\nsub_0: assembly {\n        /* \"transferirMoeda.sol\":64:469  contract transacaoEther{... */\n      mstore(0x40, 0x80)\n      jumpi(tag_1, lt(calldatasize, 0x04))\n      shr(0xe0, calldataload(0x00))\n      dup1\n      0x014ec76e\n      eq\n      tag_2\n      jumpi\n      dup1\n      0x19075906\n      eq\n      tag_3\n      jumpi\n      dup1\n      0x267ce921\n      eq\n      tag_4\n      jumpi\n      dup1\n      0x73e3f030\n      eq\n      tag_5\n      jumpi\n    tag_1:\n      0x00\n      dup1\n      revert\n        /* \"transferirMoeda.sol\":179:227  mapping (address => string) public meuEmprestimo */\n    tag_2:\n      callvalue\n      dup1\n      iszero\n      tag_6\n      jumpi\n      0x00\n      dup1\n      revert\n    tag_6:\n      pop\n      tag_7\n      0x04\n      dup1\n      calldatasize\n      sub\n      dup2\n      add\n      swap1\n      tag_8\n      swap2\n      swap1\n      tag_9\n      jump\t// in\n    tag_8:\n      tag_10\n      jump\t// in\n    tag_7:\n      mload(0x40)\n      tag_11\n      swap2\n      swap1\n      tag_12\n      jump\t// in\n    tag_11:\n      mload(0x40)\n      dup1\n      swap2\n      sub\n      swap1\n      return\n        /* \"transferirMoeda.sol\":241:466  function transferir(address to, string memory extrato, string memory valor) public payable{... */\n    tag_3:\n      tag_13\n      0x04\n      dup1\n      calldatasize\n      sub\n      dup2\n      add\n      swap1\n      tag_14\n      swap2\n      swap1\n      tag_15\n      jump\t// in\n    tag_14:\n      tag_16\n      jump\t// in\n    tag_13:\n      stop\n        /* \"transferirMoeda.sol\":101:120  string public dolar */\n    tag_4:\n      callvalue\n      dup1\n      iszero\n      tag_17\n      jumpi\n      0x00\n      dup1\n      revert\n    tag_17:\n      pop\n      tag_18\n      tag_19\n      jump\t// in\n    tag_18:\n      mload(0x40)\n      tag_20\n      swap2\n      swap1\n      tag_12\n      jump\t// in\n    tag_20:\n      mload(0x40)\n      dup1\n      swap2\n      sub\n      swap1\n      return\n        /* \"transferirMoeda.sol\":128:171  mapping (address => string) public carteira */\n    tag_5:\n      callvalue\n      dup1\n      iszero\n      tag_21\n      jumpi\n      0x00\n      dup1\n      revert\n    tag_21:\n      pop\n      tag_22\n      0x04\n      dup1\n      calldatasize\n      sub\n      dup2\n      add\n      swap1\n      tag_23\n      swap2\n      swap1\n      tag_9\n      jump\t// in\n    tag_23:\n      tag_24\n      jump\t// in\n    tag_22:\n      mload(0x40)\n      tag_25\n      swap2\n      swap1\n      tag_12\n      jump\t// in\n    tag_25:\n      mload(0x40)\n      dup1\n      swap2\n      sub\n      swap1\n      return\n        /* \"transferirMoeda.sol\":179:227  mapping (address => string) public meuEmprestimo */\n    tag_10:\n      mstore(0x20, 0x02)\n      dup1\n      0x00\n      mstore\n      keccak256(0x00, 0x40)\n      0x00\n      swap2\n      pop\n      swap1\n      pop\n      dup1\n      sload\n      tag_26\n      swap1\n      tag_27\n      jump\t// in\n    tag_26:\n      dup1\n      0x1f\n      add\n      0x20\n      dup1\n      swap2\n      div\n      mul\n      0x20\n      add\n      mload(0x40)\n      swap1\n      dup2\n      add\n      0x40\n      mstore\n      dup1\n      swap3\n      swap2\n      swap1\n      dup2\n      dup2\n      mstore\n      0x20\n      add\n      dup3\n      dup1\n      sload\n      tag_28\n      swap1\n      tag_27\n      jump\t// in\n    tag_28:\n      dup1\n      iszero\n      tag_29\n      jumpi\n      dup1\n      0x1f\n      lt\n      tag_30\n      jumpi\n      0x0100\n      dup1\n      dup4\n      sload\n      div\n      mul\n      dup4\n      mstore\n      swap2\n      0x20\n      add\n      swap2\n      jump(tag_29)\n    tag_30:\n      dup3\n      add\n      swap2\n      swap1\n      0x00\n      mstore\n      keccak256(0x00, 0x20)\n      swap1\n    tag_31:\n      dup2\n      sload\n      dup2\n      mstore\n      swap1\n      0x01\n      add\n      swap1\n      0x20\n      add\n      dup1\n      dup4\n      gt\n      tag_31\n      jumpi\n      dup3\n      swap1\n      sub\n      0x1f\n      and\n      dup3\n      add\n      swap2\n    tag_29:\n      pop\n      pop\n      pop\n      pop\n      pop\n      dup2\n      jump\t// out\n        /* \"transferirMoeda.sol\":241:466  function transferir(address to, string memory extrato, string memory valor) public payable{... */\n    tag_16:\n        /* \"transferirMoeda.sol\":350:352  to */\n      dup3\n        /* \"transferirMoeda.sol\":342:362  payable(to).transfer */\n      0xffffffffffffffffffffffffffffffffffffffff\n      and\n        /* \"transferirMoeda.sol\":342:373  payable(to).transfer(msg.value) */\n      0x08fc\n        /* \"transferirMoeda.sol\":363:372  msg.value */\n      callvalue\n        /* \"transferirMoeda.sol\":342:373  payable(to).transfer(msg.value) */\n      swap1\n      dup2\n      iszero\n      mul\n      swap1\n      mload(0x40)\n      0x00\n      mload(0x40)\n      dup1\n      dup4\n      sub\n      dup2\n      dup6\n      dup9\n      dup9\n      call\n      swap4\n      pop\n      pop\n      pop\n      pop\n      iszero\n      dup1\n      iszero\n      tag_34\n      jumpi\n      returndatasize\n      0x00\n      dup1\n      returndatacopy\n      revert(0x00, returndatasize)\n    tag_34:\n      pop\n        /* \"transferirMoeda.sol\":407:414  extrato */\n      dup2\n        /* \"transferirMoeda.sol\":384:392  carteira */\n      0x01\n        /* \"transferirMoeda.sol\":384:404  carteira[msg.sender] */\n      0x00\n        /* \"transferirMoeda.sol\":393:403  msg.sender */\n      caller\n        /* \"transferirMoeda.sol\":384:404  carteira[msg.sender] */\n      0xffffffffffffffffffffffffffffffffffffffff\n      and\n      0xffffffffffffffffffffffffffffffffffffffff\n      and\n      dup2\n      mstore\n      0x20\n      add\n      swap1\n      dup2\n      mstore\n      0x20\n      add\n      0x00\n      keccak256\n        /* \"transferirMoeda.sol\":384:414  carteira[msg.sender] = extrato */\n      swap1\n      dup2\n      tag_35\n      swap2\n      swap1\n      tag_36\n      jump\t// in\n    tag_35:\n      pop\n        /* \"transferirMoeda.sol\":453:458  valor */\n      dup1\n        /* \"transferirMoeda.sol\":425:438  meuEmprestimo */\n      0x02\n        /* \"transferirMoeda.sol\":425:450  meuEmprestimo[msg.sender] */\n      0x00\n        /* \"transferirMoeda.sol\":439:449  msg.sender */\n      caller\n        /* \"transferirMoeda.sol\":425:450  meuEmprestimo[msg.sender] */\n      0xffffffffffffffffffffffffffffffffffffffff\n      and\n      0xffffffffffffffffffffffffffffffffffffffff\n      and\n      dup2\n      mstore\n      0x20\n      add\n      swap1\n      dup2\n      mstore\n      0x20\n      add\n      0x00\n      keccak256\n        /* \"transferirMoeda.sol\":425:458  meuEmprestimo[msg.sender] = valor */\n      swap1\n      dup2\n      tag_37\n      swap2\n      swap1\n      tag_36\n      jump\t// in\n    tag_37:\n      pop\n        /* \"transferirMoeda.sol\":241:466  function transferir(address to, string memory extrato, string memory valor) public payable{... */\n      pop\n      pop\n      pop\n      jump\t// out\n        /* \"transferirMoeda.sol\":101:120  string public dolar */\n    tag_19:\n      0x00\n      dup1\n      sload\n      tag_38\n      swap1\n      tag_27\n      jump\t// in\n    tag_38:\n      dup1\n      0x1f\n      add\n      0x20\n      dup1\n      swap2\n      div\n      mul\n      0x20\n      add\n      mload(0x40)\n      swap1\n      dup2\n      add\n      0x40\n      mstore\n      dup1\n      swap3\n      swap2\n      swap1\n      dup2\n      dup2\n      mstore\n      0x20\n      add\n      dup3\n      dup1\n      sload\n      tag_39\n      swap1\n      tag_27\n      jump\t// in\n    tag_39:\n      dup1\n      iszero\n      tag_40\n      jumpi\n      dup1\n      0x1f\n      lt\n      tag_41\n      jumpi\n      0x0100\n      dup1\n      dup4\n      sload\n      div\n      mul\n      dup4\n      mstore\n      swap2\n      0x20\n      add\n      swap2\n      jump(tag_40)\n    tag_41:\n      dup3\n      add\n      swap2\n      swap1\n      0x00\n      mstore\n      keccak256(0x00, 0x20)\n      swap1\n    tag_42:\n      dup2\n      sload\n      dup2\n      mstore\n      swap1\n      0x01\n      add\n      swap1\n      0x20\n      add\n      dup1\n      dup4\n      gt\n      tag_42\n      jumpi\n      dup3\n      swap1\n      sub\n      0x1f\n      and\n      dup3\n      add\n      swap2\n    tag_40:\n      pop\n      pop\n      pop\n      pop\n      pop\n      dup2\n      jump\t// out\n        /* \"transferirMoeda.sol\":128:171  mapping (address => string) public carteira */\n    tag_24:\n      mstore(0x20, 0x01)\n      dup1\n      0x00\n      mstore\n      keccak256(0x00, 0x40)\n      0x00\n      swap2\n      pop\n      swap1\n      pop\n      dup1\n      sload\n      tag_43\n      swap1\n      tag_27\n      jump\t// in\n    tag_43:\n      dup1\n      0x1f\n      add\n      0x20\n      dup1\n      swap2\n      div\n      mul\n      0x20\n      add\n      mload(0x40)\n      swap1\n      dup2\n      add\n      0x40\n      mstore\n      dup1\n      swap3\n      swap2\n      swap1\n      dup2\n      dup2\n      mstore\n      0x20\n      add\n      dup3\n      dup1\n      sload\n      tag_44\n      swap1\n      tag_27\n      jump\t// in\n    tag_44:\n      dup1\n      iszero\n      tag_45\n      jumpi\n      dup1\n      0x1f\n      lt\n      tag_46\n      jumpi\n      0x0100\n      dup1\n      dup4\n      sload\n      div\n      mul\n      dup4\n      mstore\n      swap2\n      0x20\n      add\n      swap2\n      jump(tag_45)\n    tag_46:\n      dup3\n      add\n      swap2\n      swap1\n      0x00\n      mstore\n      keccak256(0x00, 0x20)\n      swap1\n    tag_47:\n      dup2\n      sload\n      dup2\n      mstore\n      swap1\n      0x01\n      add\n      swap1\n      0x20\n      add\n      dup1\n      dup4\n      gt\n      tag_47\n      jumpi\n      dup3\n      swap1\n      sub\n      0x1f\n      and\n      dup3\n      add\n      swap2\n    tag_45:\n      pop\n      pop\n      pop\n      pop\n      pop\n      dup2\n      jump\t// out\n        /* \"#utility.yul\":7:82   */\n    tag_48:\n        /* \"#utility.yul\":40:46   */\n      0x00\n        /* \"#utility.yul\":73:75   */\n      0x40\n        /* \"#utility.yul\":67:76   */\n      mload\n        /* \"#utility.yul\":57:76   */\n      swap1\n      pop\n        /* \"#utility.yul\":7:82   */\n      swap1\n      jump\t// out\n        /* \"#utility.yul\":88:205   */\n    tag_49:\n        /* \"#utility.yul\":197:198   */\n      0x00\n        /* \"#utility.yul\":194:195   */\n      dup1\n        /* \"#utility.yul\":187:199   */\n      revert\n        /* \"#utility.yul\":211:328   */\n    tag_50:\n        /* \"#utility.yul\":320:321   */\n      0x00\n        /* \"#utility.yul\":317:318   */\n      dup1\n        /* \"#utility.yul\":310:322   */\n      revert\n        /* \"#utility.yul\":334:460   */\n    tag_51:\n        /* \"#utility.yul\":371:378   */\n      0x00\n        /* \"#utility.yul\":411:453   */\n      0xffffffffffffffffffffffffffffffffffffffff\n        /* \"#utility.yul\":404:409   */\n      dup3\n        /* \"#utility.yul\":400:454   */\n      and\n        /* \"#utility.yul\":389:454   */\n      swap1\n      pop\n        /* \"#utility.yul\":334:460   */\n      swap2\n      swap1\n      pop\n      jump\t// out\n        /* \"#utility.yul\":466:562   */\n    tag_52:\n        /* \"#utility.yul\":503:510   */\n      0x00\n        /* \"#utility.yul\":532:556   */\n      tag_92\n        /* \"#utility.yul\":550:555   */\n      dup3\n        /* \"#utility.yul\":532:556   */\n      tag_51\n      jump\t// in\n    tag_92:\n        /* \"#utility.yul\":521:556   */\n      swap1\n      pop\n        /* \"#utility.yul\":466:562   */\n      swap2\n      swap1\n      pop\n      jump\t// out\n        /* \"#utility.yul\":568:690   */\n    tag_53:\n        /* \"#utility.yul\":641:665   */\n      tag_94\n        /* \"#utility.yul\":659:664   */\n      dup2\n        /* \"#utility.yul\":641:665   */\n      tag_52\n      jump\t// in\n    tag_94:\n        /* \"#utility.yul\":634:639   */\n      dup2\n        /* \"#utility.yul\":631:666   */\n      eq\n        /* \"#utility.yul\":621:684   */\n      tag_95\n      jumpi\n        /* \"#utility.yul\":680:681   */\n      0x00\n        /* \"#utility.yul\":677:678   */\n      dup1\n        /* \"#utility.yul\":670:682   */\n      revert\n        /* \"#utility.yul\":621:684   */\n    tag_95:\n        /* \"#utility.yul\":568:690   */\n      pop\n      jump\t// out\n        /* \"#utility.yul\":696:835   */\n    tag_54:\n        /* \"#utility.yul\":742:747   */\n      0x00\n        /* \"#utility.yul\":780:786   */\n      dup2\n        /* \"#utility.yul\":767:787   */\n      calldataload\n        /* \"#utility.yul\":758:787   */\n      swap1\n      pop\n        /* \"#utility.yul\":796:829   */\n      tag_97\n        /* \"#utility.yul\":823:828   */\n      dup2\n        /* \"#utility.yul\":796:829   */\n      tag_53\n      jump\t// in\n    tag_97:\n        /* \"#utility.yul\":696:835   */\n      swap3\n      swap2\n      pop\n      pop\n      jump\t// out\n        /* \"#utility.yul\":841:1170   */\n    tag_9:\n        /* \"#utility.yul\":900:906   */\n      0x00\n        /* \"#utility.yul\":949:951   */\n      0x20\n        /* \"#utility.yul\":937:946   */\n      dup3\n        /* \"#utility.yul\":928:935   */\n      dup5\n        /* \"#utility.yul\":924:947   */\n      sub\n        /* \"#utility.yul\":920:952   */\n      slt\n        /* \"#utility.yul\":917:1036   */\n      iszero\n      tag_99\n      jumpi\n        /* \"#utility.yul\":955:1034   */\n      tag_100\n      tag_49\n      jump\t// in\n    tag_100:\n        /* \"#utility.yul\":917:1036   */\n    tag_99:\n        /* \"#utility.yul\":1075:1076   */\n      0x00\n        /* \"#utility.yul\":1100:1153   */\n      tag_101\n        /* \"#utility.yul\":1145:1152   */\n      dup5\n        /* \"#utility.yul\":1136:1142   */\n      dup3\n        /* \"#utility.yul\":1125:1134   */\n      dup6\n        /* \"#utility.yul\":1121:1143   */\n      add\n        /* \"#utility.yul\":1100:1153   */\n      tag_54\n      jump\t// in\n    tag_101:\n        /* \"#utility.yul\":1090:1153   */\n      swap2\n      pop\n        /* \"#utility.yul\":1046:1163   */\n      pop\n        /* \"#utility.yul\":841:1170   */\n      swap3\n      swap2\n      pop\n      pop\n      jump\t// out\n        /* \"#utility.yul\":1176:1275   */\n    tag_55:\n        /* \"#utility.yul\":1228:1234   */\n      0x00\n        /* \"#utility.yul\":1262:1267   */\n      dup2\n        /* \"#utility.yul\":1256:1268   */\n      mload\n        /* \"#utility.yul\":1246:1268   */\n      swap1\n      pop\n        /* \"#utility.yul\":1176:1275   */\n      swap2\n      swap1\n      pop\n      jump\t// out\n        /* \"#utility.yul\":1281:1450   */\n    tag_56:\n        /* \"#utility.yul\":1365:1376   */\n      0x00\n        /* \"#utility.yul\":1399:1405   */\n      dup3\n        /* \"#utility.yul\":1394:1397   */\n      dup3\n        /* \"#utility.yul\":1387:1406   */\n      mstore\n        /* \"#utility.yul\":1439:1443   */\n      0x20\n        /* \"#utility.yul\":1434:1437   */\n      dup3\n        /* \"#utility.yul\":1430:1444   */\n      add\n        /* \"#utility.yul\":1415:1444   */\n      swap1\n      pop\n        /* \"#utility.yul\":1281:1450   */\n      swap3\n      swap2\n      pop\n      pop\n      jump\t// out\n        /* \"#utility.yul\":1456:1702   */\n    tag_57:\n        /* \"#utility.yul\":1537:1538   */\n      0x00\n        /* \"#utility.yul\":1547:1660   */\n    tag_105:\n        /* \"#utility.yul\":1561:1567   */\n      dup4\n        /* \"#utility.yul\":1558:1559   */\n      dup2\n        /* \"#utility.yul\":1555:1568   */\n      lt\n        /* \"#utility.yul\":1547:1660   */\n      iszero\n      tag_107\n      jumpi\n        /* \"#utility.yul\":1646:1647   */\n      dup1\n        /* \"#utility.yul\":1641:1644   */\n      dup3\n        /* \"#utility.yul\":1637:1648   */\n      add\n        /* \"#utility.yul\":1631:1649   */\n      mload\n        /* \"#utility.yul\":1627:1628   */\n      dup2\n        /* \"#utility.yul\":1622:1625   */\n      dup5\n        /* \"#utility.yul\":1618:1629   */\n      add\n        /* \"#utility.yul\":1611:1650   */\n      mstore\n        /* \"#utility.yul\":1583:1585   */\n      0x20\n        /* \"#utility.yul\":1580:1581   */\n      dup2\n        /* \"#utility.yul\":1576:1586   */\n      add\n        /* \"#utility.yul\":1571:1586   */\n      swap1\n      pop\n        /* \"#utility.yul\":1547:1660   */\n      jump(tag_105)\n    tag_107:\n        /* \"#utility.yul\":1694:1695   */\n      0x00\n        /* \"#utility.yul\":1685:1691   */\n      dup5\n        /* \"#utility.yul\":1680:1683   */\n      dup5\n        /* \"#utility.yul\":1676:1692   */\n      add\n        /* \"#utility.yul\":1669:1696   */\n      mstore\n        /* \"#utility.yul\":1518:1702   */\n      pop\n        /* \"#utility.yul\":1456:1702   */\n      pop\n      pop\n      pop\n      jump\t// out\n        /* \"#utility.yul\":1708:1810   */\n    tag_58:\n        /* \"#utility.yul\":1749:1755   */\n      0x00\n        /* \"#utility.yul\":1800:1802   */\n      0x1f\n        /* \"#utility.yul\":1796:1803   */\n      not\n        /* \"#utility.yul\":1791:1793   */\n      0x1f\n        /* \"#utility.yul\":1784:1789   */\n      dup4\n        /* \"#utility.yul\":1780:1794   */\n      add\n        /* \"#utility.yul\":1776:1804   */\n      and\n        /* \"#utility.yul\":1766:1804   */\n      swap1\n      pop\n        /* \"#utility.yul\":1708:1810   */\n      swap2\n      swap1\n      pop\n      jump\t// out\n        /* \"#utility.yul\":1816:2193   */\n    tag_59:\n        /* \"#utility.yul\":1904:1907   */\n      0x00\n        /* \"#utility.yul\":1932:1971   */\n      tag_110\n        /* \"#utility.yul\":1965:1970   */\n      dup3\n        /* \"#utility.yul\":1932:1971   */\n      tag_55\n      jump\t// in\n    tag_110:\n        /* \"#utility.yul\":1987:2058   */\n      tag_111\n        /* \"#utility.yul\":2051:2057   */\n      dup2\n        /* \"#utility.yul\":2046:2049   */\n      dup6\n        /* \"#utility.yul\":1987:2058   */\n      tag_56\n      jump\t// in\n    tag_111:\n        /* \"#utility.yul\":1980:2058   */\n      swap4\n      pop\n        /* \"#utility.yul\":2067:2132   */\n      tag_112\n        /* \"#utility.yul\":2125:2131   */\n      dup2\n        /* \"#utility.yul\":2120:2123   */\n      dup6\n        /* \"#utility.yul\":2113:2117   */\n      0x20\n        /* \"#utility.yul\":2106:2111   */\n      dup7\n        /* \"#utility.yul\":2102:2118   */\n      add\n        /* \"#utility.yul\":2067:2132   */\n      tag_57\n      jump\t// in\n    tag_112:\n        /* \"#utility.yul\":2157:2186   */\n      tag_113\n        /* \"#utility.yul\":2179:2185   */\n      dup2\n        /* \"#utility.yul\":2157:2186   */\n      tag_58\n      jump\t// in\n    tag_113:\n        /* \"#utility.yul\":2152:2155   */\n      dup5\n        /* \"#utility.yul\":2148:2187   */\n      add\n        /* \"#utility.yul\":2141:2187   */\n      swap2\n      pop\n        /* \"#utility.yul\":1908:2193   */\n      pop\n        /* \"#utility.yul\":1816:2193   */\n      swap3\n      swap2\n      pop\n      pop\n      jump\t// out\n        /* \"#utility.yul\":2199:2512   */\n    tag_12:\n        /* \"#utility.yul\":2312:2316   */\n      0x00\n        /* \"#utility.yul\":2350:2352   */\n      0x20\n        /* \"#utility.yul\":2339:2348   */\n      dup3\n        /* \"#utility.yul\":2335:2353   */\n      add\n        /* \"#utility.yul\":2327:2353   */\n      swap1\n      pop\n        /* \"#utility.yul\":2399:2408   */\n      dup2\n        /* \"#utility.yul\":2393:2397   */\n      dup2\n        /* \"#utility.yul\":2389:2409   */\n      sub\n        /* \"#utility.yul\":2385:2386   */\n      0x00\n        /* \"#utility.yul\":2374:2383   */\n      dup4\n        /* \"#utility.yul\":2370:2387   */\n      add\n        /* \"#utility.yul\":2363:2410   */\n      mstore\n        /* \"#utility.yul\":2427:2505   */\n      tag_115\n        /* \"#utility.yul\":2500:2504   */\n      dup2\n        /* \"#utility.yul\":2491:2497   */\n      dup5\n        /* \"#utility.yul\":2427:2505   */\n      tag_59\n      jump\t// in\n    tag_115:\n        /* \"#utility.yul\":2419:2505   */\n      swap1\n      pop\n        /* \"#utility.yul\":2199:2512   */\n      swap3\n      swap2\n      pop\n      pop\n      jump\t// out\n        /* \"#utility.yul\":2518:2635   */\n    tag_60:\n        /* \"#utility.yul\":2627:2628   */\n      0x00\n        /* \"#utility.yul\":2624:2625   */\n      dup1\n        /* \"#utility.yul\":2617:2629   */\n      revert\n        /* \"#utility.yul\":2641:2758   */\n    tag_61:\n        /* \"#utility.yul\":2750:2751   */\n      0x00\n        /* \"#utility.yul\":2747:2748   */\n      dup1\n        /* \"#utility.yul\":2740:2752   */\n      revert\n        /* \"#utility.yul\":2764:2944   */\n    tag_62:\n        /* \"#utility.yul\":2812:2889   */\n      0x4e487b7100000000000000000000000000000000000000000000000000000000\n        /* \"#utility.yul\":2809:2810   */\n      0x00\n        /* \"#utility.yul\":2802:2890   */\n      mstore\n        /* \"#utility.yul\":2909:2913   */\n      0x41\n        /* \"#utility.yul\":2906:2907   */\n      0x04\n        /* \"#utility.yul\":2899:2914   */\n      mstore\n        /* \"#utility.yul\":2933:2937   */\n      0x24\n        /* \"#utility.yul\":2930:2931   */\n      0x00\n        /* \"#utility.yul\":2923:2938   */\n      revert\n        /* \"#utility.yul\":2950:3231   */\n    tag_63:\n        /* \"#utility.yul\":3033:3060   */\n      tag_120\n        /* \"#utility.yul\":3055:3059   */\n      dup3\n        /* \"#utility.yul\":3033:3060   */\n      tag_58\n      jump\t// in\n    tag_120:\n        /* \"#utility.yul\":3025:3031   */\n      dup2\n        /* \"#utility.yul\":3021:3061   */\n      add\n        /* \"#utility.yul\":3163:3169   */\n      dup2\n        /* \"#utility.yul\":3151:3161   */\n      dup2\n        /* \"#utility.yul\":3148:3170   */\n      lt\n        /* \"#utility.yul\":3127:3145   */\n      0xffffffffffffffff\n        /* \"#utility.yul\":3115:3125   */\n      dup3\n        /* \"#utility.yul\":3112:3146   */\n      gt\n        /* \"#utility.yul\":3109:3171   */\n      or\n        /* \"#utility.yul\":3106:3194   */\n      iszero\n      tag_121\n      jumpi\n        /* \"#utility.yul\":3174:3192   */\n      tag_122\n      tag_62\n      jump\t// in\n    tag_122:\n        /* \"#utility.yul\":3106:3194   */\n    tag_121:\n        /* \"#utility.yul\":3214:3224   */\n      dup1\n        /* \"#utility.yul\":3210:3212   */\n      0x40\n        /* \"#utility.yul\":3203:3225   */\n      mstore\n        /* \"#utility.yul\":2993:3231   */\n      pop\n        /* \"#utility.yul\":2950:3231   */\n      pop\n      pop\n      jump\t// out\n        /* \"#utility.yul\":3237:3366   */\n    tag_64:\n        /* \"#utility.yul\":3271:3277   */\n      0x00\n        /* \"#utility.yul\":3298:3318   */\n      tag_124\n      tag_48\n      jump\t// in\n    tag_124:\n        /* \"#utility.yul\":3288:3318   */\n      swap1\n      pop\n        /* \"#utility.yul\":3327:3360   */\n      tag_125\n        /* \"#utility.yul\":3355:3359   */\n      dup3\n        /* \"#utility.yul\":3347:3353   */\n      dup3\n        /* \"#utility.yul\":3327:3360   */\n      tag_63\n      jump\t// in\n    tag_125:\n        /* \"#utility.yul\":3237:3366   */\n      swap2\n      swap1\n      pop\n      jump\t// out\n        /* \"#utility.yul\":3372:3680   */\n    tag_65:\n        /* \"#utility.yul\":3434:3438   */\n      0x00\n        /* \"#utility.yul\":3524:3542   */\n      0xffffffffffffffff\n        /* \"#utility.yul\":3516:3522   */\n      dup3\n        /* \"#utility.yul\":3513:3543   */\n      gt\n        /* \"#utility.yul\":3510:3566   */\n      iszero\n      tag_127\n      jumpi\n        /* \"#utility.yul\":3546:3564   */\n      tag_128\n      tag_62\n      jump\t// in\n    tag_128:\n        /* \"#utility.yul\":3510:3566   */\n    tag_127:\n        /* \"#utility.yul\":3584:3613   */\n      tag_129\n        /* \"#utility.yul\":3606:3612   */\n      dup3\n        /* \"#utility.yul\":3584:3613   */\n      tag_58\n      jump\t// in\n    tag_129:\n        /* \"#utility.yul\":3576:3613   */\n      swap1\n      pop\n        /* \"#utility.yul\":3668:3672   */\n      0x20\n        /* \"#utility.yul\":3662:3666   */\n      dup2\n        /* \"#utility.yul\":3658:3673   */\n      add\n        /* \"#utility.yul\":3650:3673   */\n      swap1\n      pop\n        /* \"#utility.yul\":3372:3680   */\n      swap2\n      swap1\n      pop\n      jump\t// out\n        /* \"#utility.yul\":3686:3832   */\n    tag_66:\n        /* \"#utility.yul\":3783:3789   */\n      dup3\n        /* \"#utility.yul\":3778:3781   */\n      dup2\n        /* \"#utility.yul\":3773:3776   */\n      dup4\n        /* \"#utility.yul\":3760:3790   */\n      calldatacopy\n        /* \"#utility.yul\":3824:3825   */\n      0x00\n        /* \"#utility.yul\":3815:3821   */\n      dup4\n        /* \"#utility.yul\":3810:3813   */\n      dup4\n        /* \"#utility.yul\":3806:3822   */\n      add\n        /* \"#utility.yul\":3799:3826   */\n      mstore\n        /* \"#utility.yul\":3686:3832   */\n      pop\n      pop\n      pop\n      jump\t// out\n        /* \"#utility.yul\":3838:4263   */\n    tag_67:\n        /* \"#utility.yul\":3916:3921   */\n      0x00\n        /* \"#utility.yul\":3941:4007   */\n      tag_132\n        /* \"#utility.yul\":3957:4006   */\n      tag_133\n        /* \"#utility.yul\":3999:4005   */\n      dup5\n        /* \"#utility.yul\":3957:4006   */\n      tag_65\n      jump\t// in\n    tag_133:\n        /* \"#utility.yul\":3941:4007   */\n      tag_64\n      jump\t// in\n    tag_132:\n        /* \"#utility.yul\":3932:4007   */\n      swap1\n      pop\n        /* \"#utility.yul\":4030:4036   */\n      dup3\n        /* \"#utility.yul\":4023:4028   */\n      dup2\n        /* \"#utility.yul\":4016:4037   */\n      mstore\n        /* \"#utility.yul\":4068:4072   */\n      0x20\n        /* \"#utility.yul\":4061:4066   */\n      dup2\n        /* \"#utility.yul\":4057:4073   */\n      add\n        /* \"#utility.yul\":4106:4109   */\n      dup5\n        /* \"#utility.yul\":4097:4103   */\n      dup5\n        /* \"#utility.yul\":4092:4095   */\n      dup5\n        /* \"#utility.yul\":4088:4104   */\n      add\n        /* \"#utility.yul\":4085:4110   */\n      gt\n        /* \"#utility.yul\":4082:4194   */\n      iszero\n      tag_134\n      jumpi\n        /* \"#utility.yul\":4113:4192   */\n      tag_135\n      tag_61\n      jump\t// in\n    tag_135:\n        /* \"#utility.yul\":4082:4194   */\n    tag_134:\n        /* \"#utility.yul\":4203:4257   */\n      tag_136\n        /* \"#utility.yul\":4250:4256   */\n      dup5\n        /* \"#utility.yul\":4245:4248   */\n      dup3\n        /* \"#utility.yul\":4240:4243   */\n      dup6\n        /* \"#utility.yul\":4203:4257   */\n      tag_66\n      jump\t// in\n    tag_136:\n        /* \"#utility.yul\":3922:4263   */\n      pop\n        /* \"#utility.yul\":3838:4263   */\n      swap4\n      swap3\n      pop\n      pop\n      pop\n      jump\t// out\n        /* \"#utility.yul\":4283:4623   */\n    tag_68:\n        /* \"#utility.yul\":4339:4344   */\n      0x00\n        /* \"#utility.yul\":4388:4391   */\n      dup3\n        /* \"#utility.yul\":4381:4385   */\n      0x1f\n        /* \"#utility.yul\":4373:4379   */\n      dup4\n        /* \"#utility.yul\":4369:4386   */\n      add\n        /* \"#utility.yul\":4365:4392   */\n      slt\n        /* \"#utility.yul\":4355:4477   */\n      tag_138\n      jumpi\n        /* \"#utility.yul\":4396:4475   */\n      tag_139\n      tag_60\n      jump\t// in\n    tag_139:\n        /* \"#utility.yul\":4355:4477   */\n    tag_138:\n        /* \"#utility.yul\":4513:4519   */\n      dup2\n        /* \"#utility.yul\":4500:4520   */\n      calldataload\n        /* \"#utility.yul\":4538:4617   */\n      tag_140\n        /* \"#utility.yul\":4613:4616   */\n      dup5\n        /* \"#utility.yul\":4605:4611   */\n      dup3\n        /* \"#utility.yul\":4598:4602   */\n      0x20\n        /* \"#utility.yul\":4590:4596   */\n      dup7\n        /* \"#utility.yul\":4586:4603   */\n      add\n        /* \"#utility.yul\":4538:4617   */\n      tag_67\n      jump\t// in\n    tag_140:\n        /* \"#utility.yul\":4529:4617   */\n      swap2\n      pop\n        /* \"#utility.yul\":4345:4623   */\n      pop\n        /* \"#utility.yul\":4283:4623   */\n      swap3\n      swap2\n      pop\n      pop\n      jump\t// out\n        /* \"#utility.yul\":4629:5608   */\n    tag_15:\n        /* \"#utility.yul\":4726:4732   */\n      0x00\n        /* \"#utility.yul\":4734:4740   */\n      dup1\n        /* \"#utility.yul\":4742:4748   */\n      0x00\n        /* \"#utility.yul\":4791:4793   */\n      0x60\n        /* \"#utility.yul\":4779:4788   */\n      dup5\n        /* \"#utility.yul\":4770:4777   */\n      dup7\n        /* \"#utility.yul\":4766:4789   */\n      sub\n        /* \"#utility.yul\":4762:4794   */\n      slt\n        /* \"#utility.yul\":4759:4878   */\n      iszero\n      tag_142\n      jumpi\n        /* \"#utility.yul\":4797:4876   */\n      tag_143\n      tag_49\n      jump\t// in\n    tag_143:\n        /* \"#utility.yul\":4759:4878   */\n    tag_142:\n        /* \"#utility.yul\":4917:4918   */\n      0x00\n        /* \"#utility.yul\":4942:4995   */\n      tag_144\n        /* \"#utility.yul\":4987:4994   */\n      dup7\n        /* \"#utility.yul\":4978:4984   */\n      dup3\n        /* \"#utility.yul\":4967:4976   */\n      dup8\n        /* \"#utility.yul\":4963:4985   */\n      add\n        /* \"#utility.yul\":4942:4995   */\n      tag_54\n      jump\t// in\n    tag_144:\n        /* \"#utility.yul\":4932:4995   */\n      swap4\n      pop\n        /* \"#utility.yul\":4888:5005   */\n      pop\n        /* \"#utility.yul\":5072:5074   */\n      0x20\n        /* \"#utility.yul\":5061:5070   */\n      dup5\n        /* \"#utility.yul\":5057:5075   */\n      add\n        /* \"#utility.yul\":5044:5076   */\n      calldataload\n        /* \"#utility.yul\":5103:5121   */\n      0xffffffffffffffff\n        /* \"#utility.yul\":5095:5101   */\n      dup2\n        /* \"#utility.yul\":5092:5122   */\n      gt\n        /* \"#utility.yul\":5089:5206   */\n      iszero\n      tag_145\n      jumpi\n        /* \"#utility.yul\":5125:5204   */\n      tag_146\n      tag_50\n      jump\t// in\n    tag_146:\n        /* \"#utility.yul\":5089:5206   */\n    tag_145:\n        /* \"#utility.yul\":5230:5293   */\n      tag_147\n        /* \"#utility.yul\":5285:5292   */\n      dup7\n        /* \"#utility.yul\":5276:5282   */\n      dup3\n        /* \"#utility.yul\":5265:5274   */\n      dup8\n        /* \"#utility.yul\":5261:5283   */\n      add\n        /* \"#utility.yul\":5230:5293   */\n      tag_68\n      jump\t// in\n    tag_147:\n        /* \"#utility.yul\":5220:5293   */\n      swap3\n      pop\n        /* \"#utility.yul\":5015:5303   */\n      pop\n        /* \"#utility.yul\":5370:5372   */\n      0x40\n        /* \"#utility.yul\":5359:5368   */\n      dup5\n        /* \"#utility.yul\":5355:5373   */\n      add\n        /* \"#utility.yul\":5342:5374   */\n      calldataload\n        /* \"#utility.yul\":5401:5419   */\n      0xffffffffffffffff\n        /* \"#utility.yul\":5393:5399   */\n      dup2\n        /* \"#utility.yul\":5390:5420   */\n      gt\n        /* \"#utility.yul\":5387:5504   */\n      iszero\n      tag_148\n      jumpi\n        /* \"#utility.yul\":5423:5502   */\n      tag_149\n      tag_50\n      jump\t// in\n    tag_149:\n        /* \"#utility.yul\":5387:5504   */\n    tag_148:\n        /* \"#utility.yul\":5528:5591   */\n      tag_150\n        /* \"#utility.yul\":5583:5590   */\n      dup7\n        /* \"#utility.yul\":5574:5580   */\n      dup3\n        /* \"#utility.yul\":5563:5572   */\n      dup8\n        /* \"#utility.yul\":5559:5581   */\n      add\n        /* \"#utility.yul\":5528:5591   */\n      tag_68\n      jump\t// in\n    tag_150:\n        /* \"#utility.yul\":5518:5591   */\n      swap2\n      pop\n        /* \"#utility.yul\":5313:5601   */\n      pop\n        /* \"#utility.yul\":4629:5608   */\n      swap3\n      pop\n      swap3\n      pop\n      swap3\n      jump\t// out\n        /* \"#utility.yul\":5614:5794   */\n    tag_69:\n        /* \"#utility.yul\":5662:5739   */\n      0x4e487b7100000000000000000000000000000000000000000000000000000000\n        /* \"#utility.yul\":5659:5660   */\n      0x00\n        /* \"#utility.yul\":5652:5740   */\n      mstore\n        /* \"#utility.yul\":5759:5763   */\n      0x22\n        /* \"#utility.yul\":5756:5757   */\n      0x04\n        /* \"#utility.yul\":5749:5764   */\n      mstore\n        /* \"#utility.yul\":5783:5787   */\n      0x24\n        /* \"#utility.yul\":5780:5781   */\n      0x00\n        /* \"#utility.yul\":5773:5788   */\n      revert\n        /* \"#utility.yul\":5800:6120   */\n    tag_27:\n        /* \"#utility.yul\":5844:5850   */\n      0x00\n        /* \"#utility.yul\":5881:5882   */\n      0x02\n        /* \"#utility.yul\":5875:5879   */\n      dup3\n        /* \"#utility.yul\":5871:5883   */\n      div\n        /* \"#utility.yul\":5861:5883   */\n      swap1\n      pop\n        /* \"#utility.yul\":5928:5929   */\n      0x01\n        /* \"#utility.yul\":5922:5926   */\n      dup3\n        /* \"#utility.yul\":5918:5930   */\n      and\n        /* \"#utility.yul\":5949:5967   */\n      dup1\n        /* \"#utility.yul\":5939:6020   */\n      tag_153\n      jumpi\n        /* \"#utility.yul\":6005:6009   */\n      0x7f\n        /* \"#utility.yul\":5997:6003   */\n      dup3\n        /* \"#utility.yul\":5993:6010   */\n      and\n        /* \"#utility.yul\":5983:6010   */\n      swap2\n      pop\n        /* \"#utility.yul\":5939:6020   */\n    tag_153:\n        /* \"#utility.yul\":6067:6069   */\n      0x20\n        /* \"#utility.yul\":6059:6065   */\n      dup3\n        /* \"#utility.yul\":6056:6070   */\n      lt\n        /* \"#utility.yul\":6036:6054   */\n      dup2\n        /* \"#utility.yul\":6033:6071   */\n      sub\n        /* \"#utility.yul\":6030:6114   */\n      tag_154\n      jumpi\n        /* \"#utility.yul\":6086:6104   */\n      tag_155\n      tag_69\n      jump\t// in\n    tag_155:\n        /* \"#utility.yul\":6030:6114   */\n    tag_154:\n        /* \"#utility.yul\":5851:6120   */\n      pop\n        /* \"#utility.yul\":5800:6120   */\n      swap2\n      swap1\n      pop\n      jump\t// out\n        /* \"#utility.yul\":6126:6267   */\n    tag_70:\n        /* \"#utility.yul\":6175:6179   */\n      0x00\n        /* \"#utility.yul\":6198:6201   */\n      dup2\n        /* \"#utility.yul\":6190:6201   */\n      swap1\n      pop\n        /* \"#utility.yul\":6221:6224   */\n      dup2\n        /* \"#utility.yul\":6218:6219   */\n      0x00\n        /* \"#utility.yul\":6211:6225   */\n      mstore\n        /* \"#utility.yul\":6255:6259   */\n      0x20\n        /* \"#utility.yul\":6252:6253   */\n      0x00\n        /* \"#utility.yul\":6242:6260   */\n      keccak256\n        /* \"#utility.yul\":6234:6260   */\n      swap1\n      pop\n        /* \"#utility.yul\":6126:6267   */\n      swap2\n      swap1\n      pop\n      jump\t// out\n        /* \"#utility.yul\":6273:6366   */\n    tag_71:\n        /* \"#utility.yul\":6310:6316   */\n      0x00\n        /* \"#utility.yul\":6357:6359   */\n      0x20\n        /* \"#utility.yul\":6352:6354   */\n      0x1f\n        /* \"#utility.yul\":6345:6350   */\n      dup4\n        /* \"#utility.yul\":6341:6355   */\n      add\n        /* \"#utility.yul\":6337:6360   */\n      div\n        /* \"#utility.yul\":6327:6360   */\n      swap1\n      pop\n        /* \"#utility.yul\":6273:6366   */\n      swap2\n      swap1\n      pop\n      jump\t// out\n        /* \"#utility.yul\":6372:6479   */\n    tag_72:\n        /* \"#utility.yul\":6416:6424   */\n      0x00\n        /* \"#utility.yul\":6466:6471   */\n      dup3\n        /* \"#utility.yul\":6460:6464   */\n      dup3\n        /* \"#utility.yul\":6456:6472   */\n      shl\n        /* \"#utility.yul\":6435:6472   */\n      swap1\n      pop\n        /* \"#utility.yul\":6372:6479   */\n      swap3\n      swap2\n      pop\n      pop\n      jump\t// out\n        /* \"#utility.yul\":6485:6878   */\n    tag_73:\n        /* \"#utility.yul\":6554:6560   */\n      0x00\n        /* \"#utility.yul\":6604:6605   */\n      0x08\n        /* \"#utility.yul\":6592:6602   */\n      dup4\n        /* \"#utility.yul\":6588:6606   */\n      mul\n        /* \"#utility.yul\":6627:6724   */\n      tag_160\n        /* \"#utility.yul\":6657:6723   */\n      0xffffffffffffffffffffffffffffffffffffffffffffffffffffffffffffffff\n        /* \"#utility.yul\":6646:6655   */\n      dup3\n        /* \"#utility.yul\":6627:6724   */\n      tag_72\n      jump\t// in\n    tag_160:\n        /* \"#utility.yul\":6745:6784   */\n      tag_161\n        /* \"#utility.yul\":6775:6783   */\n      dup7\n        /* \"#utility.yul\":6764:6773   */\n      dup4\n        /* \"#utility.yul\":6745:6784   */\n      tag_72\n      jump\t// in\n    tag_161:\n        /* \"#utility.yul\":6733:6784   */\n      swap6\n      pop\n        /* \"#utility.yul\":6817:6821   */\n      dup1\n        /* \"#utility.yul\":6813:6822   */\n      not\n        /* \"#utility.yul\":6806:6811   */\n      dup5\n        /* \"#utility.yul\":6802:6823   */\n      and\n        /* \"#utility.yul\":6793:6823   */\n      swap4\n      pop\n        /* \"#utility.yul\":6866:6870   */\n      dup1\n        /* \"#utility.yul\":6856:6864   */\n      dup7\n        /* \"#utility.yul\":6852:6871   */\n      and\n        /* \"#utility.yul\":6845:6850   */\n      dup5\n        /* \"#utility.yul\":6842:6872   */\n      or\n        /* \"#utility.yul\":6832:6872   */\n      swap3\n      pop\n        /* \"#utility.yul\":6561:6878   */\n      pop\n      pop\n        /* \"#utility.yul\":6485:6878   */\n      swap4\n      swap3\n      pop\n      pop\n      pop\n      jump\t// out\n        /* \"#utility.yul\":6884:6961   */\n    tag_74:\n        /* \"#utility.yul\":6921:6928   */\n      0x00\n        /* \"#utility.yul\":6950:6955   */\n      dup2\n        /* \"#utility.yul\":6939:6955   */\n      swap1\n      pop\n        /* \"#utility.yul\":6884:6961   */\n      swap2\n      swap1\n      pop\n      jump\t// out\n        /* \"#utility.yul\":6967:7027   */\n    tag_75:\n        /* \"#utility.yul\":6995:6998   */\n      0x00\n        /* \"#utility.yul\":7016:7021   */\n      dup2\n        /* \"#utility.yul\":7009:7021   */\n      swap1\n      pop\n        /* \"#utility.yul\":6967:7027   */\n      swap2\n      swap1\n      pop\n      jump\t// out\n        /* \"#utility.yul\":7033:7175   */\n    tag_76:\n        /* \"#utility.yul\":7083:7092   */\n      0x00\n        /* \"#utility.yul\":7116:7169   */\n      tag_165\n        /* \"#utility.yul\":7134:7168   */\n      tag_166\n        /* \"#utility.yul\":7143:7167   */\n      tag_167\n        /* \"#utility.yul\":7161:7166   */\n      dup5\n        /* \"#utility.yul\":7143:7167   */\n      tag_74\n      jump\t// in\n    tag_167:\n        /* \"#utility.yul\":7134:7168   */\n      tag_75\n      jump\t// in\n    tag_166:\n        /* \"#utility.yul\":7116:7169   */\n      tag_74\n      jump\t// in\n    tag_165:\n        /* \"#utility.yul\":7103:7169   */\n      swap1\n      pop\n        /* \"#utility.yul\":7033:7175   */\n      swap2\n      swap1\n      pop\n      jump\t// out\n        /* \"#utility.yul\":7181:7256   */\n    tag_77:\n        /* \"#utility.yul\":7224:7227   */\n      0x00\n        /* \"#utility.yul\":7245:7250   */\n      dup2\n        /* \"#utility.yul\":7238:7250   */\n      swap1\n      pop\n        /* \"#utility.yul\":7181:7256   */\n      swap2\n      swap1\n      pop\n      jump\t// out\n        /* \"#utility.yul\":7262:7531   */\n    tag_78:\n        /* \"#utility.yul\":7372:7411   */\n      tag_170\n        /* \"#utility.yul\":7403:7410   */\n      dup4\n        /* \"#utility.yul\":7372:7411   */\n      tag_76\n      jump\t// in\n    tag_170:\n        /* \"#utility.yul\":7433:7524   */\n      tag_171\n        /* \"#utility.yul\":7482:7523   */\n      tag_172\n        /* \"#utility.yul\":7506:7522   */\n      dup3\n        /* \"#utility.yul\":7482:7523   */\n      tag_77\n      jump\t// in\n    tag_172:\n        /* \"#utility.yul\":7474:7480   */\n      dup5\n        /* \"#utility.yul\":7467:7471   */\n      dup5\n        /* \"#utility.yul\":7461:7472   */\n      sload\n        /* \"#utility.yul\":7433:7524   */\n      tag_73\n      jump\t// in\n    tag_171:\n        /* \"#utility.yul\":7427:7431   */\n      dup3\n        /* \"#utility.yul\":7420:7525   */\n      sstore\n        /* \"#utility.yul\":7338:7531   */\n      pop\n        /* \"#utility.yul\":7262:7531   */\n      pop\n      pop\n      pop\n      jump\t// out\n        /* \"#utility.yul\":7537:7610   */\n    tag_79:\n        /* \"#utility.yul\":7582:7585   */\n      0x00\n        /* \"#utility.yul\":7537:7610   */\n      swap1\n      jump\t// out\n        /* \"#utility.yul\":7616:7805   */\n    tag_80:\n        /* \"#utility.yul\":7693:7725   */\n      tag_175\n      tag_79\n      jump\t// in\n    tag_175:\n        /* \"#utility.yul\":7734:7799   */\n      tag_176\n        /* \"#utility.yul\":7792:7798   */\n      dup2\n        /* \"#utility.yul\":7784:7790   */\n      dup5\n        /* \"#utility.yul\":7778:7782   */\n      dup5\n        /* \"#utility.yul\":7734:7799   */\n      tag_78\n      jump\t// in\n    tag_176:\n        /* \"#utility.yul\":7669:7805   */\n      pop\n        /* \"#utility.yul\":7616:7805   */\n      pop\n      pop\n      jump\t// out\n        /* \"#utility.yul\":7811:7997   */\n    tag_81:\n        /* \"#utility.yul\":7871:7991   */\n    tag_178:\n        /* \"#utility.yul\":7888:7891   */\n      dup2\n        /* \"#utility.yul\":7881:7886   */\n      dup2\n        /* \"#utility.yul\":7878:7892   */\n      lt\n        /* \"#utility.yul\":7871:7991   */\n      iszero\n      tag_180\n      jumpi\n        /* \"#utility.yul\":7942:7981   */\n      tag_181\n        /* \"#utility.yul\":7979:7980   */\n      0x00\n        /* \"#utility.yul\":7972:7977   */\n      dup3\n        /* \"#utility.yul\":7942:7981   */\n      tag_80\n      jump\t// in\n    tag_181:\n        /* \"#utility.yul\":7915:7916   */\n      0x01\n        /* \"#utility.yul\":7908:7913   */\n      dup2\n        /* \"#utility.yul\":7904:7917   */\n      add\n        /* \"#utility.yul\":7895:7917   */\n      swap1\n      pop\n        /* \"#utility.yul\":7871:7991   */\n      jump(tag_178)\n    tag_180:\n        /* \"#utility.yul\":7811:7997   */\n      pop\n      pop\n      jump\t// out\n        /* \"#utility.yul\":8003:8546   */\n    tag_82:\n        /* \"#utility.yul\":8104:8106   */\n      0x1f\n        /* \"#utility.yul\":8099:8102   */\n      dup3\n        /* \"#utility.yul\":8096:8107   */\n      gt\n        /* \"#utility.yul\":8093:8539   */\n      iszero\n      tag_183\n      jumpi\n        /* \"#utility.yul\":8138:8176   */\n      tag_184\n        /* \"#utility.yul\":8170:8175   */\n      dup2\n        /* \"#utility.yul\":8138:8176   */\n      tag_70\n      jump\t// in\n    tag_184:\n        /* \"#utility.yul\":8222:8251   */\n      tag_185\n        /* \"#utility.yul\":8240:8250   */\n      dup5\n        /* \"#utility.yul\":8222:8251   */\n      tag_71\n      jump\t// in\n    tag_185:\n        /* \"#utility.yul\":8212:8220   */\n      dup2\n        /* \"#utility.yul\":8208:8252   */\n      add\n        /* \"#utility.yul\":8405:8407   */\n      0x20\n        /* \"#utility.yul\":8393:8403   */\n      dup6\n        /* \"#utility.yul\":8390:8408   */\n      lt\n        /* \"#utility.yul\":8387:8436   */\n      iszero\n      tag_186\n      jumpi\n        /* \"#utility.yul\":8426:8434   */\n      dup2\n        /* \"#utility.yul\":8411:8434   */\n      swap1\n      pop\n        /* \"#utility.yul\":8387:8436   */\n    tag_186:\n        /* \"#utility.yul\":8449:8529   */\n      tag_187\n        /* \"#utility.yul\":8505:8527   */\n      tag_188\n        /* \"#utility.yul\":8523:8526   */\n      dup6\n        /* \"#utility.yul\":8505:8527   */\n      tag_71\n      jump\t// in\n    tag_188:\n        /* \"#utility.yul\":8495:8503   */\n      dup4\n        /* \"#utility.yul\":8491:8528   */\n      add\n        /* \"#utility.yul\":8478:8489   */\n      dup3\n        /* \"#utility.yul\":8449:8529   */\n      tag_81\n      jump\t// in\n    tag_187:\n        /* \"#utility.yul\":8108:8539   */\n      pop\n      pop\n        /* \"#utility.yul\":8093:8539   */\n    tag_183:\n        /* \"#utility.yul\":8003:8546   */\n      pop\n      pop\n      pop\n      jump\t// out\n        /* \"#utility.yul\":8552:8669   */\n    tag_83:\n        /* \"#utility.yul\":8606:8614   */\n      0x00\n        /* \"#utility.yul\":8656:8661   */\n      dup3\n        /* \"#utility.yul\":8650:8654   */\n      dup3\n        /* \"#utility.yul\":8646:8662   */\n      shr\n        /* \"#utility.yul\":8625:8662   */\n      swap1\n      pop\n        /* \"#utility.yul\":8552:8669   */\n      swap3\n      swap2\n      pop\n      pop\n      jump\t// out\n        /* \"#utility.yul\":8675:8844   */\n    tag_84:\n        /* \"#utility.yul\":8719:8725   */\n      0x00\n        /* \"#utility.yul\":8752:8803   */\n      tag_191\n        /* \"#utility.yul\":8800:8801   */\n      0x00\n        /* \"#utility.yul\":8796:8802   */\n      not\n        /* \"#utility.yul\":8788:8793   */\n      dup5\n        /* \"#utility.yul\":8785:8786   */\n      0x08\n        /* \"#utility.yul\":8781:8794   */\n      mul\n        /* \"#utility.yul\":8752:8803   */\n      tag_83\n      jump\t// in\n    tag_191:\n        /* \"#utility.yul\":8748:8804   */\n      not\n        /* \"#utility.yul\":8833:8837   */\n      dup1\n        /* \"#utility.yul\":8827:8831   */\n      dup4\n        /* \"#utility.yul\":8823:8838   */\n      and\n        /* \"#utility.yul\":8813:8838   */\n      swap2\n      pop\n        /* \"#utility.yul\":8726:8844   */\n      pop\n        /* \"#utility.yul\":8675:8844   */\n      swap3\n      swap2\n      pop\n      pop\n      jump\t// out\n        /* \"#utility.yul\":8849:9144   */\n    tag_85:\n        /* \"#utility.yul\":8925:8929   */\n      0x00\n        /* \"#utility.yul\":9071:9100   */\n      tag_193\n        /* \"#utility.yul\":9096:9099   */\n      dup4\n        /* \"#utility.yul\":9090:9094   */\n      dup4\n        /* \"#utility.yul\":9071:9100   */\n      tag_84\n      jump\t// in\n    tag_193:\n        /* \"#utility.yul\":9063:9100   */\n      swap2\n      pop\n        /* \"#utility.yul\":9133:9136   */\n      dup3\n        /* \"#utility.yul\":9130:9131   */\n      0x02\n        /* \"#utility.yul\":9126:9137   */\n      mul\n        /* \"#utility.yul\":9120:9124   */\n      dup3\n        /* \"#utility.yul\":9117:9138   */\n      or\n        /* \"#utility.yul\":9109:9138   */\n      swap1\n      pop\n        /* \"#utility.yul\":8849:9144   */\n      swap3\n      swap2\n      pop\n      pop\n      jump\t// out\n        /* \"#utility.yul\":9149:10544   */\n    tag_36:\n        /* \"#utility.yul\":9266:9303   */\n      tag_195\n        /* \"#utility.yul\":9299:9302   */\n      dup3\n        /* \"#utility.yul\":9266:9303   */\n      tag_55\n      jump\t// in\n    tag_195:\n        /* \"#utility.yul\":9368:9386   */\n      0xffffffffffffffff\n        /* \"#utility.yul\":9360:9366   */\n      dup2\n        /* \"#utility.yul\":9357:9387   */\n      gt\n        /* \"#utility.yul\":9354:9410   */\n      iszero\n      tag_196\n      jumpi\n        /* \"#utility.yul\":9390:9408   */\n      tag_197\n      tag_62\n      jump\t// in\n    tag_197:\n        /* \"#utility.yul\":9354:9410   */\n    tag_196:\n        /* \"#utility.yul\":9434:9472   */\n      tag_198\n        /* \"#utility.yul\":9466:9470   */\n      dup3\n        /* \"#utility.yul\":9460:9471   */\n      sload\n        /* \"#utility.yul\":9434:9472   */\n      tag_27\n      jump\t// in\n    tag_198:\n        /* \"#utility.yul\":9519:9586   */\n      tag_199\n        /* \"#utility.yul\":9579:9585   */\n      dup3\n        /* \"#utility.yul\":9571:9577   */\n      dup3\n        /* \"#utility.yul\":9565:9569   */\n      dup6\n        /* \"#utility.yul\":9519:9586   */\n      tag_82\n      jump\t// in\n    tag_199:\n        /* \"#utility.yul\":9613:9614   */\n      0x00\n        /* \"#utility.yul\":9637:9641   */\n      0x20\n        /* \"#utility.yul\":9624:9641   */\n      swap1\n      pop\n        /* \"#utility.yul\":9669:9671   */\n      0x1f\n        /* \"#utility.yul\":9661:9667   */\n      dup4\n        /* \"#utility.yul\":9658:9672   */\n      gt\n        /* \"#utility.yul\":9686:9687   */\n      0x01\n        /* \"#utility.yul\":9681:10299   */\n      dup2\n      eq\n      tag_201\n      jumpi\n        /* \"#utility.yul\":10343:10344   */\n      0x00\n        /* \"#utility.yul\":10360:10366   */\n      dup5\n        /* \"#utility.yul\":10357:10434   */\n      iszero\n      tag_202\n      jumpi\n        /* \"#utility.yul\":10409:10418   */\n      dup3\n        /* \"#utility.yul\":10404:10407   */\n      dup8\n        /* \"#utility.yul\":10400:10419   */\n      add\n        /* \"#utility.yul\":10394:10420   */\n      mload\n        /* \"#utility.yul\":10385:10420   */\n      swap1\n      pop\n        /* \"#utility.yul\":10357:10434   */\n    tag_202:\n        /* \"#utility.yul\":10460:10527   */\n      tag_203\n        /* \"#utility.yul\":10520:10526   */\n      dup6\n        /* \"#utility.yul\":10513:10518   */\n      dup3\n        /* \"#utility.yul\":10460:10527   */\n      tag_85\n      jump\t// in\n    tag_203:\n        /* \"#utility.yul\":10454:10458   */\n      dup7\n        /* \"#utility.yul\":10447:10528   */\n      sstore\n        /* \"#utility.yul\":10316:10538   */\n      pop\n        /* \"#utility.yul\":9651:10538   */\n      jump(tag_200)\n        /* \"#utility.yul\":9681:10299   */\n    tag_201:\n        /* \"#utility.yul\":9733:9737   */\n      0x1f\n        /* \"#utility.yul\":9729:9738   */\n      not\n        /* \"#utility.yul\":9721:9727   */\n      dup5\n        /* \"#utility.yul\":9717:9739   */\n      and\n        /* \"#utility.yul\":9767:9804   */\n      tag_204\n        /* \"#utility.yul\":9799:9803   */\n      dup7\n        /* \"#utility.yul\":9767:9804   */\n      tag_70\n      jump\t// in\n    tag_204:\n        /* \"#utility.yul\":9826:9827   */\n      0x00\n        /* \"#utility.yul\":9840:10048   */\n    tag_205:\n        /* \"#utility.yul\":9854:9861   */\n      dup3\n        /* \"#utility.yul\":9851:9852   */\n      dup2\n        /* \"#utility.yul\":9848:9862   */\n      lt\n        /* \"#utility.yul\":9840:10048   */\n      iszero\n      tag_207\n      jumpi\n        /* \"#utility.yul\":9933:9942   */\n      dup5\n        /* \"#utility.yul\":9928:9931   */\n      dup10\n        /* \"#utility.yul\":9924:9943   */\n      add\n        /* \"#utility.yul\":9918:9944   */\n      mload\n        /* \"#utility.yul\":9910:9916   */\n      dup3\n        /* \"#utility.yul\":9903:9945   */\n      sstore\n        /* \"#utility.yul\":9984:9985   */\n      0x01\n        /* \"#utility.yul\":9976:9982   */\n      dup3\n        /* \"#utility.yul\":9972:9986   */\n      add\n        /* \"#utility.yul\":9962:9986   */\n      swap2\n      pop\n        /* \"#utility.yul\":10031:10033   */\n      0x20\n        /* \"#utility.yul\":10020:10029   */\n      dup6\n        /* \"#utility.yul\":10016:10034   */\n      add\n        /* \"#utility.yul\":10003:10034   */\n      swap5\n      pop\n        /* \"#utility.yul\":9877:9881   */\n      0x20\n        /* \"#utility.yul\":9874:9875   */\n      dup2\n        /* \"#utility.yul\":9870:9882   */\n      add\n        /* \"#utility.yul\":9865:9882   */\n      swap1\n      pop\n        /* \"#utility.yul\":9840:10048   */\n      jump(tag_205)\n    tag_207:\n        /* \"#utility.yul\":10076:10082   */\n      dup7\n        /* \"#utility.yul\":10067:10074   */\n      dup4\n        /* \"#utility.yul\":10064:10083   */\n      lt\n        /* \"#utility.yul\":10061:10240   */\n      iszero\n      tag_208\n      jumpi\n        /* \"#utility.yul\":10134:10143   */\n      dup5\n        /* \"#utility.yul\":10129:10132   */\n      dup10\n        /* \"#utility.yul\":10125:10144   */\n      add\n        /* \"#utility.yul\":10119:10145   */\n      mload\n        /* \"#utility.yul\":10177:10225   */\n      tag_209\n        /* \"#utility.yul\":10219:10223   */\n      0x1f\n        /* \"#utility.yul\":10211:10217   */\n      dup10\n        /* \"#utility.yul\":10207:10224   */\n      and\n        /* \"#utility.yul\":10196:10205   */\n      dup3\n        /* \"#utility.yul\":10177:10225   */\n      tag_84\n      jump\t// in\n    tag_209:\n        /* \"#utility.yul\":10169:10175   */\n      dup4\n        /* \"#utility.yul\":10162:10226   */\n      sstore\n        /* \"#utility.yul\":10084:10240   */\n      pop\n        /* \"#utility.yul\":10061:10240   */\n    tag_208:\n        /* \"#utility.yul\":10286:10287   */\n      0x01\n        /* \"#utility.yul\":10282:10283   */\n      0x02\n        /* \"#utility.yul\":10274:10280   */\n      dup9\n        /* \"#utility.yul\":10270:10284   */\n      mul\n        /* \"#utility.yul\":10266:10288   */\n      add\n        /* \"#utility.yul\":10260:10264   */\n      dup9\n        /* \"#utility.yul\":10253:10289   */\n      sstore\n        /* \"#utility.yul\":9688:10299   */\n      pop\n      pop\n      pop\n        /* \"#utility.yul\":9651:10538   */\n    tag_200:\n      pop\n        /* \"#utility.yul\":9241:10544   */\n      pop\n      pop\n      pop\n        /* \"#utility.yul\":9149:10544   */\n      pop\n      pop\n      jump\t// out\n\n    auxdata: 0xa26469706673582212202f3fd57a9b3758707e655f11ee143b2eb10492ed538e018b8ec56657e059f60f64736f6c63430008110033\n}\n",
				"bytecode": {
					"linkReferences": {},
					"object": "608060405234801561001057600080fd5b506109e8806100206000396000f3fe60806040526004361061003f5760003560e01c8063014ec76e146100445780631907590614610081578063267ce9211461009d57806373e3f030146100c8575b600080fd5b34801561005057600080fd5b5061006b6004803603810190610066919061042b565b610105565b60405161007891906104e8565b60405180910390f35b61009b6004803603810190610096919061063f565b6101a5565b005b3480156100a957600080fd5b506100b261028b565b6040516100bf91906104e8565b60405180910390f35b3480156100d457600080fd5b506100ef60048036038101906100ea919061042b565b610319565b6040516100fc91906104e8565b60405180910390f35b60026020528060005260406000206000915090508054610124906106f9565b80601f0160208091040260200160405190810160405280929190818152602001828054610150906106f9565b801561019d5780601f106101725761010080835404028352916020019161019d565b820191906000526020600020905b81548152906001019060200180831161018057829003601f168201915b505050505081565b8273ffffffffffffffffffffffffffffffffffffffff166108fc349081150290604051600060405180830381858888f193505050501580156101eb573d6000803e3d6000fd5b5081600160003373ffffffffffffffffffffffffffffffffffffffff1673ffffffffffffffffffffffffffffffffffffffff168152602001908152602001600020908161023891906108e0565b5080600260003373ffffffffffffffffffffffffffffffffffffffff1673ffffffffffffffffffffffffffffffffffffffff168152602001908152602001600020908161028591906108e0565b50505050565b60008054610298906106f9565b80601f01602080910402602001604051908101604052809291908181526020018280546102c4906106f9565b80156103115780601f106102e657610100808354040283529160200191610311565b820191906000526020600020905b8154815290600101906020018083116102f457829003601f168201915b505050505081565b60016020528060005260406000206000915090508054610338906106f9565b80601f0160208091040260200160405190810160405280929190818152602001828054610364906106f9565b80156103b15780601f10610386576101008083540402835291602001916103b1565b820191906000526020600020905b81548152906001019060200180831161039457829003601f168201915b505050505081565b6000604051905090565b600080fd5b600080fd5b600073ffffffffffffffffffffffffffffffffffffffff82169050919050565b60006103f8826103cd565b9050919050565b610408816103ed565b811461041357600080fd5b50565b600081359050610425816103ff565b92915050565b600060208284031215610441576104406103c3565b5b600061044f84828501610416565b91505092915050565b600081519050919050565b600082825260208201905092915050565b60005b83811015610492578082015181840152602081019050610477565b60008484015250505050565b6000601f19601f8301169050919050565b60006104ba82610458565b6104c48185610463565b93506104d4818560208601610474565b6104dd8161049e565b840191505092915050565b6000602082019050818103600083015261050281846104af565b905092915050565b600080fd5b600080fd5b7f4e487b7100000000000000000000000000000000000000000000000000000000600052604160045260246000fd5b61054c8261049e565b810181811067ffffffffffffffff8211171561056b5761056a610514565b5b80604052505050565b600061057e6103b9565b905061058a8282610543565b919050565b600067ffffffffffffffff8211156105aa576105a9610514565b5b6105b38261049e565b9050602081019050919050565b82818337600083830152505050565b60006105e26105dd8461058f565b610574565b9050828152602081018484840111156105fe576105fd61050f565b5b6106098482856105c0565b509392505050565b600082601f8301126106265761062561050a565b5b81356106368482602086016105cf565b91505092915050565b600080600060608486031215610658576106576103c3565b5b600061066686828701610416565b935050602084013567ffffffffffffffff811115610687576106866103c8565b5b61069386828701610611565b925050604084013567ffffffffffffffff8111156106b4576106b36103c8565b5b6106c086828701610611565b9150509250925092565b7f4e487b7100000000000000000000000000000000000000000000000000000000600052602260045260246000fd5b6000600282049050600182168061071157607f821691505b602082108103610724576107236106ca565b5b50919050565b60008190508160005260206000209050919050565b60006020601f8301049050919050565b600082821b905092915050565b60006008830261078c7fffffffffffffffffffffffffffffffffffffffffffffffffffffffffffffffff8261074f565b610796868361074f565b95508019841693508086168417925050509392505050565b6000819050919050565b6000819050919050565b60006107dd6107d86107d3846107ae565b6107b8565b6107ae565b9050919050565b6000819050919050565b6107f7836107c2565b61080b610803826107e4565b84845461075c565b825550505050565b600090565b610820610813565b61082b8184846107ee565b505050565b5b8181101561084f57610844600082610818565b600181019050610831565b5050565b601f821115610894576108658161072a565b61086e8461073f565b8101602085101561087d578190505b6108916108898561073f565b830182610830565b50505b505050565b600082821c905092915050565b60006108b760001984600802610899565b1980831691505092915050565b60006108d083836108a6565b9150826002028217905092915050565b6108e982610458565b67ffffffffffffffff81111561090257610901610514565b5b61090c82546106f9565b610917828285610853565b600060209050601f83116001811461094a5760008415610938578287015190505b61094285826108c4565b8655506109aa565b601f1984166109588661072a565b60005b828110156109805784890151825560018201915060208501945060208101905061095b565b8683101561099d5784890151610999601f8916826108a6565b8355505b6001600288020188555050505b50505050505056fea26469706673582212202f3fd57a9b3758707e655f11ee143b2eb10492ed538e018b8ec56657e059f60f64736f6c63430008110033",
					"opcodes": "PUSH1 0x80 PUSH1 0x40 MSTORE CALLVALUE DUP1 ISZERO PUSH2 0x10 JUMPI PUSH1 0x0 DUP1 REVERT JUMPDEST POP PUSH2 0x9E8 DUP1 PUSH2 0x20 PUSH1 0x0 CODECOPY PUSH1 0x0 RETURN INVALID PUSH1 0x80 PUSH1 0x40 MSTORE PUSH1 0x4 CALLDATASIZE LT PUSH2 0x3F JUMPI PUSH1 0x0 CALLDATALOAD PUSH1 0xE0 SHR DUP1 PUSH4 0x14EC76E EQ PUSH2 0x44 JUMPI DUP1 PUSH4 0x19075906 EQ PUSH2 0x81 JUMPI DUP1 PUSH4 0x267CE921 EQ PUSH2 0x9D JUMPI DUP1 PUSH4 0x73E3F030 EQ PUSH2 0xC8 JUMPI JUMPDEST PUSH1 0x0 DUP1 REVERT JUMPDEST CALLVALUE DUP1 ISZERO PUSH2 0x50 JUMPI PUSH1 0x0 DUP1 REVERT JUMPDEST POP PUSH2 0x6B PUSH1 0x4 DUP1 CALLDATASIZE SUB DUP2 ADD SWAP1 PUSH2 0x66 SWAP2 SWAP1 PUSH2 0x42B JUMP JUMPDEST PUSH2 0x105 JUMP JUMPDEST PUSH1 0x40 MLOAD PUSH2 0x78 SWAP2 SWAP1 PUSH2 0x4E8 JUMP JUMPDEST PUSH1 0x40 MLOAD DUP1 SWAP2 SUB SWAP1 RETURN JUMPDEST PUSH2 0x9B PUSH1 0x4 DUP1 CALLDATASIZE SUB DUP2 ADD SWAP1 PUSH2 0x96 SWAP2 SWAP1 PUSH2 0x63F JUMP JUMPDEST PUSH2 0x1A5 JUMP JUMPDEST STOP JUMPDEST CALLVALUE DUP1 ISZERO PUSH2 0xA9 JUMPI PUSH1 0x0 DUP1 REVERT JUMPDEST POP PUSH2 0xB2 PUSH2 0x28B JUMP JUMPDEST PUSH1 0x40 MLOAD PUSH2 0xBF SWAP2 SWAP1 PUSH2 0x4E8 JUMP JUMPDEST PUSH1 0x40 MLOAD DUP1 SWAP2 SUB SWAP1 RETURN JUMPDEST CALLVALUE DUP1 ISZERO PUSH2 0xD4 JUMPI PUSH1 0x0 DUP1 REVERT JUMPDEST POP PUSH2 0xEF PUSH1 0x4 DUP1 CALLDATASIZE SUB DUP2 ADD SWAP1 PUSH2 0xEA SWAP2 SWAP1 PUSH2 0x42B JUMP JUMPDEST PUSH2 0x319 JUMP JUMPDEST PUSH1 0x40 MLOAD PUSH2 0xFC SWAP2 SWAP1 PUSH2 0x4E8 JUMP JUMPDEST PUSH1 0x40 MLOAD DUP1 SWAP2 SUB SWAP1 RETURN JUMPDEST PUSH1 0x2 PUSH1 0x20 MSTORE DUP1 PUSH1 0x0 MSTORE PUSH1 0x40 PUSH1 0x0 KECCAK256 PUSH1 0x0 SWAP2 POP SWAP1 POP DUP1 SLOAD PUSH2 0x124 SWAP1 PUSH2 0x6F9 JUMP JUMPDEST DUP1 PUSH1 0x1F ADD PUSH1 0x20 DUP1 SWAP2 DIV MUL PUSH1 0x20 ADD PUSH1 0x40 MLOAD SWAP1 DUP2 ADD PUSH1 0x40 MSTORE DUP1 SWAP3 SWAP2 SWAP1 DUP2 DUP2 MSTORE PUSH1 0x20 ADD DUP3 DUP1 SLOAD PUSH2 0x150 SWAP1 PUSH2 0x6F9 JUMP JUMPDEST DUP1 ISZERO PUSH2 0x19D JUMPI DUP1 PUSH1 0x1F LT PUSH2 0x172 JUMPI PUSH2 0x100 DUP1 DUP4 SLOAD DIV MUL DUP4 MSTORE SWAP2 PUSH1 0x20 ADD SWAP2 PUSH2 0x19D JUMP JUMPDEST DUP3 ADD SWAP2 SWAP1 PUSH1 0x0 MSTORE PUSH1 0x20 PUSH1 0x0 KECCAK256 SWAP1 JUMPDEST DUP2 SLOAD DUP2 MSTORE SWAP1 PUSH1 0x1 ADD SWAP1 PUSH1 0x20 ADD DUP1 DUP4 GT PUSH2 0x180 JUMPI DUP3 SWAP1 SUB PUSH1 0x1F AND DUP3 ADD SWAP2 JUMPDEST POP POP POP POP POP DUP2 JUMP JUMPDEST DUP3 PUSH20 0xFFFFFFFFFFFFFFFFFFFFFFFFFFFFFFFFFFFFFFFF AND PUSH2 0x8FC CALLVALUE SWAP1 DUP2 ISZERO MUL SWAP1 PUSH1 0x40 MLOAD PUSH1 0x0 PUSH1 0x40 MLOAD DUP1 DUP4 SUB DUP2 DUP6 DUP9 DUP9 CALL SWAP4 POP POP POP POP ISZERO DUP1 ISZERO PUSH2 0x1EB JUMPI RETURNDATASIZE PUSH1 0x0 DUP1 RETURNDATACOPY RETURNDATASIZE PUSH1 0x0 REVERT JUMPDEST POP DUP2 PUSH1 0x1 PUSH1 0x0 CALLER PUSH20 0xFFFFFFFFFFFFFFFFFFFFFFFFFFFFFFFFFFFFFFFF AND PUSH20 0xFFFFFFFFFFFFFFFFFFFFFFFFFFFFFFFFFFFFFFFF AND DUP2 MSTORE PUSH1 0x20 ADD SWAP1 DUP2 MSTORE PUSH1 0x20 ADD PUSH1 0x0 KECCAK256 SWAP1 DUP2 PUSH2 0x238 SWAP2 SWAP1 PUSH2 0x8E0 JUMP JUMPDEST POP DUP1 PUSH1 0x2 PUSH1 0x0 CALLER PUSH20 0xFFFFFFFFFFFFFFFFFFFFFFFFFFFFFFFFFFFFFFFF AND PUSH20 0xFFFFFFFFFFFFFFFFFFFFFFFFFFFFFFFFFFFFFFFF AND DUP2 MSTORE PUSH1 0x20 ADD SWAP1 DUP2 MSTORE PUSH1 0x20 ADD PUSH1 0x0 KECCAK256 SWAP1 DUP2 PUSH2 0x285 SWAP2 SWAP1 PUSH2 0x8E0 JUMP JUMPDEST POP POP POP POP JUMP JUMPDEST PUSH1 0x0 DUP1 SLOAD PUSH2 0x298 SWAP1 PUSH2 0x6F9 JUMP JUMPDEST DUP1 PUSH1 0x1F ADD PUSH1 0x20 DUP1 SWAP2 DIV MUL PUSH1 0x20 ADD PUSH1 0x40 MLOAD SWAP1 DUP2 ADD PUSH1 0x40 MSTORE DUP1 SWAP3 SWAP2 SWAP1 DUP2 DUP2 MSTORE PUSH1 0x20 ADD DUP3 DUP1 SLOAD PUSH2 0x2C4 SWAP1 PUSH2 0x6F9 JUMP JUMPDEST DUP1 ISZERO PUSH2 0x311 JUMPI DUP1 PUSH1 0x1F LT PUSH2 0x2E6 JUMPI PUSH2 0x100 DUP1 DUP4 SLOAD DIV MUL DUP4 MSTORE SWAP2 PUSH1 0x20 ADD SWAP2 PUSH2 0x311 JUMP JUMPDEST DUP3 ADD SWAP2 SWAP1 PUSH1 0x0 MSTORE PUSH1 0x20 PUSH1 0x0 KECCAK256 SWAP1 JUMPDEST DUP2 SLOAD DUP2 MSTORE SWAP1 PUSH1 0x1 ADD SWAP1 PUSH1 0x20 ADD DUP1 DUP4 GT PUSH2 0x2F4 JUMPI DUP3 SWAP1 SUB PUSH1 0x1F AND DUP3 ADD SWAP2 JUMPDEST POP POP POP POP POP DUP2 JUMP JUMPDEST PUSH1 0x1 PUSH1 0x20 MSTORE DUP1 PUSH1 0x0 MSTORE PUSH1 0x40 PUSH1 0x0 KECCAK256 PUSH1 0x0 SWAP2 POP SWAP1 POP DUP1 SLOAD PUSH2 0x338 SWAP1 PUSH2 0x6F9 JUMP JUMPDEST DUP1 PUSH1 0x1F ADD PUSH1 0x20 DUP1 SWAP2 DIV MUL PUSH1 0x20 ADD PUSH1 0x40 MLOAD SWAP1 DUP2 ADD PUSH1 0x40 MSTORE DUP1 SWAP3 SWAP2 SWAP1 DUP2 DUP2 MSTORE PUSH1 0x20 ADD DUP3 DUP1 SLOAD PUSH2 0x364 SWAP1 PUSH2 0x6F9 JUMP JUMPDEST DUP1 ISZERO PUSH2 0x3B1 JUMPI DUP1 PUSH1 0x1F LT PUSH2 0x386 JUMPI PUSH2 0x100 DUP1 DUP4 SLOAD DIV MUL DUP4 MSTORE SWAP2 PUSH1 0x20 ADD SWAP2 PUSH2 0x3B1 JUMP JUMPDEST DUP3 ADD SWAP2 SWAP1 PUSH1 0x0 MSTORE PUSH1 0x20 PUSH1 0x0 KECCAK256 SWAP1 JUMPDEST DUP2 SLOAD DUP2 MSTORE SWAP1 PUSH1 0x1 ADD SWAP1 PUSH1 0x20 ADD DUP1 DUP4 GT PUSH2 0x394 JUMPI DUP3 SWAP1 SUB PUSH1 0x1F AND DUP3 ADD SWAP2 JUMPDEST POP POP POP POP POP DUP2 JUMP JUMPDEST PUSH1 0x0 PUSH1 0x40 MLOAD SWAP1 POP SWAP1 JUMP JUMPDEST PUSH1 0x0 DUP1 REVERT JUMPDEST PUSH1 0x0 DUP1 REVERT JUMPDEST PUSH1 0x0 PUSH20 0xFFFFFFFFFFFFFFFFFFFFFFFFFFFFFFFFFFFFFFFF DUP3 AND SWAP1 POP SWAP2 SWAP1 POP JUMP JUMPDEST PUSH1 0x0 PUSH2 0x3F8 DUP3 PUSH2 0x3CD JUMP JUMPDEST SWAP1 POP SWAP2 SWAP1 POP JUMP JUMPDEST PUSH2 0x408 DUP2 PUSH2 0x3ED JUMP JUMPDEST DUP2 EQ PUSH2 0x413 JUMPI PUSH1 0x0 DUP1 REVERT JUMPDEST POP JUMP JUMPDEST PUSH1 0x0 DUP2 CALLDATALOAD SWAP1 POP PUSH2 0x425 DUP2 PUSH2 0x3FF JUMP JUMPDEST SWAP3 SWAP2 POP POP JUMP JUMPDEST PUSH1 0x0 PUSH1 0x20 DUP3 DUP5 SUB SLT ISZERO PUSH2 0x441 JUMPI PUSH2 0x440 PUSH2 0x3C3 JUMP JUMPDEST JUMPDEST PUSH1 0x0 PUSH2 0x44F DUP5 DUP3 DUP6 ADD PUSH2 0x416 JUMP JUMPDEST SWAP2 POP POP SWAP3 SWAP2 POP POP JUMP JUMPDEST PUSH1 0x0 DUP2 MLOAD SWAP1 POP SWAP2 SWAP1 POP JUMP JUMPDEST PUSH1 0x0 DUP3 DUP3 MSTORE PUSH1 0x20 DUP3 ADD SWAP1 POP SWAP3 SWAP2 POP POP JUMP JUMPDEST PUSH1 0x0 JUMPDEST DUP4 DUP2 LT ISZERO PUSH2 0x492 JUMPI DUP1 DUP3 ADD MLOAD DUP2 DUP5 ADD MSTORE PUSH1 0x20 DUP2 ADD SWAP1 POP PUSH2 0x477 JUMP JUMPDEST PUSH1 0x0 DUP5 DUP5 ADD MSTORE POP POP POP POP JUMP JUMPDEST PUSH1 0x0 PUSH1 0x1F NOT PUSH1 0x1F DUP4 ADD AND SWAP1 POP SWAP2 SWAP1 POP JUMP JUMPDEST PUSH1 0x0 PUSH2 0x4BA DUP3 PUSH2 0x458 JUMP JUMPDEST PUSH2 0x4C4 DUP2 DUP6 PUSH2 0x463 JUMP JUMPDEST SWAP4 POP PUSH2 0x4D4 DUP2 DUP6 PUSH1 0x20 DUP7 ADD PUSH2 0x474 JUMP JUMPDEST PUSH2 0x4DD DUP2 PUSH2 0x49E JUMP JUMPDEST DUP5 ADD SWAP2 POP POP SWAP3 SWAP2 POP POP JUMP JUMPDEST PUSH1 0x0 PUSH1 0x20 DUP3 ADD SWAP1 POP DUP2 DUP2 SUB PUSH1 0x0 DUP4 ADD MSTORE PUSH2 0x502 DUP2 DUP5 PUSH2 0x4AF JUMP JUMPDEST SWAP1 POP SWAP3 SWAP2 POP POP JUMP JUMPDEST PUSH1 0x0 DUP1 REVERT JUMPDEST PUSH1 0x0 DUP1 REVERT JUMPDEST PUSH32 0x4E487B7100000000000000000000000000000000000000000000000000000000 PUSH1 0x0 MSTORE PUSH1 0x41 PUSH1 0x4 MSTORE PUSH1 0x24 PUSH1 0x0 REVERT JUMPDEST PUSH2 0x54C DUP3 PUSH2 0x49E JUMP JUMPDEST DUP2 ADD DUP2 DUP2 LT PUSH8 0xFFFFFFFFFFFFFFFF DUP3 GT OR ISZERO PUSH2 0x56B JUMPI PUSH2 0x56A PUSH2 0x514 JUMP JUMPDEST JUMPDEST DUP1 PUSH1 0x40 MSTORE POP POP POP JUMP JUMPDEST PUSH1 0x0 PUSH2 0x57E PUSH2 0x3B9 JUMP JUMPDEST SWAP1 POP PUSH2 0x58A DUP3 DUP3 PUSH2 0x543 JUMP JUMPDEST SWAP2 SWAP1 POP JUMP JUMPDEST PUSH1 0x0 PUSH8 0xFFFFFFFFFFFFFFFF DUP3 GT ISZERO PUSH2 0x5AA JUMPI PUSH2 0x5A9 PUSH2 0x514 JUMP JUMPDEST JUMPDEST PUSH2 0x5B3 DUP3 PUSH2 0x49E JUMP JUMPDEST SWAP1 POP PUSH1 0x20 DUP2 ADD SWAP1 POP SWAP2 SWAP1 POP JUMP JUMPDEST DUP3 DUP2 DUP4 CALLDATACOPY PUSH1 0x0 DUP4 DUP4 ADD MSTORE POP POP POP JUMP JUMPDEST PUSH1 0x0 PUSH2 0x5E2 PUSH2 0x5DD DUP5 PUSH2 0x58F JUMP JUMPDEST PUSH2 0x574 JUMP JUMPDEST SWAP1 POP DUP3 DUP2 MSTORE PUSH1 0x20 DUP2 ADD DUP5 DUP5 DUP5 ADD GT ISZERO PUSH2 0x5FE JUMPI PUSH2 0x5FD PUSH2 0x50F JUMP JUMPDEST JUMPDEST PUSH2 0x609 DUP5 DUP3 DUP6 PUSH2 0x5C0 JUMP JUMPDEST POP SWAP4 SWAP3 POP POP POP JUMP JUMPDEST PUSH1 0x0 DUP3 PUSH1 0x1F DUP4 ADD SLT PUSH2 0x626 JUMPI PUSH2 0x625 PUSH2 0x50A JUMP JUMPDEST JUMPDEST DUP2 CALLDATALOAD PUSH2 0x636 DUP5 DUP3 PUSH1 0x20 DUP7 ADD PUSH2 0x5CF JUMP JUMPDEST SWAP2 POP POP SWAP3 SWAP2 POP POP JUMP JUMPDEST PUSH1 0x0 DUP1 PUSH1 0x0 PUSH1 0x60 DUP5 DUP7 SUB SLT ISZERO PUSH2 0x658 JUMPI PUSH2 0x657 PUSH2 0x3C3 JUMP JUMPDEST JUMPDEST PUSH1 0x0 PUSH2 0x666 DUP7 DUP3 DUP8 ADD PUSH2 0x416 JUMP JUMPDEST SWAP4 POP POP PUSH1 0x20 DUP5 ADD CALLDATALOAD PUSH8 0xFFFFFFFFFFFFFFFF DUP2 GT ISZERO PUSH2 0x687 JUMPI PUSH2 0x686 PUSH2 0x3C8 JUMP JUMPDEST JUMPDEST PUSH2 0x693 DUP7 DUP3 DUP8 ADD PUSH2 0x611 JUMP JUMPDEST SWAP3 POP POP PUSH1 0x40 DUP5 ADD CALLDATALOAD PUSH8 0xFFFFFFFFFFFFFFFF DUP2 GT ISZERO PUSH2 0x6B4 JUMPI PUSH2 0x6B3 PUSH2 0x3C8 JUMP JUMPDEST JUMPDEST PUSH2 0x6C0 DUP7 DUP3 DUP8 ADD PUSH2 0x611 JUMP JUMPDEST SWAP2 POP POP SWAP3 POP SWAP3 POP SWAP3 JUMP JUMPDEST PUSH32 0x4E487B7100000000000000000000000000000000000000000000000000000000 PUSH1 0x0 MSTORE PUSH1 0x22 PUSH1 0x4 MSTORE PUSH1 0x24 PUSH1 0x0 REVERT JUMPDEST PUSH1 0x0 PUSH1 0x2 DUP3 DIV SWAP1 POP PUSH1 0x1 DUP3 AND DUP1 PUSH2 0x711 JUMPI PUSH1 0x7F DUP3 AND SWAP2 POP JUMPDEST PUSH1 0x20 DUP3 LT DUP2 SUB PUSH2 0x724 JUMPI PUSH2 0x723 PUSH2 0x6CA JUMP JUMPDEST JUMPDEST POP SWAP2 SWAP1 POP JUMP JUMPDEST PUSH1 0x0 DUP2 SWAP1 POP DUP2 PUSH1 0x0 MSTORE PUSH1 0x20 PUSH1 0x0 KECCAK256 SWAP1 POP SWAP2 SWAP1 POP JUMP JUMPDEST PUSH1 0x0 PUSH1 0x20 PUSH1 0x1F DUP4 ADD DIV SWAP1 POP SWAP2 SWAP1 POP JUMP JUMPDEST PUSH1 0x0 DUP3 DUP3 SHL SWAP1 POP SWAP3 SWAP2 POP POP JUMP JUMPDEST PUSH1 0x0 PUSH1 0x8 DUP4 MUL PUSH2 0x78C PUSH32 0xFFFFFFFFFFFFFFFFFFFFFFFFFFFFFFFFFFFFFFFFFFFFFFFFFFFFFFFFFFFFFFFF DUP3 PUSH2 0x74F JUMP JUMPDEST PUSH2 0x796 DUP7 DUP4 PUSH2 0x74F JUMP JUMPDEST SWAP6 POP DUP1 NOT DUP5 AND SWAP4 POP DUP1 DUP7 AND DUP5 OR SWAP3 POP POP POP SWAP4 SWAP3 POP POP POP JUMP JUMPDEST PUSH1 0x0 DUP2 SWAP1 POP SWAP2 SWAP1 POP JUMP JUMPDEST PUSH1 0x0 DUP2 SWAP1 POP SWAP2 SWAP1 POP JUMP JUMPDEST PUSH1 0x0 PUSH2 0x7DD PUSH2 0x7D8 PUSH2 0x7D3 DUP5 PUSH2 0x7AE JUMP JUMPDEST PUSH2 0x7B8 JUMP JUMPDEST PUSH2 0x7AE JUMP JUMPDEST SWAP1 POP SWAP2 SWAP1 POP JUMP JUMPDEST PUSH1 0x0 DUP2 SWAP1 POP SWAP2 SWAP1 POP JUMP JUMPDEST PUSH2 0x7F7 DUP4 PUSH2 0x7C2 JUMP JUMPDEST PUSH2 0x80B PUSH2 0x803 DUP3 PUSH2 0x7E4 JUMP JUMPDEST DUP5 DUP5 SLOAD PUSH2 0x75C JUMP JUMPDEST DUP3 SSTORE POP POP POP POP JUMP JUMPDEST PUSH1 0x0 SWAP1 JUMP JUMPDEST PUSH2 0x820 PUSH2 0x813 JUMP JUMPDEST PUSH2 0x82B DUP2 DUP5 DUP5 PUSH2 0x7EE JUMP JUMPDEST POP POP POP JUMP JUMPDEST JUMPDEST DUP2 DUP2 LT ISZERO PUSH2 0x84F JUMPI PUSH2 0x844 PUSH1 0x0 DUP3 PUSH2 0x818 JUMP JUMPDEST PUSH1 0x1 DUP2 ADD SWAP1 POP PUSH2 0x831 JUMP JUMPDEST POP POP JUMP JUMPDEST PUSH1 0x1F DUP3 GT ISZERO PUSH2 0x894 JUMPI PUSH2 0x865 DUP2 PUSH2 0x72A JUMP JUMPDEST PUSH2 0x86E DUP5 PUSH2 0x73F JUMP JUMPDEST DUP2 ADD PUSH1 0x20 DUP6 LT ISZERO PUSH2 0x87D JUMPI DUP2 SWAP1 POP JUMPDEST PUSH2 0x891 PUSH2 0x889 DUP6 PUSH2 0x73F JUMP JUMPDEST DUP4 ADD DUP3 PUSH2 0x830 JUMP JUMPDEST POP POP JUMPDEST POP POP POP JUMP JUMPDEST PUSH1 0x0 DUP3 DUP3 SHR SWAP1 POP SWAP3 SWAP2 POP POP JUMP JUMPDEST PUSH1 0x0 PUSH2 0x8B7 PUSH1 0x0 NOT DUP5 PUSH1 0x8 MUL PUSH2 0x899 JUMP JUMPDEST NOT DUP1 DUP4 AND SWAP2 POP POP SWAP3 SWAP2 POP POP JUMP JUMPDEST PUSH1 0x0 PUSH2 0x8D0 DUP4 DUP4 PUSH2 0x8A6 JUMP JUMPDEST SWAP2 POP DUP3 PUSH1 0x2 MUL DUP3 OR SWAP1 POP SWAP3 SWAP2 POP POP JUMP JUMPDEST PUSH2 0x8E9 DUP3 PUSH2 0x458 JUMP JUMPDEST PUSH8 0xFFFFFFFFFFFFFFFF DUP2 GT ISZERO PUSH2 0x902 JUMPI PUSH2 0x901 PUSH2 0x514 JUMP JUMPDEST JUMPDEST PUSH2 0x90C DUP3 SLOAD PUSH2 0x6F9 JUMP JUMPDEST PUSH2 0x917 DUP3 DUP3 DUP6 PUSH2 0x853 JUMP JUMPDEST PUSH1 0x0 PUSH1 0x20 SWAP1 POP PUSH1 0x1F DUP4 GT PUSH1 0x1 DUP2 EQ PUSH2 0x94A JUMPI PUSH1 0x0 DUP5 ISZERO PUSH2 0x938 JUMPI DUP3 DUP8 ADD MLOAD SWAP1 POP JUMPDEST PUSH2 0x942 DUP6 DUP3 PUSH2 0x8C4 JUMP JUMPDEST DUP7 SSTORE POP PUSH2 0x9AA JUMP JUMPDEST PUSH1 0x1F NOT DUP5 AND PUSH2 0x958 DUP7 PUSH2 0x72A JUMP JUMPDEST PUSH1 0x0 JUMPDEST DUP3 DUP2 LT ISZERO PUSH2 0x980 JUMPI DUP5 DUP10 ADD MLOAD DUP3 SSTORE PUSH1 0x1 DUP3 ADD SWAP2 POP PUSH1 0x20 DUP6 ADD SWAP5 POP PUSH1 0x20 DUP2 ADD SWAP1 POP PUSH2 0x95B JUMP JUMPDEST DUP7 DUP4 LT ISZERO PUSH2 0x99D JUMPI DUP5 DUP10 ADD MLOAD PUSH2 0x999 PUSH1 0x1F DUP10 AND DUP3 PUSH2 0x8A6 JUMP JUMPDEST DUP4 SSTORE POP JUMPDEST PUSH1 0x1 PUSH1 0x2 DUP9 MUL ADD DUP9 SSTORE POP POP POP JUMPDEST POP POP POP POP POP POP JUMP INVALID LOG2 PUSH5 0x6970667358 0x22 SLT KECCAK256 0x2F EXTCODEHASH 0xD5 PUSH27 0x9B3758707E655F11EE143B2EB10492ED538E018B8EC56657E059F6 0xF PUSH5 0x736F6C6343 STOP ADDMOD GT STOP CALLER "
				},
				"gasEstimates": {
					"creation": {
						"codeDepositCost": "507200",
						"executionCost": "543",
						"totalCost": "507743"
					},
					"external": {
						"carteira(address)": "infinite",
						"dolar()": "infinite",
						"meuEmprestimo(address)": "infinite",
						"transferir(address,string,string)": "infinite"
					}
				},
				"methodIdentifiers": {
					"carteira(address)": "73e3f030",
					"dolar()": "267ce921",
					"meuEmprestimo(address)": "014ec76e",
					"transferir(address,string,string)": "19075906"
				}
			},
			"storageLayout": {
				"storage": [
					{
						"astId": 3,
						"contract": "transferirMoeda.sol:transacaoEther",
						"label": "dolar",
						"offset": 0,
						"slot": "0",
						"type": "t_string_storage"
					},
					{
						"astId": 7,
						"contract": "transferirMoeda.sol:transacaoEther",
						"label": "carteira",
						"offset": 0,
						"slot": "1",
						"type": "t_mapping(t_address,t_string_storage)"
					},
					{
						"astId": 11,
						"contract": "transferirMoeda.sol:transacaoEther",
						"label": "meuEmprestimo",
						"offset": 0,
						"slot": "2",
						"type": "t_mapping(t_address,t_string_storage)"
					}
				],
				"types": {
					"t_address": {
						"encoding": "inplace",
						"label": "address",
						"numberOfBytes": "20"
					},
					"t_mapping(t_address,t_string_storage)": {
						"encoding": "mapping",
						"key": "t_address",
						"label": "mapping(address => string)",
						"numberOfBytes": "32",
						"value": "t_string_storage"
					},
					"t_string_storage": {
						"encoding": "bytes",
						"label": "string",
						"numberOfBytes": "32"
					}
				}
			},
			"userdoc": {
				"kind": "user",
				"methods": {},
				"version": 1
			}
		}
	}
}