{
	"armazenarDados.sol": {
		"armazenarDados": {
			"abi": [
				{
					"inputs": [
						{
							"internalType": "string",
							"name": "cpf",
							"type": "string"
						},
						{
							"internalType": "string",
							"name": "nome",
							"type": "string"
						},
						{
							"internalType": "string",
							"name": "endereco",
							"type": "string"
						},
						{
							"internalType": "int256",
							"name": "idade",
							"type": "int256"
						}
					],
					"name": "adicionarNovoCadastro",
					"outputs": [],
					"stateMutability": "nonpayable",
					"type": "function"
				},
				{
					"inputs": [
						{
							"internalType": "string",
							"name": "cpf",
							"type": "string"
						}
					],
					"name": "mostrarDados",
					"outputs": [
						{
							"components": [
								{
									"internalType": "string",
									"name": "nome",
									"type": "string"
								},
								{
									"internalType": "string",
									"name": "endereco",
									"type": "string"
								},
								{
									"internalType": "int256",
									"name": "idade",
									"type": "int256"
								}
							],
							"internalType": "struct armazenarDados.tiposDados",
							"name": "",
							"type": "tuple"
						}
					],
					"stateMutability": "view",
					"type": "function"
				}
			],
			"devdoc": {
				"kind": "dev",
				"methods": {},
				"version": 1
			},
			"evm": {
				"assembly": "    /* \"armazenarDados.sol\":139:1328  contract armazenarDados{... */\n  mstore(0x40, 0x80)\n  callvalue\n  dup1\n  iszero\n  tag_1\n  jumpi\n  0x00\n  dup1\n  revert\ntag_1:\n  pop\n  dataSize(sub_0)\n  dup1\n  dataOffset(sub_0)\n  0x00\n  codecopy\n  0x00\n  return\nstop\n\nsub_0: assembly {\n        /* \"armazenarDados.sol\":139:1328  contract armazenarDados{... */\n      mstore(0x40, 0x80)\n      callvalue\n      dup1\n      iszero\n      tag_1\n      jumpi\n      0x00\n      dup1\n      revert\n    tag_1:\n      pop\n      jumpi(tag_2, lt(calldatasize, 0x04))\n      shr(0xe0, calldataload(0x00))\n      dup1\n      0x6505f8bd\n      eq\n      tag_3\n      jumpi\n      dup1\n      0x831c0eaf\n      eq\n      tag_4\n      jumpi\n    tag_2:\n      0x00\n      dup1\n      revert\n        /* \"armazenarDados.sol\":842:1191  function adicionarNovoCadastro... */\n    tag_3:\n      tag_5\n      0x04\n      dup1\n      calldatasize\n      sub\n      dup2\n      add\n      swap1\n      tag_6\n      swap2\n      swap1\n      tag_7\n      jump\t// in\n    tag_6:\n      tag_8\n      jump\t// in\n    tag_5:\n      stop\n        /* \"armazenarDados.sol\":1199:1325  function mostrarDados(string memory cpf)... */\n    tag_4:\n      tag_9\n      0x04\n      dup1\n      calldatasize\n      sub\n      dup2\n      add\n      swap1\n      tag_10\n      swap2\n      swap1\n      tag_11\n      jump\t// in\n    tag_10:\n      tag_12\n      jump\t// in\n    tag_9:\n      mload(0x40)\n      tag_13\n      swap2\n      swap1\n      tag_14\n      jump\t// in\n    tag_13:\n      mload(0x40)\n      dup1\n      swap2\n      sub\n      swap1\n      return\n        /* \"armazenarDados.sol\":842:1191  function adicionarNovoCadastro... */\n    tag_8:\n        /* \"armazenarDados.sol\":987:1004  verificarCFP(cpf) */\n      tag_16\n        /* \"armazenarDados.sol\":1000:1003  cpf */\n      dup5\n        /* \"armazenarDados.sol\":987:999  verificarCFP */\n      tag_17\n        /* \"armazenarDados.sol\":987:1004  verificarCFP(cpf) */\n      jump\t// in\n    tag_16:\n        /* \"armazenarDados.sol\":977:984  novoCPF */\n      0x02\n      0x00\n        /* \"armazenarDados.sol\":977:1004  novoCPF = verificarCFP(cpf) */\n      0x0100\n      exp\n      dup2\n      sload\n      dup2\n      0xff\n      mul\n      not\n      and\n      swap1\n      dup4\n      iszero\n      iszero\n      mul\n      or\n      swap1\n      sstore\n      pop\n        /* \"armazenarDados.sol\":1023:1030  novoCPF */\n      0x02\n      0x00\n      swap1\n      sload\n      swap1\n      0x0100\n      exp\n      swap1\n      div\n      0xff\n      and\n        /* \"armazenarDados.sol\":1015:1055  require(novoCPF,\"cpf existe no sistema\") */\n      tag_18\n      jumpi\n      mload(0x40)\n      0x08c379a000000000000000000000000000000000000000000000000000000000\n      dup2\n      mstore\n      0x04\n      add\n      tag_19\n      swap1\n      tag_20\n      jump\t// in\n    tag_19:\n      mload(0x40)\n      dup1\n      swap2\n      sub\n      swap1\n      revert\n    tag_18:\n        /* \"armazenarDados.sol\":1068:1090  tiposDados memory dado */\n      0x00\n        /* \"armazenarDados.sol\":1093:1124  tiposDados(nome,endereco,idade) */\n      mload(0x40)\n      dup1\n      0x60\n      add\n      0x40\n      mstore\n      dup1\n        /* \"armazenarDados.sol\":1104:1108  nome */\n      dup6\n        /* \"armazenarDados.sol\":1093:1124  tiposDados(nome,endereco,idade) */\n      dup2\n      mstore\n      0x20\n      add\n        /* \"armazenarDados.sol\":1109:1117  endereco */\n      dup5\n        /* \"armazenarDados.sol\":1093:1124  tiposDados(nome,endereco,idade) */\n      dup2\n      mstore\n      0x20\n      add\n        /* \"armazenarDados.sol\":1118:1123  idade */\n      dup4\n        /* \"armazenarDados.sol\":1093:1124  tiposDados(nome,endereco,idade) */\n      dup2\n      mstore\n      pop\n        /* \"armazenarDados.sol\":1068:1124  tiposDados memory dado = tiposDados(nome,endereco,idade) */\n      swap1\n      pop\n        /* \"armazenarDados.sol\":1154:1158  dado */\n      dup1\n        /* \"armazenarDados.sol\":1135:1146  meuCadastro */\n      0x00\n        /* \"armazenarDados.sol\":1147:1150  cpf */\n      dup7\n        /* \"armazenarDados.sol\":1135:1151  meuCadastro[cpf] */\n      mload(0x40)\n      tag_21\n      swap2\n      swap1\n      tag_22\n      jump\t// in\n    tag_21:\n      swap1\n      dup2\n      mstore\n      0x20\n      add\n      mload(0x40)\n      dup1\n      swap2\n      sub\n      swap1\n      keccak256\n        /* \"armazenarDados.sol\":1135:1158  meuCadastro[cpf] = dado */\n      0x00\n      dup3\n      add\n      mload\n      dup2\n      0x00\n      add\n      swap1\n      dup2\n      tag_23\n      swap2\n      swap1\n      tag_24\n      jump\t// in\n    tag_23:\n      pop\n      0x20\n      dup3\n      add\n      mload\n      dup2\n      0x01\n      add\n      swap1\n      dup2\n      tag_25\n      swap2\n      swap1\n      tag_24\n      jump\t// in\n    tag_25:\n      pop\n      0x40\n      dup3\n      add\n      mload\n      dup2\n      0x02\n      add\n      sstore\n      swap1\n      pop\n      pop\n        /* \"armazenarDados.sol\":1169:1173  cpfs */\n      0x01\n        /* \"armazenarDados.sol\":1179:1182  cpf */\n      dup6\n        /* \"armazenarDados.sol\":1169:1183  cpfs.push(cpf) */\n      swap1\n      dup1\n      0x01\n      dup2\n      sload\n      add\n      dup1\n      dup3\n      sstore\n      dup1\n      swap2\n      pop\n      pop\n      0x01\n      swap1\n      sub\n      swap1\n      0x00\n      mstore\n      keccak256(0x00, 0x20)\n      add\n      0x00\n      swap1\n      swap2\n      swap1\n      swap2\n      swap1\n      swap2\n      pop\n      swap1\n      dup2\n      tag_27\n      swap2\n      swap1\n      tag_24\n      jump\t// in\n    tag_27:\n      pop\n        /* \"armazenarDados.sol\":964:1191  {... */\n      pop\n        /* \"armazenarDados.sol\":842:1191  function adicionarNovoCadastro... */\n      pop\n      pop\n      pop\n      pop\n      jump\t// out\n        /* \"armazenarDados.sol\":1199:1325  function mostrarDados(string memory cpf)... */\n    tag_12:\n        /* \"armazenarDados.sol\":1265:1282  tiposDados memory */\n      tag_28\n      tag_29\n      jump\t// in\n    tag_28:\n        /* \"armazenarDados.sol\":1301:1312  meuCadastro */\n      0x00\n        /* \"armazenarDados.sol\":1313:1316  cpf */\n      dup3\n        /* \"armazenarDados.sol\":1301:1317  meuCadastro[cpf] */\n      mload(0x40)\n      tag_31\n      swap2\n      swap1\n      tag_22\n      jump\t// in\n    tag_31:\n      swap1\n      dup2\n      mstore\n      0x20\n      add\n      mload(0x40)\n      dup1\n      swap2\n      sub\n      swap1\n      keccak256\n        /* \"armazenarDados.sol\":1294:1317  return meuCadastro[cpf] */\n      mload(0x40)\n      dup1\n      0x60\n      add\n      0x40\n      mstore\n      swap1\n      dup2\n      0x00\n      dup3\n      add\n      dup1\n      sload\n      tag_32\n      swap1\n      tag_33\n      jump\t// in\n    tag_32:\n      dup1\n      0x1f\n      add\n      0x20\n      dup1\n      swap2\n      div\n      mul\n      0x20\n      add\n      mload(0x40)\n      swap1\n      dup2\n      add\n      0x40\n      mstore\n      dup1\n      swap3\n      swap2\n      swap1\n      dup2\n      dup2\n      mstore\n      0x20\n      add\n      dup3\n      dup1\n      sload\n      tag_34\n      swap1\n      tag_33\n      jump\t// in\n    tag_34:\n      dup1\n      iszero\n      tag_35\n      jumpi\n      dup1\n      0x1f\n      lt\n      tag_36\n      jumpi\n      0x0100\n      dup1\n      dup4\n      sload\n      div\n      mul\n      dup4\n      mstore\n      swap2\n      0x20\n      add\n      swap2\n      jump(tag_35)\n    tag_36:\n      dup3\n      add\n      swap2\n      swap1\n      0x00\n      mstore\n      keccak256(0x00, 0x20)\n      swap1\n    tag_37:\n      dup2\n      sload\n      dup2\n      mstore\n      swap1\n      0x01\n      add\n      swap1\n      0x20\n      add\n      dup1\n      dup4\n      gt\n      tag_37\n      jumpi\n      dup3\n      swap1\n      sub\n      0x1f\n      and\n      dup3\n      add\n      swap2\n    tag_35:\n      pop\n      pop\n      pop\n      pop\n      pop\n      dup2\n      mstore\n      0x20\n      add\n      0x01\n      dup3\n      add\n      dup1\n      sload\n      tag_38\n      swap1\n      tag_33\n      jump\t// in\n    tag_38:\n      dup1\n      0x1f\n      add\n      0x20\n      dup1\n      swap2\n      div\n      mul\n      0x20\n      add\n      mload(0x40)\n      swap1\n      dup2\n      add\n      0x40\n      mstore\n      dup1\n      swap3\n      swap2\n      swap1\n      dup2\n      dup2\n      mstore\n      0x20\n      add\n      dup3\n      dup1\n      sload\n      tag_39\n      swap1\n      tag_33\n      jump\t// in\n    tag_39:\n      dup1\n      iszero\n      tag_40\n      jumpi\n      dup1\n      0x1f\n      lt\n      tag_41\n      jumpi\n      0x0100\n      dup1\n      dup4\n      sload\n      div\n      mul\n      dup4\n      mstore\n      swap2\n      0x20\n      add\n      swap2\n      jump(tag_40)\n    tag_41:\n      dup3\n      add\n      swap2\n      swap1\n      0x00\n      mstore\n      keccak256(0x00, 0x20)\n      swap1\n    tag_42:\n      dup2\n      sload\n      dup2\n      mstore\n      swap1\n      0x01\n      add\n      swap1\n      0x20\n      add\n      dup1\n      dup4\n      gt\n      tag_42\n      jumpi\n      dup3\n      swap1\n      sub\n      0x1f\n      and\n      dup3\n      add\n      swap2\n    tag_40:\n      pop\n      pop\n      pop\n      pop\n      pop\n      dup2\n      mstore\n      0x20\n      add\n      0x02\n      dup3\n      add\n      sload\n      dup2\n      mstore\n      pop\n      pop\n      swap1\n      pop\n        /* \"armazenarDados.sol\":1199:1325  function mostrarDados(string memory cpf)... */\n      swap2\n      swap1\n      pop\n      jump\t// out\n        /* \"armazenarDados.sol\":378:834  function verificarCFP(string memory meucpf) private view returns (bool){... */\n    tag_17:\n        /* \"armazenarDados.sol\":444:448  bool */\n      0x00\n        /* \"armazenarDados.sol\":478:479  0 */\n      dup1\n        /* \"armazenarDados.sol\":463:467  cpfs */\n      0x01\n        /* \"armazenarDados.sol\":463:474  cpfs.length */\n      dup1\n      sload\n      swap1\n      pop\n        /* \"armazenarDados.sol\":463:479  cpfs.length == 0 */\n      sub\n        /* \"armazenarDados.sol\":460:803  if(cpfs.length == 0){... */\n      tag_44\n      jumpi\n        /* \"armazenarDados.sol\":502:506  true */\n      0x01\n        /* \"armazenarDados.sol\":495:506  return true */\n      swap1\n      pop\n      jump(tag_43)\n        /* \"armazenarDados.sol\":460:803  if(cpfs.length == 0){... */\n    tag_44:\n        /* \"armazenarDados.sol\":552:558  uint i */\n      0x00\n        /* \"armazenarDados.sol\":547:792  for (uint i = 0; i < cpfs.length; i++) {... */\n    tag_46:\n        /* \"armazenarDados.sol\":568:572  cpfs */\n      0x01\n        /* \"armazenarDados.sol\":568:579  cpfs.length */\n      dup1\n      sload\n      swap1\n      pop\n        /* \"armazenarDados.sol\":564:565  i */\n      dup2\n        /* \"armazenarDados.sol\":564:579  i < cpfs.length */\n      lt\n        /* \"armazenarDados.sol\":547:792  for (uint i = 0; i < cpfs.length; i++) {... */\n      iszero\n      tag_47\n      jumpi\n        /* \"armazenarDados.sol\":693:697  cpfs */\n      0x01\n        /* \"armazenarDados.sol\":698:699  i */\n      dup2\n        /* \"armazenarDados.sol\":693:700  cpfs[i] */\n      dup2\n      sload\n      dup2\n      lt\n      tag_49\n      jumpi\n      tag_50\n      tag_51\n      jump\t// in\n    tag_50:\n    tag_49:\n      swap1\n      0x00\n      mstore\n      keccak256(0x00, 0x20)\n      add\n        /* \"armazenarDados.sol\":676:701  abi.encodePacked(cpfs[i]) */\n      add(0x20, mload(0x40))\n      tag_53\n      swap2\n      swap1\n      tag_54\n      jump\t// in\n    tag_53:\n      mload(0x40)\n      0x20\n      dup2\n      dup4\n      sub\n      sub\n      dup2\n      mstore\n      swap1\n      0x40\n      mstore\n        /* \"armazenarDados.sol\":666:702  keccak256(abi.encodePacked(cpfs[i])) */\n      dup1\n      mload\n      swap1\n      0x20\n      add\n      keccak256\n        /* \"armazenarDados.sol\":636:642  meucpf */\n      dup4\n        /* \"armazenarDados.sol\":619:643  abi.encodePacked(meucpf) */\n      add(0x20, mload(0x40))\n      tag_55\n      swap2\n      swap1\n      tag_22\n      jump\t// in\n    tag_55:\n      mload(0x40)\n      0x20\n      dup2\n      dup4\n      sub\n      sub\n      dup2\n      mstore\n      swap1\n      0x40\n      mstore\n        /* \"armazenarDados.sol\":609:644  keccak256(abi.encodePacked(meucpf)) */\n      dup1\n      mload\n      swap1\n      0x20\n      add\n      keccak256\n        /* \"armazenarDados.sol\":609:702  keccak256(abi.encodePacked(meucpf)) == ... */\n      sub\n        /* \"armazenarDados.sol\":605:777  if (keccak256(abi.encodePacked(meucpf)) == ... */\n      tag_56\n      jumpi\n        /* \"armazenarDados.sol\":750:755  false */\n      0x00\n        /* \"armazenarDados.sol\":743:755  return false */\n      swap2\n      pop\n      pop\n      jump(tag_43)\n        /* \"armazenarDados.sol\":605:777  if (keccak256(abi.encodePacked(meucpf)) == ... */\n    tag_56:\n        /* \"armazenarDados.sol\":581:584  i++ */\n      dup1\n      dup1\n      tag_57\n      swap1\n      tag_58\n      jump\t// in\n    tag_57:\n      swap2\n      pop\n      pop\n        /* \"armazenarDados.sol\":547:792  for (uint i = 0; i < cpfs.length; i++) {... */\n      jump(tag_46)\n    tag_47:\n      pop\n        /* \"armazenarDados.sol\":822:826  true */\n      0x01\n        /* \"armazenarDados.sol\":815:826  return true */\n      swap1\n      pop\n        /* \"armazenarDados.sol\":378:834  function verificarCFP(string memory meucpf) private view returns (bool){... */\n    tag_43:\n      swap2\n      swap1\n      pop\n      jump\t// out\n    tag_29:\n      mload(0x40)\n      dup1\n      0x60\n      add\n      0x40\n      mstore\n      dup1\n      0x60\n      dup2\n      mstore\n      0x20\n      add\n      0x60\n      dup2\n      mstore\n      0x20\n      add\n      0x00\n      dup2\n      mstore\n      pop\n      swap1\n      jump\t// out\n        /* \"#utility.yul\":7:82   */\n    tag_59:\n        /* \"#utility.yul\":40:46   */\n      0x00\n        /* \"#utility.yul\":73:75   */\n      0x40\n        /* \"#utility.yul\":67:76   */\n      mload\n        /* \"#utility.yul\":57:76   */\n      swap1\n      pop\n        /* \"#utility.yul\":7:82   */\n      swap1\n      jump\t// out\n        /* \"#utility.yul\":88:205   */\n    tag_60:\n        /* \"#utility.yul\":197:198   */\n      0x00\n        /* \"#utility.yul\":194:195   */\n      dup1\n        /* \"#utility.yul\":187:199   */\n      revert\n        /* \"#utility.yul\":211:328   */\n    tag_61:\n        /* \"#utility.yul\":320:321   */\n      0x00\n        /* \"#utility.yul\":317:318   */\n      dup1\n        /* \"#utility.yul\":310:322   */\n      revert\n        /* \"#utility.yul\":334:451   */\n    tag_62:\n        /* \"#utility.yul\":443:444   */\n      0x00\n        /* \"#utility.yul\":440:441   */\n      dup1\n        /* \"#utility.yul\":433:445   */\n      revert\n        /* \"#utility.yul\":457:574   */\n    tag_63:\n        /* \"#utility.yul\":566:567   */\n      0x00\n        /* \"#utility.yul\":563:564   */\n      dup1\n        /* \"#utility.yul\":556:568   */\n      revert\n        /* \"#utility.yul\":580:682   */\n    tag_64:\n        /* \"#utility.yul\":621:627   */\n      0x00\n        /* \"#utility.yul\":672:674   */\n      0x1f\n        /* \"#utility.yul\":668:675   */\n      not\n        /* \"#utility.yul\":663:665   */\n      0x1f\n        /* \"#utility.yul\":656:661   */\n      dup4\n        /* \"#utility.yul\":652:666   */\n      add\n        /* \"#utility.yul\":648:676   */\n      and\n        /* \"#utility.yul\":638:676   */\n      swap1\n      pop\n        /* \"#utility.yul\":580:682   */\n      swap2\n      swap1\n      pop\n      jump\t// out\n        /* \"#utility.yul\":688:868   */\n    tag_65:\n        /* \"#utility.yul\":736:813   */\n      0x4e487b7100000000000000000000000000000000000000000000000000000000\n        /* \"#utility.yul\":733:734   */\n      0x00\n        /* \"#utility.yul\":726:814   */\n      mstore\n        /* \"#utility.yul\":833:837   */\n      0x41\n        /* \"#utility.yul\":830:831   */\n      0x04\n        /* \"#utility.yul\":823:838   */\n      mstore\n        /* \"#utility.yul\":857:861   */\n      0x24\n        /* \"#utility.yul\":854:855   */\n      0x00\n        /* \"#utility.yul\":847:862   */\n      revert\n        /* \"#utility.yul\":874:1155   */\n    tag_66:\n        /* \"#utility.yul\":957:984   */\n      tag_114\n        /* \"#utility.yul\":979:983   */\n      dup3\n        /* \"#utility.yul\":957:984   */\n      tag_64\n      jump\t// in\n    tag_114:\n        /* \"#utility.yul\":949:955   */\n      dup2\n        /* \"#utility.yul\":945:985   */\n      add\n        /* \"#utility.yul\":1087:1093   */\n      dup2\n        /* \"#utility.yul\":1075:1085   */\n      dup2\n        /* \"#utility.yul\":1072:1094   */\n      lt\n        /* \"#utility.yul\":1051:1069   */\n      0xffffffffffffffff\n        /* \"#utility.yul\":1039:1049   */\n      dup3\n        /* \"#utility.yul\":1036:1070   */\n      gt\n        /* \"#utility.yul\":1033:1095   */\n      or\n        /* \"#utility.yul\":1030:1118   */\n      iszero\n      tag_115\n      jumpi\n        /* \"#utility.yul\":1098:1116   */\n      tag_116\n      tag_65\n      jump\t// in\n    tag_116:\n        /* \"#utility.yul\":1030:1118   */\n    tag_115:\n        /* \"#utility.yul\":1138:1148   */\n      dup1\n        /* \"#utility.yul\":1134:1136   */\n      0x40\n        /* \"#utility.yul\":1127:1149   */\n      mstore\n        /* \"#utility.yul\":917:1155   */\n      pop\n        /* \"#utility.yul\":874:1155   */\n      pop\n      pop\n      jump\t// out\n        /* \"#utility.yul\":1161:1290   */\n    tag_67:\n        /* \"#utility.yul\":1195:1201   */\n      0x00\n        /* \"#utility.yul\":1222:1242   */\n      tag_118\n      tag_59\n      jump\t// in\n    tag_118:\n        /* \"#utility.yul\":1212:1242   */\n      swap1\n      pop\n        /* \"#utility.yul\":1251:1284   */\n      tag_119\n        /* \"#utility.yul\":1279:1283   */\n      dup3\n        /* \"#utility.yul\":1271:1277   */\n      dup3\n        /* \"#utility.yul\":1251:1284   */\n      tag_66\n      jump\t// in\n    tag_119:\n        /* \"#utility.yul\":1161:1290   */\n      swap2\n      swap1\n      pop\n      jump\t// out\n        /* \"#utility.yul\":1296:1604   */\n    tag_68:\n        /* \"#utility.yul\":1358:1362   */\n      0x00\n        /* \"#utility.yul\":1448:1466   */\n      0xffffffffffffffff\n        /* \"#utility.yul\":1440:1446   */\n      dup3\n        /* \"#utility.yul\":1437:1467   */\n      gt\n        /* \"#utility.yul\":1434:1490   */\n      iszero\n      tag_121\n      jumpi\n        /* \"#utility.yul\":1470:1488   */\n      tag_122\n      tag_65\n      jump\t// in\n    tag_122:\n        /* \"#utility.yul\":1434:1490   */\n    tag_121:\n        /* \"#utility.yul\":1508:1537   */\n      tag_123\n        /* \"#utility.yul\":1530:1536   */\n      dup3\n        /* \"#utility.yul\":1508:1537   */\n      tag_64\n      jump\t// in\n    tag_123:\n        /* \"#utility.yul\":1500:1537   */\n      swap1\n      pop\n        /* \"#utility.yul\":1592:1596   */\n      0x20\n        /* \"#utility.yul\":1586:1590   */\n      dup2\n        /* \"#utility.yul\":1582:1597   */\n      add\n        /* \"#utility.yul\":1574:1597   */\n      swap1\n      pop\n        /* \"#utility.yul\":1296:1604   */\n      swap2\n      swap1\n      pop\n      jump\t// out\n        /* \"#utility.yul\":1610:1756   */\n    tag_69:\n        /* \"#utility.yul\":1707:1713   */\n      dup3\n        /* \"#utility.yul\":1702:1705   */\n      dup2\n        /* \"#utility.yul\":1697:1700   */\n      dup4\n        /* \"#utility.yul\":1684:1714   */\n      calldatacopy\n        /* \"#utility.yul\":1748:1749   */\n      0x00\n        /* \"#utility.yul\":1739:1745   */\n      dup4\n        /* \"#utility.yul\":1734:1737   */\n      dup4\n        /* \"#utility.yul\":1730:1746   */\n      add\n        /* \"#utility.yul\":1723:1750   */\n      mstore\n        /* \"#utility.yul\":1610:1756   */\n      pop\n      pop\n      pop\n      jump\t// out\n        /* \"#utility.yul\":1762:2187   */\n    tag_70:\n        /* \"#utility.yul\":1840:1845   */\n      0x00\n        /* \"#utility.yul\":1865:1931   */\n      tag_126\n        /* \"#utility.yul\":1881:1930   */\n      tag_127\n        /* \"#utility.yul\":1923:1929   */\n      dup5\n        /* \"#utility.yul\":1881:1930   */\n      tag_68\n      jump\t// in\n    tag_127:\n        /* \"#utility.yul\":1865:1931   */\n      tag_67\n      jump\t// in\n    tag_126:\n        /* \"#utility.yul\":1856:1931   */\n      swap1\n      pop\n        /* \"#utility.yul\":1954:1960   */\n      dup3\n        /* \"#utility.yul\":1947:1952   */\n      dup2\n        /* \"#utility.yul\":1940:1961   */\n      mstore\n        /* \"#utility.yul\":1992:1996   */\n      0x20\n        /* \"#utility.yul\":1985:1990   */\n      dup2\n        /* \"#utility.yul\":1981:1997   */\n      add\n        /* \"#utility.yul\":2030:2033   */\n      dup5\n        /* \"#utility.yul\":2021:2027   */\n      dup5\n        /* \"#utility.yul\":2016:2019   */\n      dup5\n        /* \"#utility.yul\":2012:2028   */\n      add\n        /* \"#utility.yul\":2009:2034   */\n      gt\n        /* \"#utility.yul\":2006:2118   */\n      iszero\n      tag_128\n      jumpi\n        /* \"#utility.yul\":2037:2116   */\n      tag_129\n      tag_63\n      jump\t// in\n    tag_129:\n        /* \"#utility.yul\":2006:2118   */\n    tag_128:\n        /* \"#utility.yul\":2127:2181   */\n      tag_130\n        /* \"#utility.yul\":2174:2180   */\n      dup5\n        /* \"#utility.yul\":2169:2172   */\n      dup3\n        /* \"#utility.yul\":2164:2167   */\n      dup6\n        /* \"#utility.yul\":2127:2181   */\n      tag_69\n      jump\t// in\n    tag_130:\n        /* \"#utility.yul\":1846:2187   */\n      pop\n        /* \"#utility.yul\":1762:2187   */\n      swap4\n      swap3\n      pop\n      pop\n      pop\n      jump\t// out\n        /* \"#utility.yul\":2207:2547   */\n    tag_71:\n        /* \"#utility.yul\":2263:2268   */\n      0x00\n        /* \"#utility.yul\":2312:2315   */\n      dup3\n        /* \"#utility.yul\":2305:2309   */\n      0x1f\n        /* \"#utility.yul\":2297:2303   */\n      dup4\n        /* \"#utility.yul\":2293:2310   */\n      add\n        /* \"#utility.yul\":2289:2316   */\n      slt\n        /* \"#utility.yul\":2279:2401   */\n      tag_132\n      jumpi\n        /* \"#utility.yul\":2320:2399   */\n      tag_133\n      tag_62\n      jump\t// in\n    tag_133:\n        /* \"#utility.yul\":2279:2401   */\n    tag_132:\n        /* \"#utility.yul\":2437:2443   */\n      dup2\n        /* \"#utility.yul\":2424:2444   */\n      calldataload\n        /* \"#utility.yul\":2462:2541   */\n      tag_134\n        /* \"#utility.yul\":2537:2540   */\n      dup5\n        /* \"#utility.yul\":2529:2535   */\n      dup3\n        /* \"#utility.yul\":2522:2526   */\n      0x20\n        /* \"#utility.yul\":2514:2520   */\n      dup7\n        /* \"#utility.yul\":2510:2527   */\n      add\n        /* \"#utility.yul\":2462:2541   */\n      tag_70\n      jump\t// in\n    tag_134:\n        /* \"#utility.yul\":2453:2541   */\n      swap2\n      pop\n        /* \"#utility.yul\":2269:2547   */\n      pop\n        /* \"#utility.yul\":2207:2547   */\n      swap3\n      swap2\n      pop\n      pop\n      jump\t// out\n        /* \"#utility.yul\":2553:2629   */\n    tag_72:\n        /* \"#utility.yul\":2589:2596   */\n      0x00\n        /* \"#utility.yul\":2618:2623   */\n      dup2\n        /* \"#utility.yul\":2607:2623   */\n      swap1\n      pop\n        /* \"#utility.yul\":2553:2629   */\n      swap2\n      swap1\n      pop\n      jump\t// out\n        /* \"#utility.yul\":2635:2755   */\n    tag_73:\n        /* \"#utility.yul\":2707:2730   */\n      tag_137\n        /* \"#utility.yul\":2724:2729   */\n      dup2\n        /* \"#utility.yul\":2707:2730   */\n      tag_72\n      jump\t// in\n    tag_137:\n        /* \"#utility.yul\":2700:2705   */\n      dup2\n        /* \"#utility.yul\":2697:2731   */\n      eq\n        /* \"#utility.yul\":2687:2749   */\n      tag_138\n      jumpi\n        /* \"#utility.yul\":2745:2746   */\n      0x00\n        /* \"#utility.yul\":2742:2743   */\n      dup1\n        /* \"#utility.yul\":2735:2747   */\n      revert\n        /* \"#utility.yul\":2687:2749   */\n    tag_138:\n        /* \"#utility.yul\":2635:2755   */\n      pop\n      jump\t// out\n        /* \"#utility.yul\":2761:2898   */\n    tag_74:\n        /* \"#utility.yul\":2806:2811   */\n      0x00\n        /* \"#utility.yul\":2844:2850   */\n      dup2\n        /* \"#utility.yul\":2831:2851   */\n      calldataload\n        /* \"#utility.yul\":2822:2851   */\n      swap1\n      pop\n        /* \"#utility.yul\":2860:2892   */\n      tag_140\n        /* \"#utility.yul\":2886:2891   */\n      dup2\n        /* \"#utility.yul\":2860:2892   */\n      tag_73\n      jump\t// in\n    tag_140:\n        /* \"#utility.yul\":2761:2898   */\n      swap3\n      swap2\n      pop\n      pop\n      jump\t// out\n        /* \"#utility.yul\":2904:4207   */\n    tag_7:\n        /* \"#utility.yul\":3019:3025   */\n      0x00\n        /* \"#utility.yul\":3027:3033   */\n      dup1\n        /* \"#utility.yul\":3035:3041   */\n      0x00\n        /* \"#utility.yul\":3043:3049   */\n      dup1\n        /* \"#utility.yul\":3092:3095   */\n      0x80\n        /* \"#utility.yul\":3080:3089   */\n      dup6\n        /* \"#utility.yul\":3071:3078   */\n      dup8\n        /* \"#utility.yul\":3067:3090   */\n      sub\n        /* \"#utility.yul\":3063:3096   */\n      slt\n        /* \"#utility.yul\":3060:3180   */\n      iszero\n      tag_142\n      jumpi\n        /* \"#utility.yul\":3099:3178   */\n      tag_143\n      tag_60\n      jump\t// in\n    tag_143:\n        /* \"#utility.yul\":3060:3180   */\n    tag_142:\n        /* \"#utility.yul\":3247:3248   */\n      0x00\n        /* \"#utility.yul\":3236:3245   */\n      dup6\n        /* \"#utility.yul\":3232:3249   */\n      add\n        /* \"#utility.yul\":3219:3250   */\n      calldataload\n        /* \"#utility.yul\":3277:3295   */\n      0xffffffffffffffff\n        /* \"#utility.yul\":3269:3275   */\n      dup2\n        /* \"#utility.yul\":3266:3296   */\n      gt\n        /* \"#utility.yul\":3263:3380   */\n      iszero\n      tag_144\n      jumpi\n        /* \"#utility.yul\":3299:3378   */\n      tag_145\n      tag_61\n      jump\t// in\n    tag_145:\n        /* \"#utility.yul\":3263:3380   */\n    tag_144:\n        /* \"#utility.yul\":3404:3467   */\n      tag_146\n        /* \"#utility.yul\":3459:3466   */\n      dup8\n        /* \"#utility.yul\":3450:3456   */\n      dup3\n        /* \"#utility.yul\":3439:3448   */\n      dup9\n        /* \"#utility.yul\":3435:3457   */\n      add\n        /* \"#utility.yul\":3404:3467   */\n      tag_71\n      jump\t// in\n    tag_146:\n        /* \"#utility.yul\":3394:3467   */\n      swap5\n      pop\n        /* \"#utility.yul\":3190:3477   */\n      pop\n        /* \"#utility.yul\":3544:3546   */\n      0x20\n        /* \"#utility.yul\":3533:3542   */\n      dup6\n        /* \"#utility.yul\":3529:3547   */\n      add\n        /* \"#utility.yul\":3516:3548   */\n      calldataload\n        /* \"#utility.yul\":3575:3593   */\n      0xffffffffffffffff\n        /* \"#utility.yul\":3567:3573   */\n      dup2\n        /* \"#utility.yul\":3564:3594   */\n      gt\n        /* \"#utility.yul\":3561:3678   */\n      iszero\n      tag_147\n      jumpi\n        /* \"#utility.yul\":3597:3676   */\n      tag_148\n      tag_61\n      jump\t// in\n    tag_148:\n        /* \"#utility.yul\":3561:3678   */\n    tag_147:\n        /* \"#utility.yul\":3702:3765   */\n      tag_149\n        /* \"#utility.yul\":3757:3764   */\n      dup8\n        /* \"#utility.yul\":3748:3754   */\n      dup3\n        /* \"#utility.yul\":3737:3746   */\n      dup9\n        /* \"#utility.yul\":3733:3755   */\n      add\n        /* \"#utility.yul\":3702:3765   */\n      tag_71\n      jump\t// in\n    tag_149:\n        /* \"#utility.yul\":3692:3765   */\n      swap4\n      pop\n        /* \"#utility.yul\":3487:3775   */\n      pop\n        /* \"#utility.yul\":3842:3844   */\n      0x40\n        /* \"#utility.yul\":3831:3840   */\n      dup6\n        /* \"#utility.yul\":3827:3845   */\n      add\n        /* \"#utility.yul\":3814:3846   */\n      calldataload\n        /* \"#utility.yul\":3873:3891   */\n      0xffffffffffffffff\n        /* \"#utility.yul\":3865:3871   */\n      dup2\n        /* \"#utility.yul\":3862:3892   */\n      gt\n        /* \"#utility.yul\":3859:3976   */\n      iszero\n      tag_150\n      jumpi\n        /* \"#utility.yul\":3895:3974   */\n      tag_151\n      tag_61\n      jump\t// in\n    tag_151:\n        /* \"#utility.yul\":3859:3976   */\n    tag_150:\n        /* \"#utility.yul\":4000:4063   */\n      tag_152\n        /* \"#utility.yul\":4055:4062   */\n      dup8\n        /* \"#utility.yul\":4046:4052   */\n      dup3\n        /* \"#utility.yul\":4035:4044   */\n      dup9\n        /* \"#utility.yul\":4031:4053   */\n      add\n        /* \"#utility.yul\":4000:4063   */\n      tag_71\n      jump\t// in\n    tag_152:\n        /* \"#utility.yul\":3990:4063   */\n      swap3\n      pop\n        /* \"#utility.yul\":3785:4073   */\n      pop\n        /* \"#utility.yul\":4112:4114   */\n      0x60\n        /* \"#utility.yul\":4138:4190   */\n      tag_153\n        /* \"#utility.yul\":4182:4189   */\n      dup8\n        /* \"#utility.yul\":4173:4179   */\n      dup3\n        /* \"#utility.yul\":4162:4171   */\n      dup9\n        /* \"#utility.yul\":4158:4180   */\n      add\n        /* \"#utility.yul\":4138:4190   */\n      tag_74\n      jump\t// in\n    tag_153:\n        /* \"#utility.yul\":4128:4190   */\n      swap2\n      pop\n        /* \"#utility.yul\":4083:4200   */\n      pop\n        /* \"#utility.yul\":2904:4207   */\n      swap3\n      swap6\n      swap2\n      swap5\n      pop\n      swap3\n      pop\n      jump\t// out\n        /* \"#utility.yul\":4213:4722   */\n    tag_11:\n        /* \"#utility.yul\":4282:4288   */\n      0x00\n        /* \"#utility.yul\":4331:4333   */\n      0x20\n        /* \"#utility.yul\":4319:4328   */\n      dup3\n        /* \"#utility.yul\":4310:4317   */\n      dup5\n        /* \"#utility.yul\":4306:4329   */\n      sub\n        /* \"#utility.yul\":4302:4334   */\n      slt\n        /* \"#utility.yul\":4299:4418   */\n      iszero\n      tag_155\n      jumpi\n        /* \"#utility.yul\":4337:4416   */\n      tag_156\n      tag_60\n      jump\t// in\n    tag_156:\n        /* \"#utility.yul\":4299:4418   */\n    tag_155:\n        /* \"#utility.yul\":4485:4486   */\n      0x00\n        /* \"#utility.yul\":4474:4483   */\n      dup3\n        /* \"#utility.yul\":4470:4487   */\n      add\n        /* \"#utility.yul\":4457:4488   */\n      calldataload\n        /* \"#utility.yul\":4515:4533   */\n      0xffffffffffffffff\n        /* \"#utility.yul\":4507:4513   */\n      dup2\n        /* \"#utility.yul\":4504:4534   */\n      gt\n        /* \"#utility.yul\":4501:4618   */\n      iszero\n      tag_157\n      jumpi\n        /* \"#utility.yul\":4537:4616   */\n      tag_158\n      tag_61\n      jump\t// in\n    tag_158:\n        /* \"#utility.yul\":4501:4618   */\n    tag_157:\n        /* \"#utility.yul\":4642:4705   */\n      tag_159\n        /* \"#utility.yul\":4697:4704   */\n      dup5\n        /* \"#utility.yul\":4688:4694   */\n      dup3\n        /* \"#utility.yul\":4677:4686   */\n      dup6\n        /* \"#utility.yul\":4673:4695   */\n      add\n        /* \"#utility.yul\":4642:4705   */\n      tag_71\n      jump\t// in\n    tag_159:\n        /* \"#utility.yul\":4632:4705   */\n      swap2\n      pop\n        /* \"#utility.yul\":4428:4715   */\n      pop\n        /* \"#utility.yul\":4213:4722   */\n      swap3\n      swap2\n      pop\n      pop\n      jump\t// out\n        /* \"#utility.yul\":4728:4827   */\n    tag_75:\n        /* \"#utility.yul\":4780:4786   */\n      0x00\n        /* \"#utility.yul\":4814:4819   */\n      dup2\n        /* \"#utility.yul\":4808:4820   */\n      mload\n        /* \"#utility.yul\":4798:4820   */\n      swap1\n      pop\n        /* \"#utility.yul\":4728:4827   */\n      swap2\n      swap1\n      pop\n      jump\t// out\n        /* \"#utility.yul\":4833:4992   */\n    tag_76:\n        /* \"#utility.yul\":4907:4918   */\n      0x00\n        /* \"#utility.yul\":4941:4947   */\n      dup3\n        /* \"#utility.yul\":4936:4939   */\n      dup3\n        /* \"#utility.yul\":4929:4948   */\n      mstore\n        /* \"#utility.yul\":4981:4985   */\n      0x20\n        /* \"#utility.yul\":4976:4979   */\n      dup3\n        /* \"#utility.yul\":4972:4986   */\n      add\n        /* \"#utility.yul\":4957:4986   */\n      swap1\n      pop\n        /* \"#utility.yul\":4833:4992   */\n      swap3\n      swap2\n      pop\n      pop\n      jump\t// out\n        /* \"#utility.yul\":4998:5244   */\n    tag_77:\n        /* \"#utility.yul\":5079:5080   */\n      0x00\n        /* \"#utility.yul\":5089:5202   */\n    tag_163:\n        /* \"#utility.yul\":5103:5109   */\n      dup4\n        /* \"#utility.yul\":5100:5101   */\n      dup2\n        /* \"#utility.yul\":5097:5110   */\n      lt\n        /* \"#utility.yul\":5089:5202   */\n      iszero\n      tag_165\n      jumpi\n        /* \"#utility.yul\":5188:5189   */\n      dup1\n        /* \"#utility.yul\":5183:5186   */\n      dup3\n        /* \"#utility.yul\":5179:5190   */\n      add\n        /* \"#utility.yul\":5173:5191   */\n      mload\n        /* \"#utility.yul\":5169:5170   */\n      dup2\n        /* \"#utility.yul\":5164:5167   */\n      dup5\n        /* \"#utility.yul\":5160:5171   */\n      add\n        /* \"#utility.yul\":5153:5192   */\n      mstore\n        /* \"#utility.yul\":5125:5127   */\n      0x20\n        /* \"#utility.yul\":5122:5123   */\n      dup2\n        /* \"#utility.yul\":5118:5128   */\n      add\n        /* \"#utility.yul\":5113:5128   */\n      swap1\n      pop\n        /* \"#utility.yul\":5089:5202   */\n      jump(tag_163)\n    tag_165:\n        /* \"#utility.yul\":5236:5237   */\n      0x00\n        /* \"#utility.yul\":5227:5233   */\n      dup5\n        /* \"#utility.yul\":5222:5225   */\n      dup5\n        /* \"#utility.yul\":5218:5234   */\n      add\n        /* \"#utility.yul\":5211:5238   */\n      mstore\n        /* \"#utility.yul\":5060:5244   */\n      pop\n        /* \"#utility.yul\":4998:5244   */\n      pop\n      pop\n      pop\n      jump\t// out\n        /* \"#utility.yul\":5250:5607   */\n    tag_78:\n        /* \"#utility.yul\":5328:5331   */\n      0x00\n        /* \"#utility.yul\":5356:5395   */\n      tag_167\n        /* \"#utility.yul\":5389:5394   */\n      dup3\n        /* \"#utility.yul\":5356:5395   */\n      tag_75\n      jump\t// in\n    tag_167:\n        /* \"#utility.yul\":5411:5472   */\n      tag_168\n        /* \"#utility.yul\":5465:5471   */\n      dup2\n        /* \"#utility.yul\":5460:5463   */\n      dup6\n        /* \"#utility.yul\":5411:5472   */\n      tag_76\n      jump\t// in\n    tag_168:\n        /* \"#utility.yul\":5404:5472   */\n      swap4\n      pop\n        /* \"#utility.yul\":5481:5546   */\n      tag_169\n        /* \"#utility.yul\":5539:5545   */\n      dup2\n        /* \"#utility.yul\":5534:5537   */\n      dup6\n        /* \"#utility.yul\":5527:5531   */\n      0x20\n        /* \"#utility.yul\":5520:5525   */\n      dup7\n        /* \"#utility.yul\":5516:5532   */\n      add\n        /* \"#utility.yul\":5481:5546   */\n      tag_77\n      jump\t// in\n    tag_169:\n        /* \"#utility.yul\":5571:5600   */\n      tag_170\n        /* \"#utility.yul\":5593:5599   */\n      dup2\n        /* \"#utility.yul\":5571:5600   */\n      tag_64\n      jump\t// in\n    tag_170:\n        /* \"#utility.yul\":5566:5569   */\n      dup5\n        /* \"#utility.yul\":5562:5601   */\n      add\n        /* \"#utility.yul\":5555:5601   */\n      swap2\n      pop\n        /* \"#utility.yul\":5332:5607   */\n      pop\n        /* \"#utility.yul\":5250:5607   */\n      swap3\n      swap2\n      pop\n      pop\n      jump\t// out\n        /* \"#utility.yul\":5613:5718   */\n    tag_79:\n        /* \"#utility.yul\":5688:5711   */\n      tag_172\n        /* \"#utility.yul\":5705:5710   */\n      dup2\n        /* \"#utility.yul\":5688:5711   */\n      tag_72\n      jump\t// in\n    tag_172:\n        /* \"#utility.yul\":5683:5686   */\n      dup3\n        /* \"#utility.yul\":5676:5712   */\n      mstore\n        /* \"#utility.yul\":5613:5718   */\n      pop\n      pop\n      jump\t// out\n        /* \"#utility.yul\":5800:6654   */\n    tag_80:\n        /* \"#utility.yul\":5919:5922   */\n      0x00\n        /* \"#utility.yul\":5955:5959   */\n      0x60\n        /* \"#utility.yul\":5950:5953   */\n      dup4\n        /* \"#utility.yul\":5946:5960   */\n      add\n        /* \"#utility.yul\":6042:6046   */\n      0x00\n        /* \"#utility.yul\":6035:6040   */\n      dup4\n        /* \"#utility.yul\":6031:6047   */\n      add\n        /* \"#utility.yul\":6025:6048   */\n      mload\n        /* \"#utility.yul\":6095:6098   */\n      dup5\n        /* \"#utility.yul\":6089:6093   */\n      dup3\n        /* \"#utility.yul\":6085:6099   */\n      sub\n        /* \"#utility.yul\":6078:6082   */\n      0x00\n        /* \"#utility.yul\":6073:6076   */\n      dup7\n        /* \"#utility.yul\":6069:6083   */\n      add\n        /* \"#utility.yul\":6062:6100   */\n      mstore\n        /* \"#utility.yul\":6121:6194   */\n      tag_174\n        /* \"#utility.yul\":6189:6193   */\n      dup3\n        /* \"#utility.yul\":6175:6187   */\n      dup3\n        /* \"#utility.yul\":6121:6194   */\n      tag_78\n      jump\t// in\n    tag_174:\n        /* \"#utility.yul\":6113:6194   */\n      swap2\n      pop\n        /* \"#utility.yul\":5970:6205   */\n      pop\n        /* \"#utility.yul\":6291:6295   */\n      0x20\n        /* \"#utility.yul\":6284:6289   */\n      dup4\n        /* \"#utility.yul\":6280:6296   */\n      add\n        /* \"#utility.yul\":6274:6297   */\n      mload\n        /* \"#utility.yul\":6344:6347   */\n      dup5\n        /* \"#utility.yul\":6338:6342   */\n      dup3\n        /* \"#utility.yul\":6334:6348   */\n      sub\n        /* \"#utility.yul\":6327:6331   */\n      0x20\n        /* \"#utility.yul\":6322:6325   */\n      dup7\n        /* \"#utility.yul\":6318:6332   */\n      add\n        /* \"#utility.yul\":6311:6349   */\n      mstore\n        /* \"#utility.yul\":6370:6443   */\n      tag_175\n        /* \"#utility.yul\":6438:6442   */\n      dup3\n        /* \"#utility.yul\":6424:6436   */\n      dup3\n        /* \"#utility.yul\":6370:6443   */\n      tag_78\n      jump\t// in\n    tag_175:\n        /* \"#utility.yul\":6362:6443   */\n      swap2\n      pop\n        /* \"#utility.yul\":6215:6454   */\n      pop\n        /* \"#utility.yul\":6537:6541   */\n      0x40\n        /* \"#utility.yul\":6530:6535   */\n      dup4\n        /* \"#utility.yul\":6526:6542   */\n      add\n        /* \"#utility.yul\":6520:6543   */\n      mload\n        /* \"#utility.yul\":6556:6617   */\n      tag_176\n        /* \"#utility.yul\":6611:6615   */\n      0x40\n        /* \"#utility.yul\":6606:6609   */\n      dup7\n        /* \"#utility.yul\":6602:6616   */\n      add\n        /* \"#utility.yul\":6588:6600   */\n      dup3\n        /* \"#utility.yul\":6556:6617   */\n      tag_79\n      jump\t// in\n    tag_176:\n        /* \"#utility.yul\":6464:6627   */\n      pop\n        /* \"#utility.yul\":6644:6648   */\n      dup1\n        /* \"#utility.yul\":6637:6648   */\n      swap2\n      pop\n        /* \"#utility.yul\":5924:6654   */\n      pop\n        /* \"#utility.yul\":5800:6654   */\n      swap3\n      swap2\n      pop\n      pop\n      jump\t// out\n        /* \"#utility.yul\":6660:7033   */\n    tag_14:\n        /* \"#utility.yul\":6803:6807   */\n      0x00\n        /* \"#utility.yul\":6841:6843   */\n      0x20\n        /* \"#utility.yul\":6830:6839   */\n      dup3\n        /* \"#utility.yul\":6826:6844   */\n      add\n        /* \"#utility.yul\":6818:6844   */\n      swap1\n      pop\n        /* \"#utility.yul\":6890:6899   */\n      dup2\n        /* \"#utility.yul\":6884:6888   */\n      dup2\n        /* \"#utility.yul\":6880:6900   */\n      sub\n        /* \"#utility.yul\":6876:6877   */\n      0x00\n        /* \"#utility.yul\":6865:6874   */\n      dup4\n        /* \"#utility.yul\":6861:6878   */\n      add\n        /* \"#utility.yul\":6854:6901   */\n      mstore\n        /* \"#utility.yul\":6918:7026   */\n      tag_178\n        /* \"#utility.yul\":7021:7025   */\n      dup2\n        /* \"#utility.yul\":7012:7018   */\n      dup5\n        /* \"#utility.yul\":6918:7026   */\n      tag_80\n      jump\t// in\n    tag_178:\n        /* \"#utility.yul\":6910:7026   */\n      swap1\n      pop\n        /* \"#utility.yul\":6660:7033   */\n      swap3\n      swap2\n      pop\n      pop\n      jump\t// out\n        /* \"#utility.yul\":7039:7208   */\n    tag_81:\n        /* \"#utility.yul\":7123:7134   */\n      0x00\n        /* \"#utility.yul\":7157:7163   */\n      dup3\n        /* \"#utility.yul\":7152:7155   */\n      dup3\n        /* \"#utility.yul\":7145:7164   */\n      mstore\n        /* \"#utility.yul\":7197:7201   */\n      0x20\n        /* \"#utility.yul\":7192:7195   */\n      dup3\n        /* \"#utility.yul\":7188:7202   */\n      add\n        /* \"#utility.yul\":7173:7202   */\n      swap1\n      pop\n        /* \"#utility.yul\":7039:7208   */\n      swap3\n      swap2\n      pop\n      pop\n      jump\t// out\n        /* \"#utility.yul\":7214:7385   */\n    tag_82:\n        /* \"#utility.yul\":7354:7377   */\n      0x63706620657869737465206e6f2073697374656d610000000000000000000000\n        /* \"#utility.yul\":7350:7351   */\n      0x00\n        /* \"#utility.yul\":7342:7348   */\n      dup3\n        /* \"#utility.yul\":7338:7352   */\n      add\n        /* \"#utility.yul\":7331:7378   */\n      mstore\n        /* \"#utility.yul\":7214:7385   */\n      pop\n      jump\t// out\n        /* \"#utility.yul\":7391:7757   */\n    tag_83:\n        /* \"#utility.yul\":7533:7536   */\n      0x00\n        /* \"#utility.yul\":7554:7621   */\n      tag_182\n        /* \"#utility.yul\":7618:7620   */\n      0x15\n        /* \"#utility.yul\":7613:7616   */\n      dup4\n        /* \"#utility.yul\":7554:7621   */\n      tag_81\n      jump\t// in\n    tag_182:\n        /* \"#utility.yul\":7547:7621   */\n      swap2\n      pop\n        /* \"#utility.yul\":7630:7723   */\n      tag_183\n        /* \"#utility.yul\":7719:7722   */\n      dup3\n        /* \"#utility.yul\":7630:7723   */\n      tag_82\n      jump\t// in\n    tag_183:\n        /* \"#utility.yul\":7748:7750   */\n      0x20\n        /* \"#utility.yul\":7743:7746   */\n      dup3\n        /* \"#utility.yul\":7739:7751   */\n      add\n        /* \"#utility.yul\":7732:7751   */\n      swap1\n      pop\n        /* \"#utility.yul\":7391:7757   */\n      swap2\n      swap1\n      pop\n      jump\t// out\n        /* \"#utility.yul\":7763:8182   */\n    tag_20:\n        /* \"#utility.yul\":7929:7933   */\n      0x00\n        /* \"#utility.yul\":7967:7969   */\n      0x20\n        /* \"#utility.yul\":7956:7965   */\n      dup3\n        /* \"#utility.yul\":7952:7970   */\n      add\n        /* \"#utility.yul\":7944:7970   */\n      swap1\n      pop\n        /* \"#utility.yul\":8016:8025   */\n      dup2\n        /* \"#utility.yul\":8010:8014   */\n      dup2\n        /* \"#utility.yul\":8006:8026   */\n      sub\n        /* \"#utility.yul\":8002:8003   */\n      0x00\n        /* \"#utility.yul\":7991:8000   */\n      dup4\n        /* \"#utility.yul\":7987:8004   */\n      add\n        /* \"#utility.yul\":7980:8027   */\n      mstore\n        /* \"#utility.yul\":8044:8175   */\n      tag_185\n        /* \"#utility.yul\":8170:8174   */\n      dup2\n        /* \"#utility.yul\":8044:8175   */\n      tag_83\n      jump\t// in\n    tag_185:\n        /* \"#utility.yul\":8036:8175   */\n      swap1\n      pop\n        /* \"#utility.yul\":7763:8182   */\n      swap2\n      swap1\n      pop\n      jump\t// out\n        /* \"#utility.yul\":8188:8336   */\n    tag_84:\n        /* \"#utility.yul\":8290:8301   */\n      0x00\n        /* \"#utility.yul\":8327:8330   */\n      dup2\n        /* \"#utility.yul\":8312:8330   */\n      swap1\n      pop\n        /* \"#utility.yul\":8188:8336   */\n      swap3\n      swap2\n      pop\n      pop\n      jump\t// out\n        /* \"#utility.yul\":8342:8732   */\n    tag_85:\n        /* \"#utility.yul\":8448:8451   */\n      0x00\n        /* \"#utility.yul\":8476:8515   */\n      tag_188\n        /* \"#utility.yul\":8509:8514   */\n      dup3\n        /* \"#utility.yul\":8476:8515   */\n      tag_75\n      jump\t// in\n    tag_188:\n        /* \"#utility.yul\":8531:8620   */\n      tag_189\n        /* \"#utility.yul\":8613:8619   */\n      dup2\n        /* \"#utility.yul\":8608:8611   */\n      dup6\n        /* \"#utility.yul\":8531:8620   */\n      tag_84\n      jump\t// in\n    tag_189:\n        /* \"#utility.yul\":8524:8620   */\n      swap4\n      pop\n        /* \"#utility.yul\":8629:8694   */\n      tag_190\n        /* \"#utility.yul\":8687:8693   */\n      dup2\n        /* \"#utility.yul\":8682:8685   */\n      dup6\n        /* \"#utility.yul\":8675:8679   */\n      0x20\n        /* \"#utility.yul\":8668:8673   */\n      dup7\n        /* \"#utility.yul\":8664:8680   */\n      add\n        /* \"#utility.yul\":8629:8694   */\n      tag_77\n      jump\t// in\n    tag_190:\n        /* \"#utility.yul\":8719:8725   */\n      dup1\n        /* \"#utility.yul\":8714:8717   */\n      dup5\n        /* \"#utility.yul\":8710:8726   */\n      add\n        /* \"#utility.yul\":8703:8726   */\n      swap2\n      pop\n        /* \"#utility.yul\":8452:8732   */\n      pop\n        /* \"#utility.yul\":8342:8732   */\n      swap3\n      swap2\n      pop\n      pop\n      jump\t// out\n        /* \"#utility.yul\":8738:9013   */\n    tag_22:\n        /* \"#utility.yul\":8870:8873   */\n      0x00\n        /* \"#utility.yul\":8892:8987   */\n      tag_192\n        /* \"#utility.yul\":8983:8986   */\n      dup3\n        /* \"#utility.yul\":8974:8980   */\n      dup5\n        /* \"#utility.yul\":8892:8987   */\n      tag_85\n      jump\t// in\n    tag_192:\n        /* \"#utility.yul\":8885:8987   */\n      swap2\n      pop\n        /* \"#utility.yul\":9004:9007   */\n      dup2\n        /* \"#utility.yul\":8997:9007   */\n      swap1\n      pop\n        /* \"#utility.yul\":8738:9013   */\n      swap3\n      swap2\n      pop\n      pop\n      jump\t// out\n        /* \"#utility.yul\":9019:9199   */\n    tag_86:\n        /* \"#utility.yul\":9067:9144   */\n      0x4e487b7100000000000000000000000000000000000000000000000000000000\n        /* \"#utility.yul\":9064:9065   */\n      0x00\n        /* \"#utility.yul\":9057:9145   */\n      mstore\n        /* \"#utility.yul\":9164:9168   */\n      0x22\n        /* \"#utility.yul\":9161:9162   */\n      0x04\n        /* \"#utility.yul\":9154:9169   */\n      mstore\n        /* \"#utility.yul\":9188:9192   */\n      0x24\n        /* \"#utility.yul\":9185:9186   */\n      0x00\n        /* \"#utility.yul\":9178:9193   */\n      revert\n        /* \"#utility.yul\":9205:9525   */\n    tag_33:\n        /* \"#utility.yul\":9249:9255   */\n      0x00\n        /* \"#utility.yul\":9286:9287   */\n      0x02\n        /* \"#utility.yul\":9280:9284   */\n      dup3\n        /* \"#utility.yul\":9276:9288   */\n      div\n        /* \"#utility.yul\":9266:9288   */\n      swap1\n      pop\n        /* \"#utility.yul\":9333:9334   */\n      0x01\n        /* \"#utility.yul\":9327:9331   */\n      dup3\n        /* \"#utility.yul\":9323:9335   */\n      and\n        /* \"#utility.yul\":9354:9372   */\n      dup1\n        /* \"#utility.yul\":9344:9425   */\n      tag_195\n      jumpi\n        /* \"#utility.yul\":9410:9414   */\n      0x7f\n        /* \"#utility.yul\":9402:9408   */\n      dup3\n        /* \"#utility.yul\":9398:9415   */\n      and\n        /* \"#utility.yul\":9388:9415   */\n      swap2\n      pop\n        /* \"#utility.yul\":9344:9425   */\n    tag_195:\n        /* \"#utility.yul\":9472:9474   */\n      0x20\n        /* \"#utility.yul\":9464:9470   */\n      dup3\n        /* \"#utility.yul\":9461:9475   */\n      lt\n        /* \"#utility.yul\":9441:9459   */\n      dup2\n        /* \"#utility.yul\":9438:9476   */\n      sub\n        /* \"#utility.yul\":9435:9519   */\n      tag_196\n      jumpi\n        /* \"#utility.yul\":9491:9509   */\n      tag_197\n      tag_86\n      jump\t// in\n    tag_197:\n        /* \"#utility.yul\":9435:9519   */\n    tag_196:\n        /* \"#utility.yul\":9256:9525   */\n      pop\n        /* \"#utility.yul\":9205:9525   */\n      swap2\n      swap1\n      pop\n      jump\t// out\n        /* \"#utility.yul\":9531:9672   */\n    tag_87:\n        /* \"#utility.yul\":9580:9584   */\n      0x00\n        /* \"#utility.yul\":9603:9606   */\n      dup2\n        /* \"#utility.yul\":9595:9606   */\n      swap1\n      pop\n        /* \"#utility.yul\":9626:9629   */\n      dup2\n        /* \"#utility.yul\":9623:9624   */\n      0x00\n        /* \"#utility.yul\":9616:9630   */\n      mstore\n        /* \"#utility.yul\":9660:9664   */\n      0x20\n        /* \"#utility.yul\":9657:9658   */\n      0x00\n        /* \"#utility.yul\":9647:9665   */\n      keccak256\n        /* \"#utility.yul\":9639:9665   */\n      swap1\n      pop\n        /* \"#utility.yul\":9531:9672   */\n      swap2\n      swap1\n      pop\n      jump\t// out\n        /* \"#utility.yul\":9678:9771   */\n    tag_88:\n        /* \"#utility.yul\":9715:9721   */\n      0x00\n        /* \"#utility.yul\":9762:9764   */\n      0x20\n        /* \"#utility.yul\":9757:9759   */\n      0x1f\n        /* \"#utility.yul\":9750:9755   */\n      dup4\n        /* \"#utility.yul\":9746:9760   */\n      add\n        /* \"#utility.yul\":9742:9765   */\n      div\n        /* \"#utility.yul\":9732:9765   */\n      swap1\n      pop\n        /* \"#utility.yul\":9678:9771   */\n      swap2\n      swap1\n      pop\n      jump\t// out\n        /* \"#utility.yul\":9777:9884   */\n    tag_89:\n        /* \"#utility.yul\":9821:9829   */\n      0x00\n        /* \"#utility.yul\":9871:9876   */\n      dup3\n        /* \"#utility.yul\":9865:9869   */\n      dup3\n        /* \"#utility.yul\":9861:9877   */\n      shl\n        /* \"#utility.yul\":9840:9877   */\n      swap1\n      pop\n        /* \"#utility.yul\":9777:9884   */\n      swap3\n      swap2\n      pop\n      pop\n      jump\t// out\n        /* \"#utility.yul\":9890:10283   */\n    tag_90:\n        /* \"#utility.yul\":9959:9965   */\n      0x00\n        /* \"#utility.yul\":10009:10010   */\n      0x08\n        /* \"#utility.yul\":9997:10007   */\n      dup4\n        /* \"#utility.yul\":9993:10011   */\n      mul\n        /* \"#utility.yul\":10032:10129   */\n      tag_202\n        /* \"#utility.yul\":10062:10128   */\n      0xffffffffffffffffffffffffffffffffffffffffffffffffffffffffffffffff\n        /* \"#utility.yul\":10051:10060   */\n      dup3\n        /* \"#utility.yul\":10032:10129   */\n      tag_89\n      jump\t// in\n    tag_202:\n        /* \"#utility.yul\":10150:10189   */\n      tag_203\n        /* \"#utility.yul\":10180:10188   */\n      dup7\n        /* \"#utility.yul\":10169:10178   */\n      dup4\n        /* \"#utility.yul\":10150:10189   */\n      tag_89\n      jump\t// in\n    tag_203:\n        /* \"#utility.yul\":10138:10189   */\n      swap6\n      pop\n        /* \"#utility.yul\":10222:10226   */\n      dup1\n        /* \"#utility.yul\":10218:10227   */\n      not\n        /* \"#utility.yul\":10211:10216   */\n      dup5\n        /* \"#utility.yul\":10207:10228   */\n      and\n        /* \"#utility.yul\":10198:10228   */\n      swap4\n      pop\n        /* \"#utility.yul\":10271:10275   */\n      dup1\n        /* \"#utility.yul\":10261:10269   */\n      dup7\n        /* \"#utility.yul\":10257:10276   */\n      and\n        /* \"#utility.yul\":10250:10255   */\n      dup5\n        /* \"#utility.yul\":10247:10277   */\n      or\n        /* \"#utility.yul\":10237:10277   */\n      swap3\n      pop\n        /* \"#utility.yul\":9966:10283   */\n      pop\n      pop\n        /* \"#utility.yul\":9890:10283   */\n      swap4\n      swap3\n      pop\n      pop\n      pop\n      jump\t// out\n        /* \"#utility.yul\":10289:10366   */\n    tag_91:\n        /* \"#utility.yul\":10326:10333   */\n      0x00\n        /* \"#utility.yul\":10355:10360   */\n      dup2\n        /* \"#utility.yul\":10344:10360   */\n      swap1\n      pop\n        /* \"#utility.yul\":10289:10366   */\n      swap2\n      swap1\n      pop\n      jump\t// out\n        /* \"#utility.yul\":10372:10432   */\n    tag_92:\n        /* \"#utility.yul\":10400:10403   */\n      0x00\n        /* \"#utility.yul\":10421:10426   */\n      dup2\n        /* \"#utility.yul\":10414:10426   */\n      swap1\n      pop\n        /* \"#utility.yul\":10372:10432   */\n      swap2\n      swap1\n      pop\n      jump\t// out\n        /* \"#utility.yul\":10438:10580   */\n    tag_93:\n        /* \"#utility.yul\":10488:10497   */\n      0x00\n        /* \"#utility.yul\":10521:10574   */\n      tag_207\n        /* \"#utility.yul\":10539:10573   */\n      tag_208\n        /* \"#utility.yul\":10548:10572   */\n      tag_209\n        /* \"#utility.yul\":10566:10571   */\n      dup5\n        /* \"#utility.yul\":10548:10572   */\n      tag_91\n      jump\t// in\n    tag_209:\n        /* \"#utility.yul\":10539:10573   */\n      tag_92\n      jump\t// in\n    tag_208:\n        /* \"#utility.yul\":10521:10574   */\n      tag_91\n      jump\t// in\n    tag_207:\n        /* \"#utility.yul\":10508:10574   */\n      swap1\n      pop\n        /* \"#utility.yul\":10438:10580   */\n      swap2\n      swap1\n      pop\n      jump\t// out\n        /* \"#utility.yul\":10586:10661   */\n    tag_94:\n        /* \"#utility.yul\":10629:10632   */\n      0x00\n        /* \"#utility.yul\":10650:10655   */\n      dup2\n        /* \"#utility.yul\":10643:10655   */\n      swap1\n      pop\n        /* \"#utility.yul\":10586:10661   */\n      swap2\n      swap1\n      pop\n      jump\t// out\n        /* \"#utility.yul\":10667:10936   */\n    tag_95:\n        /* \"#utility.yul\":10777:10816   */\n      tag_212\n        /* \"#utility.yul\":10808:10815   */\n      dup4\n        /* \"#utility.yul\":10777:10816   */\n      tag_93\n      jump\t// in\n    tag_212:\n        /* \"#utility.yul\":10838:10929   */\n      tag_213\n        /* \"#utility.yul\":10887:10928   */\n      tag_214\n        /* \"#utility.yul\":10911:10927   */\n      dup3\n        /* \"#utility.yul\":10887:10928   */\n      tag_94\n      jump\t// in\n    tag_214:\n        /* \"#utility.yul\":10879:10885   */\n      dup5\n        /* \"#utility.yul\":10872:10876   */\n      dup5\n        /* \"#utility.yul\":10866:10877   */\n      sload\n        /* \"#utility.yul\":10838:10929   */\n      tag_90\n      jump\t// in\n    tag_213:\n        /* \"#utility.yul\":10832:10836   */\n      dup3\n        /* \"#utility.yul\":10825:10930   */\n      sstore\n        /* \"#utility.yul\":10743:10936   */\n      pop\n        /* \"#utility.yul\":10667:10936   */\n      pop\n      pop\n      pop\n      jump\t// out\n        /* \"#utility.yul\":10942:11015   */\n    tag_96:\n        /* \"#utility.yul\":10987:10990   */\n      0x00\n        /* \"#utility.yul\":10942:11015   */\n      swap1\n      jump\t// out\n        /* \"#utility.yul\":11021:11210   */\n    tag_97:\n        /* \"#utility.yul\":11098:11130   */\n      tag_217\n      tag_96\n      jump\t// in\n    tag_217:\n        /* \"#utility.yul\":11139:11204   */\n      tag_218\n        /* \"#utility.yul\":11197:11203   */\n      dup2\n        /* \"#utility.yul\":11189:11195   */\n      dup5\n        /* \"#utility.yul\":11183:11187   */\n      dup5\n        /* \"#utility.yul\":11139:11204   */\n      tag_95\n      jump\t// in\n    tag_218:\n        /* \"#utility.yul\":11074:11210   */\n      pop\n        /* \"#utility.yul\":11021:11210   */\n      pop\n      pop\n      jump\t// out\n        /* \"#utility.yul\":11216:11402   */\n    tag_98:\n        /* \"#utility.yul\":11276:11396   */\n    tag_220:\n        /* \"#utility.yul\":11293:11296   */\n      dup2\n        /* \"#utility.yul\":11286:11291   */\n      dup2\n        /* \"#utility.yul\":11283:11297   */\n      lt\n        /* \"#utility.yul\":11276:11396   */\n      iszero\n      tag_222\n      jumpi\n        /* \"#utility.yul\":11347:11386   */\n      tag_223\n        /* \"#utility.yul\":11384:11385   */\n      0x00\n        /* \"#utility.yul\":11377:11382   */\n      dup3\n        /* \"#utility.yul\":11347:11386   */\n      tag_97\n      jump\t// in\n    tag_223:\n        /* \"#utility.yul\":11320:11321   */\n      0x01\n        /* \"#utility.yul\":11313:11318   */\n      dup2\n        /* \"#utility.yul\":11309:11322   */\n      add\n        /* \"#utility.yul\":11300:11322   */\n      swap1\n      pop\n        /* \"#utility.yul\":11276:11396   */\n      jump(tag_220)\n    tag_222:\n        /* \"#utility.yul\":11216:11402   */\n      pop\n      pop\n      jump\t// out\n        /* \"#utility.yul\":11408:11951   */\n    tag_99:\n        /* \"#utility.yul\":11509:11511   */\n      0x1f\n        /* \"#utility.yul\":11504:11507   */\n      dup3\n        /* \"#utility.yul\":11501:11512   */\n      gt\n        /* \"#utility.yul\":11498:11944   */\n      iszero\n      tag_225\n      jumpi\n        /* \"#utility.yul\":11543:11581   */\n      tag_226\n        /* \"#utility.yul\":11575:11580   */\n      dup2\n        /* \"#utility.yul\":11543:11581   */\n      tag_87\n      jump\t// in\n    tag_226:\n        /* \"#utility.yul\":11627:11656   */\n      tag_227\n        /* \"#utility.yul\":11645:11655   */\n      dup5\n        /* \"#utility.yul\":11627:11656   */\n      tag_88\n      jump\t// in\n    tag_227:\n        /* \"#utility.yul\":11617:11625   */\n      dup2\n        /* \"#utility.yul\":11613:11657   */\n      add\n        /* \"#utility.yul\":11810:11812   */\n      0x20\n        /* \"#utility.yul\":11798:11808   */\n      dup6\n        /* \"#utility.yul\":11795:11813   */\n      lt\n        /* \"#utility.yul\":11792:11841   */\n      iszero\n      tag_228\n      jumpi\n        /* \"#utility.yul\":11831:11839   */\n      dup2\n        /* \"#utility.yul\":11816:11839   */\n      swap1\n      pop\n        /* \"#utility.yul\":11792:11841   */\n    tag_228:\n        /* \"#utility.yul\":11854:11934   */\n      tag_229\n        /* \"#utility.yul\":11910:11932   */\n      tag_230\n        /* \"#utility.yul\":11928:11931   */\n      dup6\n        /* \"#utility.yul\":11910:11932   */\n      tag_88\n      jump\t// in\n    tag_230:\n        /* \"#utility.yul\":11900:11908   */\n      dup4\n        /* \"#utility.yul\":11896:11933   */\n      add\n        /* \"#utility.yul\":11883:11894   */\n      dup3\n        /* \"#utility.yul\":11854:11934   */\n      tag_98\n      jump\t// in\n    tag_229:\n        /* \"#utility.yul\":11513:11944   */\n      pop\n      pop\n        /* \"#utility.yul\":11498:11944   */\n    tag_225:\n        /* \"#utility.yul\":11408:11951   */\n      pop\n      pop\n      pop\n      jump\t// out\n        /* \"#utility.yul\":11957:12074   */\n    tag_100:\n        /* \"#utility.yul\":12011:12019   */\n      0x00\n        /* \"#utility.yul\":12061:12066   */\n      dup3\n        /* \"#utility.yul\":12055:12059   */\n      dup3\n        /* \"#utility.yul\":12051:12067   */\n      shr\n        /* \"#utility.yul\":12030:12067   */\n      swap1\n      pop\n        /* \"#utility.yul\":11957:12074   */\n      swap3\n      swap2\n      pop\n      pop\n      jump\t// out\n        /* \"#utility.yul\":12080:12249   */\n    tag_101:\n        /* \"#utility.yul\":12124:12130   */\n      0x00\n        /* \"#utility.yul\":12157:12208   */\n      tag_233\n        /* \"#utility.yul\":12205:12206   */\n      0x00\n        /* \"#utility.yul\":12201:12207   */\n      not\n        /* \"#utility.yul\":12193:12198   */\n      dup5\n        /* \"#utility.yul\":12190:12191   */\n      0x08\n        /* \"#utility.yul\":12186:12199   */\n      mul\n        /* \"#utility.yul\":12157:12208   */\n      tag_100\n      jump\t// in\n    tag_233:\n        /* \"#utility.yul\":12153:12209   */\n      not\n        /* \"#utility.yul\":12238:12242   */\n      dup1\n        /* \"#utility.yul\":12232:12236   */\n      dup4\n        /* \"#utility.yul\":12228:12243   */\n      and\n        /* \"#utility.yul\":12218:12243   */\n      swap2\n      pop\n        /* \"#utility.yul\":12131:12249   */\n      pop\n        /* \"#utility.yul\":12080:12249   */\n      swap3\n      swap2\n      pop\n      pop\n      jump\t// out\n        /* \"#utility.yul\":12254:12549   */\n    tag_102:\n        /* \"#utility.yul\":12330:12334   */\n      0x00\n        /* \"#utility.yul\":12476:12505   */\n      tag_235\n        /* \"#utility.yul\":12501:12504   */\n      dup4\n        /* \"#utility.yul\":12495:12499   */\n      dup4\n        /* \"#utility.yul\":12476:12505   */\n      tag_101\n      jump\t// in\n    tag_235:\n        /* \"#utility.yul\":12468:12505   */\n      swap2\n      pop\n        /* \"#utility.yul\":12538:12541   */\n      dup3\n        /* \"#utility.yul\":12535:12536   */\n      0x02\n        /* \"#utility.yul\":12531:12542   */\n      mul\n        /* \"#utility.yul\":12525:12529   */\n      dup3\n        /* \"#utility.yul\":12522:12543   */\n      or\n        /* \"#utility.yul\":12514:12543   */\n      swap1\n      pop\n        /* \"#utility.yul\":12254:12549   */\n      swap3\n      swap2\n      pop\n      pop\n      jump\t// out\n        /* \"#utility.yul\":12554:13949   */\n    tag_24:\n        /* \"#utility.yul\":12671:12708   */\n      tag_237\n        /* \"#utility.yul\":12704:12707   */\n      dup3\n        /* \"#utility.yul\":12671:12708   */\n      tag_75\n      jump\t// in\n    tag_237:\n        /* \"#utility.yul\":12773:12791   */\n      0xffffffffffffffff\n        /* \"#utility.yul\":12765:12771   */\n      dup2\n        /* \"#utility.yul\":12762:12792   */\n      gt\n        /* \"#utility.yul\":12759:12815   */\n      iszero\n      tag_238\n      jumpi\n        /* \"#utility.yul\":12795:12813   */\n      tag_239\n      tag_65\n      jump\t// in\n    tag_239:\n        /* \"#utility.yul\":12759:12815   */\n    tag_238:\n        /* \"#utility.yul\":12839:12877   */\n      tag_240\n        /* \"#utility.yul\":12871:12875   */\n      dup3\n        /* \"#utility.yul\":12865:12876   */\n      sload\n        /* \"#utility.yul\":12839:12877   */\n      tag_33\n      jump\t// in\n    tag_240:\n        /* \"#utility.yul\":12924:12991   */\n      tag_241\n        /* \"#utility.yul\":12984:12990   */\n      dup3\n        /* \"#utility.yul\":12976:12982   */\n      dup3\n        /* \"#utility.yul\":12970:12974   */\n      dup6\n        /* \"#utility.yul\":12924:12991   */\n      tag_99\n      jump\t// in\n    tag_241:\n        /* \"#utility.yul\":13018:13019   */\n      0x00\n        /* \"#utility.yul\":13042:13046   */\n      0x20\n        /* \"#utility.yul\":13029:13046   */\n      swap1\n      pop\n        /* \"#utility.yul\":13074:13076   */\n      0x1f\n        /* \"#utility.yul\":13066:13072   */\n      dup4\n        /* \"#utility.yul\":13063:13077   */\n      gt\n        /* \"#utility.yul\":13091:13092   */\n      0x01\n        /* \"#utility.yul\":13086:13704   */\n      dup2\n      eq\n      tag_243\n      jumpi\n        /* \"#utility.yul\":13748:13749   */\n      0x00\n        /* \"#utility.yul\":13765:13771   */\n      dup5\n        /* \"#utility.yul\":13762:13839   */\n      iszero\n      tag_244\n      jumpi\n        /* \"#utility.yul\":13814:13823   */\n      dup3\n        /* \"#utility.yul\":13809:13812   */\n      dup8\n        /* \"#utility.yul\":13805:13824   */\n      add\n        /* \"#utility.yul\":13799:13825   */\n      mload\n        /* \"#utility.yul\":13790:13825   */\n      swap1\n      pop\n        /* \"#utility.yul\":13762:13839   */\n    tag_244:\n        /* \"#utility.yul\":13865:13932   */\n      tag_245\n        /* \"#utility.yul\":13925:13931   */\n      dup6\n        /* \"#utility.yul\":13918:13923   */\n      dup3\n        /* \"#utility.yul\":13865:13932   */\n      tag_102\n      jump\t// in\n    tag_245:\n        /* \"#utility.yul\":13859:13863   */\n      dup7\n        /* \"#utility.yul\":13852:13933   */\n      sstore\n        /* \"#utility.yul\":13721:13943   */\n      pop\n        /* \"#utility.yul\":13056:13943   */\n      jump(tag_242)\n        /* \"#utility.yul\":13086:13704   */\n    tag_243:\n        /* \"#utility.yul\":13138:13142   */\n      0x1f\n        /* \"#utility.yul\":13134:13143   */\n      not\n        /* \"#utility.yul\":13126:13132   */\n      dup5\n        /* \"#utility.yul\":13122:13144   */\n      and\n        /* \"#utility.yul\":13172:13209   */\n      tag_246\n        /* \"#utility.yul\":13204:13208   */\n      dup7\n        /* \"#utility.yul\":13172:13209   */\n      tag_87\n      jump\t// in\n    tag_246:\n        /* \"#utility.yul\":13231:13232   */\n      0x00\n        /* \"#utility.yul\":13245:13453   */\n    tag_247:\n        /* \"#utility.yul\":13259:13266   */\n      dup3\n        /* \"#utility.yul\":13256:13257   */\n      dup2\n        /* \"#utility.yul\":13253:13267   */\n      lt\n        /* \"#utility.yul\":13245:13453   */\n      iszero\n      tag_249\n      jumpi\n        /* \"#utility.yul\":13338:13347   */\n      dup5\n        /* \"#utility.yul\":13333:13336   */\n      dup10\n        /* \"#utility.yul\":13329:13348   */\n      add\n        /* \"#utility.yul\":13323:13349   */\n      mload\n        /* \"#utility.yul\":13315:13321   */\n      dup3\n        /* \"#utility.yul\":13308:13350   */\n      sstore\n        /* \"#utility.yul\":13389:13390   */\n      0x01\n        /* \"#utility.yul\":13381:13387   */\n      dup3\n        /* \"#utility.yul\":13377:13391   */\n      add\n        /* \"#utility.yul\":13367:13391   */\n      swap2\n      pop\n        /* \"#utility.yul\":13436:13438   */\n      0x20\n        /* \"#utility.yul\":13425:13434   */\n      dup6\n        /* \"#utility.yul\":13421:13439   */\n      add\n        /* \"#utility.yul\":13408:13439   */\n      swap5\n      pop\n        /* \"#utility.yul\":13282:13286   */\n      0x20\n        /* \"#utility.yul\":13279:13280   */\n      dup2\n        /* \"#utility.yul\":13275:13287   */\n      add\n        /* \"#utility.yul\":13270:13287   */\n      swap1\n      pop\n        /* \"#utility.yul\":13245:13453   */\n      jump(tag_247)\n    tag_249:\n        /* \"#utility.yul\":13481:13487   */\n      dup7\n        /* \"#utility.yul\":13472:13479   */\n      dup4\n        /* \"#utility.yul\":13469:13488   */\n      lt\n        /* \"#utility.yul\":13466:13645   */\n      iszero\n      tag_250\n      jumpi\n        /* \"#utility.yul\":13539:13548   */\n      dup5\n        /* \"#utility.yul\":13534:13537   */\n      dup10\n        /* \"#utility.yul\":13530:13549   */\n      add\n        /* \"#utility.yul\":13524:13550   */\n      mload\n        /* \"#utility.yul\":13582:13630   */\n      tag_251\n        /* \"#utility.yul\":13624:13628   */\n      0x1f\n        /* \"#utility.yul\":13616:13622   */\n      dup10\n        /* \"#utility.yul\":13612:13629   */\n      and\n        /* \"#utility.yul\":13601:13610   */\n      dup3\n        /* \"#utility.yul\":13582:13630   */\n      tag_101\n      jump\t// in\n    tag_251:\n        /* \"#utility.yul\":13574:13580   */\n      dup4\n        /* \"#utility.yul\":13567:13631   */\n      sstore\n        /* \"#utility.yul\":13489:13645   */\n      pop\n        /* \"#utility.yul\":13466:13645   */\n    tag_250:\n        /* \"#utility.yul\":13691:13692   */\n      0x01\n        /* \"#utility.yul\":13687:13688   */\n      0x02\n        /* \"#utility.yul\":13679:13685   */\n      dup9\n        /* \"#utility.yul\":13675:13689   */\n      mul\n        /* \"#utility.yul\":13671:13693   */\n      add\n        /* \"#utility.yul\":13665:13669   */\n      dup9\n        /* \"#utility.yul\":13658:13694   */\n      sstore\n        /* \"#utility.yul\":13093:13704   */\n      pop\n      pop\n      pop\n        /* \"#utility.yul\":13056:13943   */\n    tag_242:\n      pop\n        /* \"#utility.yul\":12646:13949   */\n      pop\n      pop\n      pop\n        /* \"#utility.yul\":12554:13949   */\n      pop\n      pop\n      jump\t// out\n        /* \"#utility.yul\":13955:14135   */\n    tag_51:\n        /* \"#utility.yul\":14003:14080   */\n      0x4e487b7100000000000000000000000000000000000000000000000000000000\n        /* \"#utility.yul\":14000:14001   */\n      0x00\n        /* \"#utility.yul\":13993:14081   */\n      mstore\n        /* \"#utility.yul\":14100:14104   */\n      0x32\n        /* \"#utility.yul\":14097:14098   */\n      0x04\n        /* \"#utility.yul\":14090:14105   */\n      mstore\n        /* \"#utility.yul\":14124:14128   */\n      0x24\n        /* \"#utility.yul\":14121:14122   */\n      0x00\n        /* \"#utility.yul\":14114:14129   */\n      revert\n        /* \"#utility.yul\":14165:15039   */\n    tag_103:\n        /* \"#utility.yul\":14268:14271   */\n      0x00\n        /* \"#utility.yul\":14305:14310   */\n      dup2\n        /* \"#utility.yul\":14299:14311   */\n      sload\n        /* \"#utility.yul\":14334:14370   */\n      tag_254\n        /* \"#utility.yul\":14360:14369   */\n      dup2\n        /* \"#utility.yul\":14334:14370   */\n      tag_33\n      jump\t// in\n    tag_254:\n        /* \"#utility.yul\":14386:14475   */\n      tag_255\n        /* \"#utility.yul\":14468:14474   */\n      dup2\n        /* \"#utility.yul\":14463:14466   */\n      dup7\n        /* \"#utility.yul\":14386:14475   */\n      tag_84\n      jump\t// in\n    tag_255:\n        /* \"#utility.yul\":14379:14475   */\n      swap5\n      pop\n        /* \"#utility.yul\":14506:14507   */\n      0x01\n        /* \"#utility.yul\":14495:14504   */\n      dup3\n        /* \"#utility.yul\":14491:14508   */\n      and\n        /* \"#utility.yul\":14522:14523   */\n      0x00\n        /* \"#utility.yul\":14517:14683   */\n      dup2\n      eq\n      tag_257\n      jumpi\n        /* \"#utility.yul\":14697:14698   */\n      0x01\n        /* \"#utility.yul\":14692:15033   */\n      dup2\n      eq\n      tag_258\n      jumpi\n        /* \"#utility.yul\":14484:15033   */\n      jump(tag_256)\n        /* \"#utility.yul\":14517:14683   */\n    tag_257:\n        /* \"#utility.yul\":14601:14605   */\n      0xff\n        /* \"#utility.yul\":14597:14606   */\n      not\n        /* \"#utility.yul\":14586:14595   */\n      dup4\n        /* \"#utility.yul\":14582:14607   */\n      and\n        /* \"#utility.yul\":14577:14580   */\n      dup7\n        /* \"#utility.yul\":14570:14608   */\n      mstore\n        /* \"#utility.yul\":14663:14669   */\n      dup2\n        /* \"#utility.yul\":14656:14670   */\n      iszero\n        /* \"#utility.yul\":14649:14671   */\n      iszero\n        /* \"#utility.yul\":14641:14647   */\n      dup3\n        /* \"#utility.yul\":14637:14672   */\n      mul\n        /* \"#utility.yul\":14632:14635   */\n      dup7\n        /* \"#utility.yul\":14628:14673   */\n      add\n        /* \"#utility.yul\":14621:14673   */\n      swap4\n      pop\n        /* \"#utility.yul\":14517:14683   */\n      jump(tag_256)\n        /* \"#utility.yul\":14692:15033   */\n    tag_258:\n        /* \"#utility.yul\":14759:14797   */\n      tag_259\n        /* \"#utility.yul\":14791:14796   */\n      dup6\n        /* \"#utility.yul\":14759:14797   */\n      tag_87\n      jump\t// in\n    tag_259:\n        /* \"#utility.yul\":14819:14820   */\n      0x00\n        /* \"#utility.yul\":14833:14987   */\n    tag_260:\n        /* \"#utility.yul\":14847:14853   */\n      dup4\n        /* \"#utility.yul\":14844:14845   */\n      dup2\n        /* \"#utility.yul\":14841:14854   */\n      lt\n        /* \"#utility.yul\":14833:14987   */\n      iszero\n      tag_262\n      jumpi\n        /* \"#utility.yul\":14921:14928   */\n      dup2\n        /* \"#utility.yul\":14915:14929   */\n      sload\n        /* \"#utility.yul\":14911:14912   */\n      dup2\n        /* \"#utility.yul\":14906:14909   */\n      dup10\n        /* \"#utility.yul\":14902:14913   */\n      add\n        /* \"#utility.yul\":14895:14930   */\n      mstore\n        /* \"#utility.yul\":14971:14972   */\n      0x01\n        /* \"#utility.yul\":14962:14969   */\n      dup3\n        /* \"#utility.yul\":14958:14973   */\n      add\n        /* \"#utility.yul\":14947:14973   */\n      swap2\n      pop\n        /* \"#utility.yul\":14869:14873   */\n      0x20\n        /* \"#utility.yul\":14866:14867   */\n      dup2\n        /* \"#utility.yul\":14862:14874   */\n      add\n        /* \"#utility.yul\":14857:14874   */\n      swap1\n      pop\n        /* \"#utility.yul\":14833:14987   */\n      jump(tag_260)\n    tag_262:\n        /* \"#utility.yul\":15016:15022   */\n      dup4\n        /* \"#utility.yul\":15011:15014   */\n      dup9\n        /* \"#utility.yul\":15007:15023   */\n      add\n        /* \"#utility.yul\":15000:15023   */\n      swap6\n      pop\n        /* \"#utility.yul\":14699:15033   */\n      pop\n      pop\n        /* \"#utility.yul\":14484:15033   */\n    tag_256:\n      pop\n        /* \"#utility.yul\":14272:15039   */\n      pop\n      pop\n        /* \"#utility.yul\":14165:15039   */\n      swap3\n      swap2\n      pop\n      pop\n      jump\t// out\n        /* \"#utility.yul\":15045:15314   */\n    tag_54:\n        /* \"#utility.yul\":15174:15177   */\n      0x00\n        /* \"#utility.yul\":15196:15288   */\n      tag_264\n        /* \"#utility.yul\":15284:15287   */\n      dup3\n        /* \"#utility.yul\":15275:15281   */\n      dup5\n        /* \"#utility.yul\":15196:15288   */\n      tag_103\n      jump\t// in\n    tag_264:\n        /* \"#utility.yul\":15189:15288   */\n      swap2\n      pop\n        /* \"#utility.yul\":15305:15308   */\n      dup2\n        /* \"#utility.yul\":15298:15308   */\n      swap1\n      pop\n        /* \"#utility.yul\":15045:15314   */\n      swap3\n      swap2\n      pop\n      pop\n      jump\t// out\n        /* \"#utility.yul\":15320:15500   */\n    tag_104:\n        /* \"#utility.yul\":15368:15445   */\n      0x4e487b7100000000000000000000000000000000000000000000000000000000\n        /* \"#utility.yul\":15365:15366   */\n      0x00\n        /* \"#utility.yul\":15358:15446   */\n      mstore\n        /* \"#utility.yul\":15465:15469   */\n      0x11\n        /* \"#utility.yul\":15462:15463   */\n      0x04\n        /* \"#utility.yul\":15455:15470   */\n      mstore\n        /* \"#utility.yul\":15489:15493   */\n      0x24\n        /* \"#utility.yul\":15486:15487   */\n      0x00\n        /* \"#utility.yul\":15479:15494   */\n      revert\n        /* \"#utility.yul\":15506:15739   */\n    tag_58:\n        /* \"#utility.yul\":15545:15548   */\n      0x00\n        /* \"#utility.yul\":15568:15592   */\n      tag_267\n        /* \"#utility.yul\":15586:15591   */\n      dup3\n        /* \"#utility.yul\":15568:15592   */\n      tag_91\n      jump\t// in\n    tag_267:\n        /* \"#utility.yul\":15559:15592   */\n      swap2\n      pop\n        /* \"#utility.yul\":15614:15680   */\n      0xffffffffffffffffffffffffffffffffffffffffffffffffffffffffffffffff\n        /* \"#utility.yul\":15607:15612   */\n      dup3\n        /* \"#utility.yul\":15604:15681   */\n      sub\n        /* \"#utility.yul\":15601:15704   */\n      tag_268\n      jumpi\n        /* \"#utility.yul\":15684:15702   */\n      tag_269\n      tag_104\n      jump\t// in\n    tag_269:\n        /* \"#utility.yul\":15601:15704   */\n    tag_268:\n        /* \"#utility.yul\":15731:15732   */\n      0x01\n        /* \"#utility.yul\":15724:15729   */\n      dup3\n        /* \"#utility.yul\":15720:15733   */\n      add\n        /* \"#utility.yul\":15713:15733   */\n      swap1\n      pop\n        /* \"#utility.yul\":15506:15739   */\n      swap2\n      swap1\n      pop\n      jump\t// out\n\n    auxdata: 0xa2646970667358221220a153415f3115f70c551f127209d2279833940b9722191070dd49e07665cca04564736f6c63430008110033\n}\n",
				"bytecode": {
					"linkReferences": {},
					"object": "608060405234801561001057600080fd5b50610cba806100206000396000f3fe608060405234801561001057600080fd5b50600436106100365760003560e01c80636505f8bd1461003b578063831c0eaf14610057575b600080fd5b61005560048036038101906100509190610581565b610087565b005b610071600480360381019061006c919061063c565b6101ab565b60405161007e919061076a565b60405180910390f35b61009084610311565b600260006101000a81548160ff021916908315150217905550600260009054906101000a900460ff166100f8576040517f08c379a00000000000000000000000000000000000000000000000000000000081526004016100ef906107e9565b60405180910390fd5b60006040518060600160405280858152602001848152602001838152509050806000866040516101289190610845565b9081526020016040518091039020600082015181600001908161014b9190610a72565b5060208201518160010190816101619190610a72565b50604082015181600201559050506001859080600181540180825580915050600190039060005260206000200160009091909190915090816101a39190610a72565b505050505050565b6101b36103d0565b6000826040516101c39190610845565b90815260200160405180910390206040518060600160405290816000820180546101ec9061088b565b80601f01602080910402602001604051908101604052809291908181526020018280546102189061088b565b80156102655780601f1061023a57610100808354040283529160200191610265565b820191906000526020600020905b81548152906001019060200180831161024857829003601f168201915b5050505050815260200160018201805461027e9061088b565b80601f01602080910402602001604051908101604052809291908181526020018280546102aa9061088b565b80156102f75780601f106102cc576101008083540402835291602001916102f7565b820191906000526020600020905b8154815290600101906020018083116102da57829003601f168201915b505050505081526020016002820154815250509050919050565b6000806001805490500361032857600190506103cb565b60005b6001805490508110156103c5576001818154811061034c5761034b610b44565b5b906000526020600020016040516020016103669190610bf6565b604051602081830303815290604052805190602001208360405160200161038d9190610845565b60405160208183030381529060405280519060200120036103b25760009150506103cb565b80806103bd90610c3c565b91505061032b565b50600190505b919050565b60405180606001604052806060815260200160608152602001600081525090565b6000604051905090565b600080fd5b600080fd5b600080fd5b600080fd5b6000601f19601f8301169050919050565b7f4e487b7100000000000000000000000000000000000000000000000000000000600052604160045260246000fd5b6104588261040f565b810181811067ffffffffffffffff8211171561047757610476610420565b5b80604052505050565b600061048a6103f1565b9050610496828261044f565b919050565b600067ffffffffffffffff8211156104b6576104b5610420565b5b6104bf8261040f565b9050602081019050919050565b82818337600083830152505050565b60006104ee6104e98461049b565b610480565b90508281526020810184848401111561050a5761050961040a565b5b6105158482856104cc565b509392505050565b600082601f83011261053257610531610405565b5b81356105428482602086016104db565b91505092915050565b6000819050919050565b61055e8161054b565b811461056957600080fd5b50565b60008135905061057b81610555565b92915050565b6000806000806080858703121561059b5761059a6103fb565b5b600085013567ffffffffffffffff8111156105b9576105b8610400565b5b6105c58782880161051d565b945050602085013567ffffffffffffffff8111156105e6576105e5610400565b5b6105f28782880161051d565b935050604085013567ffffffffffffffff81111561061357610612610400565b5b61061f8782880161051d565b92505060606106308782880161056c565b91505092959194509250565b600060208284031215610652576106516103fb565b5b600082013567ffffffffffffffff8111156106705761066f610400565b5b61067c8482850161051d565b91505092915050565b600081519050919050565b600082825260208201905092915050565b60005b838110156106bf5780820151818401526020810190506106a4565b60008484015250505050565b60006106d682610685565b6106e08185610690565b93506106f08185602086016106a1565b6106f98161040f565b840191505092915050565b61070d8161054b565b82525050565b6000606083016000830151848203600086015261073082826106cb565b9150506020830151848203602086015261074a82826106cb565b915050604083015161075f6040860182610704565b508091505092915050565b600060208201905081810360008301526107848184610713565b905092915050565b600082825260208201905092915050565b7f63706620657869737465206e6f2073697374656d610000000000000000000000600082015250565b60006107d360158361078c565b91506107de8261079d565b602082019050919050565b60006020820190508181036000830152610802816107c6565b9050919050565b600081905092915050565b600061081f82610685565b6108298185610809565b93506108398185602086016106a1565b80840191505092915050565b60006108518284610814565b915081905092915050565b7f4e487b7100000000000000000000000000000000000000000000000000000000600052602260045260246000fd5b600060028204905060018216806108a357607f821691505b6020821081036108b6576108b561085c565b5b50919050565b60008190508160005260206000209050919050565b60006020601f8301049050919050565b600082821b905092915050565b60006008830261091e7fffffffffffffffffffffffffffffffffffffffffffffffffffffffffffffffff826108e1565b61092886836108e1565b95508019841693508086168417925050509392505050565b6000819050919050565b6000819050919050565b600061096f61096a61096584610940565b61094a565b610940565b9050919050565b6000819050919050565b61098983610954565b61099d61099582610976565b8484546108ee565b825550505050565b600090565b6109b26109a5565b6109bd818484610980565b505050565b5b818110156109e1576109d66000826109aa565b6001810190506109c3565b5050565b601f821115610a26576109f7816108bc565b610a00846108d1565b81016020851015610a0f578190505b610a23610a1b856108d1565b8301826109c2565b50505b505050565b600082821c905092915050565b6000610a4960001984600802610a2b565b1980831691505092915050565b6000610a628383610a38565b9150826002028217905092915050565b610a7b82610685565b67ffffffffffffffff811115610a9457610a93610420565b5b610a9e825461088b565b610aa98282856109e5565b600060209050601f831160018114610adc5760008415610aca578287015190505b610ad48582610a56565b865550610b3c565b601f198416610aea866108bc565b60005b82811015610b1257848901518255600182019150602085019450602081019050610aed565b86831015610b2f5784890151610b2b601f891682610a38565b8355505b6001600288020188555050505b505050505050565b7f4e487b7100000000000000000000000000000000000000000000000000000000600052603260045260246000fd5b60008154610b808161088b565b610b8a8186610809565b94506001821660008114610ba55760018114610bba57610bed565b60ff1983168652811515820286019350610bed565b610bc3856108bc565b60005b83811015610be557815481890152600182019150602081019050610bc6565b838801955050505b50505092915050565b6000610c028284610b73565b915081905092915050565b7f4e487b7100000000000000000000000000000000000000000000000000000000600052601160045260246000fd5b6000610c4782610940565b91507fffffffffffffffffffffffffffffffffffffffffffffffffffffffffffffffff8203610c7957610c78610c0d565b5b60018201905091905056fea2646970667358221220a153415f3115f70c551f127209d2279833940b9722191070dd49e07665cca04564736f6c63430008110033",
					"opcodes": "PUSH1 0x80 PUSH1 0x40 MSTORE CALLVALUE DUP1 ISZERO PUSH2 0x10 JUMPI PUSH1 0x0 DUP1 REVERT JUMPDEST POP PUSH2 0xCBA DUP1 PUSH2 0x20 PUSH1 0x0 CODECOPY PUSH1 0x0 RETURN INVALID PUSH1 0x80 PUSH1 0x40 MSTORE CALLVALUE DUP1 ISZERO PUSH2 0x10 JUMPI PUSH1 0x0 DUP1 REVERT JUMPDEST POP PUSH1 0x4 CALLDATASIZE LT PUSH2 0x36 JUMPI PUSH1 0x0 CALLDATALOAD PUSH1 0xE0 SHR DUP1 PUSH4 0x6505F8BD EQ PUSH2 0x3B JUMPI DUP1 PUSH4 0x831C0EAF EQ PUSH2 0x57 JUMPI JUMPDEST PUSH1 0x0 DUP1 REVERT JUMPDEST PUSH2 0x55 PUSH1 0x4 DUP1 CALLDATASIZE SUB DUP2 ADD SWAP1 PUSH2 0x50 SWAP2 SWAP1 PUSH2 0x581 JUMP JUMPDEST PUSH2 0x87 JUMP JUMPDEST STOP JUMPDEST PUSH2 0x71 PUSH1 0x4 DUP1 CALLDATASIZE SUB DUP2 ADD SWAP1 PUSH2 0x6C SWAP2 SWAP1 PUSH2 0x63C JUMP JUMPDEST PUSH2 0x1AB JUMP JUMPDEST PUSH1 0x40 MLOAD PUSH2 0x7E SWAP2 SWAP1 PUSH2 0x76A JUMP JUMPDEST PUSH1 0x40 MLOAD DUP1 SWAP2 SUB SWAP1 RETURN JUMPDEST PUSH2 0x90 DUP5 PUSH2 0x311 JUMP JUMPDEST PUSH1 0x2 PUSH1 0x0 PUSH2 0x100 EXP DUP2 SLOAD DUP2 PUSH1 0xFF MUL NOT AND SWAP1 DUP4 ISZERO ISZERO MUL OR SWAP1 SSTORE POP PUSH1 0x2 PUSH1 0x0 SWAP1 SLOAD SWAP1 PUSH2 0x100 EXP SWAP1 DIV PUSH1 0xFF AND PUSH2 0xF8 JUMPI PUSH1 0x40 MLOAD PUSH32 0x8C379A000000000000000000000000000000000000000000000000000000000 DUP2 MSTORE PUSH1 0x4 ADD PUSH2 0xEF SWAP1 PUSH2 0x7E9 JUMP JUMPDEST PUSH1 0x40 MLOAD DUP1 SWAP2 SUB SWAP1 REVERT JUMPDEST PUSH1 0x0 PUSH1 0x40 MLOAD DUP1 PUSH1 0x60 ADD PUSH1 0x40 MSTORE DUP1 DUP6 DUP2 MSTORE PUSH1 0x20 ADD DUP5 DUP2 MSTORE PUSH1 0x20 ADD DUP4 DUP2 MSTORE POP SWAP1 POP DUP1 PUSH1 0x0 DUP7 PUSH1 0x40 MLOAD PUSH2 0x128 SWAP2 SWAP1 PUSH2 0x845 JUMP JUMPDEST SWAP1 DUP2 MSTORE PUSH1 0x20 ADD PUSH1 0x40 MLOAD DUP1 SWAP2 SUB SWAP1 KECCAK256 PUSH1 0x0 DUP3 ADD MLOAD DUP2 PUSH1 0x0 ADD SWAP1 DUP2 PUSH2 0x14B SWAP2 SWAP1 PUSH2 0xA72 JUMP JUMPDEST POP PUSH1 0x20 DUP3 ADD MLOAD DUP2 PUSH1 0x1 ADD SWAP1 DUP2 PUSH2 0x161 SWAP2 SWAP1 PUSH2 0xA72 JUMP JUMPDEST POP PUSH1 0x40 DUP3 ADD MLOAD DUP2 PUSH1 0x2 ADD SSTORE SWAP1 POP POP PUSH1 0x1 DUP6 SWAP1 DUP1 PUSH1 0x1 DUP2 SLOAD ADD DUP1 DUP3 SSTORE DUP1 SWAP2 POP POP PUSH1 0x1 SWAP1 SUB SWAP1 PUSH1 0x0 MSTORE PUSH1 0x20 PUSH1 0x0 KECCAK256 ADD PUSH1 0x0 SWAP1 SWAP2 SWAP1 SWAP2 SWAP1 SWAP2 POP SWAP1 DUP2 PUSH2 0x1A3 SWAP2 SWAP1 PUSH2 0xA72 JUMP JUMPDEST POP POP POP POP POP POP JUMP JUMPDEST PUSH2 0x1B3 PUSH2 0x3D0 JUMP JUMPDEST PUSH1 0x0 DUP3 PUSH1 0x40 MLOAD PUSH2 0x1C3 SWAP2 SWAP1 PUSH2 0x845 JUMP JUMPDEST SWAP1 DUP2 MSTORE PUSH1 0x20 ADD PUSH1 0x40 MLOAD DUP1 SWAP2 SUB SWAP1 KECCAK256 PUSH1 0x40 MLOAD DUP1 PUSH1 0x60 ADD PUSH1 0x40 MSTORE SWAP1 DUP2 PUSH1 0x0 DUP3 ADD DUP1 SLOAD PUSH2 0x1EC SWAP1 PUSH2 0x88B JUMP JUMPDEST DUP1 PUSH1 0x1F ADD PUSH1 0x20 DUP1 SWAP2 DIV MUL PUSH1 0x20 ADD PUSH1 0x40 MLOAD SWAP1 DUP2 ADD PUSH1 0x40 MSTORE DUP1 SWAP3 SWAP2 SWAP1 DUP2 DUP2 MSTORE PUSH1 0x20 ADD DUP3 DUP1 SLOAD PUSH2 0x218 SWAP1 PUSH2 0x88B JUMP JUMPDEST DUP1 ISZERO PUSH2 0x265 JUMPI DUP1 PUSH1 0x1F LT PUSH2 0x23A JUMPI PUSH2 0x100 DUP1 DUP4 SLOAD DIV MUL DUP4 MSTORE SWAP2 PUSH1 0x20 ADD SWAP2 PUSH2 0x265 JUMP JUMPDEST DUP3 ADD SWAP2 SWAP1 PUSH1 0x0 MSTORE PUSH1 0x20 PUSH1 0x0 KECCAK256 SWAP1 JUMPDEST DUP2 SLOAD DUP2 MSTORE SWAP1 PUSH1 0x1 ADD SWAP1 PUSH1 0x20 ADD DUP1 DUP4 GT PUSH2 0x248 JUMPI DUP3 SWAP1 SUB PUSH1 0x1F AND DUP3 ADD SWAP2 JUMPDEST POP POP POP POP POP DUP2 MSTORE PUSH1 0x20 ADD PUSH1 0x1 DUP3 ADD DUP1 SLOAD PUSH2 0x27E SWAP1 PUSH2 0x88B JUMP JUMPDEST DUP1 PUSH1 0x1F ADD PUSH1 0x20 DUP1 SWAP2 DIV MUL PUSH1 0x20 ADD PUSH1 0x40 MLOAD SWAP1 DUP2 ADD PUSH1 0x40 MSTORE DUP1 SWAP3 SWAP2 SWAP1 DUP2 DUP2 MSTORE PUSH1 0x20 ADD DUP3 DUP1 SLOAD PUSH2 0x2AA SWAP1 PUSH2 0x88B JUMP JUMPDEST DUP1 ISZERO PUSH2 0x2F7 JUMPI DUP1 PUSH1 0x1F LT PUSH2 0x2CC JUMPI PUSH2 0x100 DUP1 DUP4 SLOAD DIV MUL DUP4 MSTORE SWAP2 PUSH1 0x20 ADD SWAP2 PUSH2 0x2F7 JUMP JUMPDEST DUP3 ADD SWAP2 SWAP1 PUSH1 0x0 MSTORE PUSH1 0x20 PUSH1 0x0 KECCAK256 SWAP1 JUMPDEST DUP2 SLOAD DUP2 MSTORE SWAP1 PUSH1 0x1 ADD SWAP1 PUSH1 0x20 ADD DUP1 DUP4 GT PUSH2 0x2DA JUMPI DUP3 SWAP1 SUB PUSH1 0x1F AND DUP3 ADD SWAP2 JUMPDEST POP POP POP POP POP DUP2 MSTORE PUSH1 0x20 ADD PUSH1 0x2 DUP3 ADD SLOAD DUP2 MSTORE POP POP SWAP1 POP SWAP2 SWAP1 POP JUMP JUMPDEST PUSH1 0x0 DUP1 PUSH1 0x1 DUP1 SLOAD SWAP1 POP SUB PUSH2 0x328 JUMPI PUSH1 0x1 SWAP1 POP PUSH2 0x3CB JUMP JUMPDEST PUSH1 0x0 JUMPDEST PUSH1 0x1 DUP1 SLOAD SWAP1 POP DUP2 LT ISZERO PUSH2 0x3C5 JUMPI PUSH1 0x1 DUP2 DUP2 SLOAD DUP2 LT PUSH2 0x34C JUMPI PUSH2 0x34B PUSH2 0xB44 JUMP JUMPDEST JUMPDEST SWAP1 PUSH1 0x0 MSTORE PUSH1 0x20 PUSH1 0x0 KECCAK256 ADD PUSH1 0x40 MLOAD PUSH1 0x20 ADD PUSH2 0x366 SWAP2 SWAP1 PUSH2 0xBF6 JUMP JUMPDEST PUSH1 0x40 MLOAD PUSH1 0x20 DUP2 DUP4 SUB SUB DUP2 MSTORE SWAP1 PUSH1 0x40 MSTORE DUP1 MLOAD SWAP1 PUSH1 0x20 ADD KECCAK256 DUP4 PUSH1 0x40 MLOAD PUSH1 0x20 ADD PUSH2 0x38D SWAP2 SWAP1 PUSH2 0x845 JUMP JUMPDEST PUSH1 0x40 MLOAD PUSH1 0x20 DUP2 DUP4 SUB SUB DUP2 MSTORE SWAP1 PUSH1 0x40 MSTORE DUP1 MLOAD SWAP1 PUSH1 0x20 ADD KECCAK256 SUB PUSH2 0x3B2 JUMPI PUSH1 0x0 SWAP2 POP POP PUSH2 0x3CB JUMP JUMPDEST DUP1 DUP1 PUSH2 0x3BD SWAP1 PUSH2 0xC3C JUMP JUMPDEST SWAP2 POP POP PUSH2 0x32B JUMP JUMPDEST POP PUSH1 0x1 SWAP1 POP JUMPDEST SWAP2 SWAP1 POP JUMP JUMPDEST PUSH1 0x40 MLOAD DUP1 PUSH1 0x60 ADD PUSH1 0x40 MSTORE DUP1 PUSH1 0x60 DUP2 MSTORE PUSH1 0x20 ADD PUSH1 0x60 DUP2 MSTORE PUSH1 0x20 ADD PUSH1 0x0 DUP2 MSTORE POP SWAP1 JUMP JUMPDEST PUSH1 0x0 PUSH1 0x40 MLOAD SWAP1 POP SWAP1 JUMP JUMPDEST PUSH1 0x0 DUP1 REVERT JUMPDEST PUSH1 0x0 DUP1 REVERT JUMPDEST PUSH1 0x0 DUP1 REVERT JUMPDEST PUSH1 0x0 DUP1 REVERT JUMPDEST PUSH1 0x0 PUSH1 0x1F NOT PUSH1 0x1F DUP4 ADD AND SWAP1 POP SWAP2 SWAP1 POP JUMP JUMPDEST PUSH32 0x4E487B7100000000000000000000000000000000000000000000000000000000 PUSH1 0x0 MSTORE PUSH1 0x41 PUSH1 0x4 MSTORE PUSH1 0x24 PUSH1 0x0 REVERT JUMPDEST PUSH2 0x458 DUP3 PUSH2 0x40F JUMP JUMPDEST DUP2 ADD DUP2 DUP2 LT PUSH8 0xFFFFFFFFFFFFFFFF DUP3 GT OR ISZERO PUSH2 0x477 JUMPI PUSH2 0x476 PUSH2 0x420 JUMP JUMPDEST JUMPDEST DUP1 PUSH1 0x40 MSTORE POP POP POP JUMP JUMPDEST PUSH1 0x0 PUSH2 0x48A PUSH2 0x3F1 JUMP JUMPDEST SWAP1 POP PUSH2 0x496 DUP3 DUP3 PUSH2 0x44F JUMP JUMPDEST SWAP2 SWAP1 POP JUMP JUMPDEST PUSH1 0x0 PUSH8 0xFFFFFFFFFFFFFFFF DUP3 GT ISZERO PUSH2 0x4B6 JUMPI PUSH2 0x4B5 PUSH2 0x420 JUMP JUMPDEST JUMPDEST PUSH2 0x4BF DUP3 PUSH2 0x40F JUMP JUMPDEST SWAP1 POP PUSH1 0x20 DUP2 ADD SWAP1 POP SWAP2 SWAP1 POP JUMP JUMPDEST DUP3 DUP2 DUP4 CALLDATACOPY PUSH1 0x0 DUP4 DUP4 ADD MSTORE POP POP POP JUMP JUMPDEST PUSH1 0x0 PUSH2 0x4EE PUSH2 0x4E9 DUP5 PUSH2 0x49B JUMP JUMPDEST PUSH2 0x480 JUMP JUMPDEST SWAP1 POP DUP3 DUP2 MSTORE PUSH1 0x20 DUP2 ADD DUP5 DUP5 DUP5 ADD GT ISZERO PUSH2 0x50A JUMPI PUSH2 0x509 PUSH2 0x40A JUMP JUMPDEST JUMPDEST PUSH2 0x515 DUP5 DUP3 DUP6 PUSH2 0x4CC JUMP JUMPDEST POP SWAP4 SWAP3 POP POP POP JUMP JUMPDEST PUSH1 0x0 DUP3 PUSH1 0x1F DUP4 ADD SLT PUSH2 0x532 JUMPI PUSH2 0x531 PUSH2 0x405 JUMP JUMPDEST JUMPDEST DUP2 CALLDATALOAD PUSH2 0x542 DUP5 DUP3 PUSH1 0x20 DUP7 ADD PUSH2 0x4DB JUMP JUMPDEST SWAP2 POP POP SWAP3 SWAP2 POP POP JUMP JUMPDEST PUSH1 0x0 DUP2 SWAP1 POP SWAP2 SWAP1 POP JUMP JUMPDEST PUSH2 0x55E DUP2 PUSH2 0x54B JUMP JUMPDEST DUP2 EQ PUSH2 0x569 JUMPI PUSH1 0x0 DUP1 REVERT JUMPDEST POP JUMP JUMPDEST PUSH1 0x0 DUP2 CALLDATALOAD SWAP1 POP PUSH2 0x57B DUP2 PUSH2 0x555 JUMP JUMPDEST SWAP3 SWAP2 POP POP JUMP JUMPDEST PUSH1 0x0 DUP1 PUSH1 0x0 DUP1 PUSH1 0x80 DUP6 DUP8 SUB SLT ISZERO PUSH2 0x59B JUMPI PUSH2 0x59A PUSH2 0x3FB JUMP JUMPDEST JUMPDEST PUSH1 0x0 DUP6 ADD CALLDATALOAD PUSH8 0xFFFFFFFFFFFFFFFF DUP2 GT ISZERO PUSH2 0x5B9 JUMPI PUSH2 0x5B8 PUSH2 0x400 JUMP JUMPDEST JUMPDEST PUSH2 0x5C5 DUP8 DUP3 DUP9 ADD PUSH2 0x51D JUMP JUMPDEST SWAP5 POP POP PUSH1 0x20 DUP6 ADD CALLDATALOAD PUSH8 0xFFFFFFFFFFFFFFFF DUP2 GT ISZERO PUSH2 0x5E6 JUMPI PUSH2 0x5E5 PUSH2 0x400 JUMP JUMPDEST JUMPDEST PUSH2 0x5F2 DUP8 DUP3 DUP9 ADD PUSH2 0x51D JUMP JUMPDEST SWAP4 POP POP PUSH1 0x40 DUP6 ADD CALLDATALOAD PUSH8 0xFFFFFFFFFFFFFFFF DUP2 GT ISZERO PUSH2 0x613 JUMPI PUSH2 0x612 PUSH2 0x400 JUMP JUMPDEST JUMPDEST PUSH2 0x61F DUP8 DUP3 DUP9 ADD PUSH2 0x51D JUMP JUMPDEST SWAP3 POP POP PUSH1 0x60 PUSH2 0x630 DUP8 DUP3 DUP9 ADD PUSH2 0x56C JUMP JUMPDEST SWAP2 POP POP SWAP3 SWAP6 SWAP2 SWAP5 POP SWAP3 POP JUMP JUMPDEST PUSH1 0x0 PUSH1 0x20 DUP3 DUP5 SUB SLT ISZERO PUSH2 0x652 JUMPI PUSH2 0x651 PUSH2 0x3FB JUMP JUMPDEST JUMPDEST PUSH1 0x0 DUP3 ADD CALLDATALOAD PUSH8 0xFFFFFFFFFFFFFFFF DUP2 GT ISZERO PUSH2 0x670 JUMPI PUSH2 0x66F PUSH2 0x400 JUMP JUMPDEST JUMPDEST PUSH2 0x67C DUP5 DUP3 DUP6 ADD PUSH2 0x51D JUMP JUMPDEST SWAP2 POP POP SWAP3 SWAP2 POP POP JUMP JUMPDEST PUSH1 0x0 DUP2 MLOAD SWAP1 POP SWAP2 SWAP1 POP JUMP JUMPDEST PUSH1 0x0 DUP3 DUP3 MSTORE PUSH1 0x20 DUP3 ADD SWAP1 POP SWAP3 SWAP2 POP POP JUMP JUMPDEST PUSH1 0x0 JUMPDEST DUP4 DUP2 LT ISZERO PUSH2 0x6BF JUMPI DUP1 DUP3 ADD MLOAD DUP2 DUP5 ADD MSTORE PUSH1 0x20 DUP2 ADD SWAP1 POP PUSH2 0x6A4 JUMP JUMPDEST PUSH1 0x0 DUP5 DUP5 ADD MSTORE POP POP POP POP JUMP JUMPDEST PUSH1 0x0 PUSH2 0x6D6 DUP3 PUSH2 0x685 JUMP JUMPDEST PUSH2 0x6E0 DUP2 DUP6 PUSH2 0x690 JUMP JUMPDEST SWAP4 POP PUSH2 0x6F0 DUP2 DUP6 PUSH1 0x20 DUP7 ADD PUSH2 0x6A1 JUMP JUMPDEST PUSH2 0x6F9 DUP2 PUSH2 0x40F JUMP JUMPDEST DUP5 ADD SWAP2 POP POP SWAP3 SWAP2 POP POP JUMP JUMPDEST PUSH2 0x70D DUP2 PUSH2 0x54B JUMP JUMPDEST DUP3 MSTORE POP POP JUMP JUMPDEST PUSH1 0x0 PUSH1 0x60 DUP4 ADD PUSH1 0x0 DUP4 ADD MLOAD DUP5 DUP3 SUB PUSH1 0x0 DUP7 ADD MSTORE PUSH2 0x730 DUP3 DUP3 PUSH2 0x6CB JUMP JUMPDEST SWAP2 POP POP PUSH1 0x20 DUP4 ADD MLOAD DUP5 DUP3 SUB PUSH1 0x20 DUP7 ADD MSTORE PUSH2 0x74A DUP3 DUP3 PUSH2 0x6CB JUMP JUMPDEST SWAP2 POP POP PUSH1 0x40 DUP4 ADD MLOAD PUSH2 0x75F PUSH1 0x40 DUP7 ADD DUP3 PUSH2 0x704 JUMP JUMPDEST POP DUP1 SWAP2 POP POP SWAP3 SWAP2 POP POP JUMP JUMPDEST PUSH1 0x0 PUSH1 0x20 DUP3 ADD SWAP1 POP DUP2 DUP2 SUB PUSH1 0x0 DUP4 ADD MSTORE PUSH2 0x784 DUP2 DUP5 PUSH2 0x713 JUMP JUMPDEST SWAP1 POP SWAP3 SWAP2 POP POP JUMP JUMPDEST PUSH1 0x0 DUP3 DUP3 MSTORE PUSH1 0x20 DUP3 ADD SWAP1 POP SWAP3 SWAP2 POP POP JUMP JUMPDEST PUSH32 0x63706620657869737465206E6F2073697374656D610000000000000000000000 PUSH1 0x0 DUP3 ADD MSTORE POP JUMP JUMPDEST PUSH1 0x0 PUSH2 0x7D3 PUSH1 0x15 DUP4 PUSH2 0x78C JUMP JUMPDEST SWAP2 POP PUSH2 0x7DE DUP3 PUSH2 0x79D JUMP JUMPDEST PUSH1 0x20 DUP3 ADD SWAP1 POP SWAP2 SWAP1 POP JUMP JUMPDEST PUSH1 0x0 PUSH1 0x20 DUP3 ADD SWAP1 POP DUP2 DUP2 SUB PUSH1 0x0 DUP4 ADD MSTORE PUSH2 0x802 DUP2 PUSH2 0x7C6 JUMP JUMPDEST SWAP1 POP SWAP2 SWAP1 POP JUMP JUMPDEST PUSH1 0x0 DUP2 SWAP1 POP SWAP3 SWAP2 POP POP JUMP JUMPDEST PUSH1 0x0 PUSH2 0x81F DUP3 PUSH2 0x685 JUMP JUMPDEST PUSH2 0x829 DUP2 DUP6 PUSH2 0x809 JUMP JUMPDEST SWAP4 POP PUSH2 0x839 DUP2 DUP6 PUSH1 0x20 DUP7 ADD PUSH2 0x6A1 JUMP JUMPDEST DUP1 DUP5 ADD SWAP2 POP POP SWAP3 SWAP2 POP POP JUMP JUMPDEST PUSH1 0x0 PUSH2 0x851 DUP3 DUP5 PUSH2 0x814 JUMP JUMPDEST SWAP2 POP DUP2 SWAP1 POP SWAP3 SWAP2 POP POP JUMP JUMPDEST PUSH32 0x4E487B7100000000000000000000000000000000000000000000000000000000 PUSH1 0x0 MSTORE PUSH1 0x22 PUSH1 0x4 MSTORE PUSH1 0x24 PUSH1 0x0 REVERT JUMPDEST PUSH1 0x0 PUSH1 0x2 DUP3 DIV SWAP1 POP PUSH1 0x1 DUP3 AND DUP1 PUSH2 0x8A3 JUMPI PUSH1 0x7F DUP3 AND SWAP2 POP JUMPDEST PUSH1 0x20 DUP3 LT DUP2 SUB PUSH2 0x8B6 JUMPI PUSH2 0x8B5 PUSH2 0x85C JUMP JUMPDEST JUMPDEST POP SWAP2 SWAP1 POP JUMP JUMPDEST PUSH1 0x0 DUP2 SWAP1 POP DUP2 PUSH1 0x0 MSTORE PUSH1 0x20 PUSH1 0x0 KECCAK256 SWAP1 POP SWAP2 SWAP1 POP JUMP JUMPDEST PUSH1 0x0 PUSH1 0x20 PUSH1 0x1F DUP4 ADD DIV SWAP1 POP SWAP2 SWAP1 POP JUMP JUMPDEST PUSH1 0x0 DUP3 DUP3 SHL SWAP1 POP SWAP3 SWAP2 POP POP JUMP JUMPDEST PUSH1 0x0 PUSH1 0x8 DUP4 MUL PUSH2 0x91E PUSH32 0xFFFFFFFFFFFFFFFFFFFFFFFFFFFFFFFFFFFFFFFFFFFFFFFFFFFFFFFFFFFFFFFF DUP3 PUSH2 0x8E1 JUMP JUMPDEST PUSH2 0x928 DUP7 DUP4 PUSH2 0x8E1 JUMP JUMPDEST SWAP6 POP DUP1 NOT DUP5 AND SWAP4 POP DUP1 DUP7 AND DUP5 OR SWAP3 POP POP POP SWAP4 SWAP3 POP POP POP JUMP JUMPDEST PUSH1 0x0 DUP2 SWAP1 POP SWAP2 SWAP1 POP JUMP JUMPDEST PUSH1 0x0 DUP2 SWAP1 POP SWAP2 SWAP1 POP JUMP JUMPDEST PUSH1 0x0 PUSH2 0x96F PUSH2 0x96A PUSH2 0x965 DUP5 PUSH2 0x940 JUMP JUMPDEST PUSH2 0x94A JUMP JUMPDEST PUSH2 0x940 JUMP JUMPDEST SWAP1 POP SWAP2 SWAP1 POP JUMP JUMPDEST PUSH1 0x0 DUP2 SWAP1 POP SWAP2 SWAP1 POP JUMP JUMPDEST PUSH2 0x989 DUP4 PUSH2 0x954 JUMP JUMPDEST PUSH2 0x99D PUSH2 0x995 DUP3 PUSH2 0x976 JUMP JUMPDEST DUP5 DUP5 SLOAD PUSH2 0x8EE JUMP JUMPDEST DUP3 SSTORE POP POP POP POP JUMP JUMPDEST PUSH1 0x0 SWAP1 JUMP JUMPDEST PUSH2 0x9B2 PUSH2 0x9A5 JUMP JUMPDEST PUSH2 0x9BD DUP2 DUP5 DUP5 PUSH2 0x980 JUMP JUMPDEST POP POP POP JUMP JUMPDEST JUMPDEST DUP2 DUP2 LT ISZERO PUSH2 0x9E1 JUMPI PUSH2 0x9D6 PUSH1 0x0 DUP3 PUSH2 0x9AA JUMP JUMPDEST PUSH1 0x1 DUP2 ADD SWAP1 POP PUSH2 0x9C3 JUMP JUMPDEST POP POP JUMP JUMPDEST PUSH1 0x1F DUP3 GT ISZERO PUSH2 0xA26 JUMPI PUSH2 0x9F7 DUP2 PUSH2 0x8BC JUMP JUMPDEST PUSH2 0xA00 DUP5 PUSH2 0x8D1 JUMP JUMPDEST DUP2 ADD PUSH1 0x20 DUP6 LT ISZERO PUSH2 0xA0F JUMPI DUP2 SWAP1 POP JUMPDEST PUSH2 0xA23 PUSH2 0xA1B DUP6 PUSH2 0x8D1 JUMP JUMPDEST DUP4 ADD DUP3 PUSH2 0x9C2 JUMP JUMPDEST POP POP JUMPDEST POP POP POP JUMP JUMPDEST PUSH1 0x0 DUP3 DUP3 SHR SWAP1 POP SWAP3 SWAP2 POP POP JUMP JUMPDEST PUSH1 0x0 PUSH2 0xA49 PUSH1 0x0 NOT DUP5 PUSH1 0x8 MUL PUSH2 0xA2B JUMP JUMPDEST NOT DUP1 DUP4 AND SWAP2 POP POP SWAP3 SWAP2 POP POP JUMP JUMPDEST PUSH1 0x0 PUSH2 0xA62 DUP4 DUP4 PUSH2 0xA38 JUMP JUMPDEST SWAP2 POP DUP3 PUSH1 0x2 MUL DUP3 OR SWAP1 POP SWAP3 SWAP2 POP POP JUMP JUMPDEST PUSH2 0xA7B DUP3 PUSH2 0x685 JUMP JUMPDEST PUSH8 0xFFFFFFFFFFFFFFFF DUP2 GT ISZERO PUSH2 0xA94 JUMPI PUSH2 0xA93 PUSH2 0x420 JUMP JUMPDEST JUMPDEST PUSH2 0xA9E DUP3 SLOAD PUSH2 0x88B JUMP JUMPDEST PUSH2 0xAA9 DUP3 DUP3 DUP6 PUSH2 0x9E5 JUMP JUMPDEST PUSH1 0x0 PUSH1 0x20 SWAP1 POP PUSH1 0x1F DUP4 GT PUSH1 0x1 DUP2 EQ PUSH2 0xADC JUMPI PUSH1 0x0 DUP5 ISZERO PUSH2 0xACA JUMPI DUP3 DUP8 ADD MLOAD SWAP1 POP JUMPDEST PUSH2 0xAD4 DUP6 DUP3 PUSH2 0xA56 JUMP JUMPDEST DUP7 SSTORE POP PUSH2 0xB3C JUMP JUMPDEST PUSH1 0x1F NOT DUP5 AND PUSH2 0xAEA DUP7 PUSH2 0x8BC JUMP JUMPDEST PUSH1 0x0 JUMPDEST DUP3 DUP2 LT ISZERO PUSH2 0xB12 JUMPI DUP5 DUP10 ADD MLOAD DUP3 SSTORE PUSH1 0x1 DUP3 ADD SWAP2 POP PUSH1 0x20 DUP6 ADD SWAP5 POP PUSH1 0x20 DUP2 ADD SWAP1 POP PUSH2 0xAED JUMP JUMPDEST DUP7 DUP4 LT ISZERO PUSH2 0xB2F JUMPI DUP5 DUP10 ADD MLOAD PUSH2 0xB2B PUSH1 0x1F DUP10 AND DUP3 PUSH2 0xA38 JUMP JUMPDEST DUP4 SSTORE POP JUMPDEST PUSH1 0x1 PUSH1 0x2 DUP9 MUL ADD DUP9 SSTORE POP POP POP JUMPDEST POP POP POP POP POP POP JUMP JUMPDEST PUSH32 0x4E487B7100000000000000000000000000000000000000000000000000000000 PUSH1 0x0 MSTORE PUSH1 0x32 PUSH1 0x4 MSTORE PUSH1 0x24 PUSH1 0x0 REVERT JUMPDEST PUSH1 0x0 DUP2 SLOAD PUSH2 0xB80 DUP2 PUSH2 0x88B JUMP JUMPDEST PUSH2 0xB8A DUP2 DUP7 PUSH2 0x809 JUMP JUMPDEST SWAP5 POP PUSH1 0x1 DUP3 AND PUSH1 0x0 DUP2 EQ PUSH2 0xBA5 JUMPI PUSH1 0x1 DUP2 EQ PUSH2 0xBBA JUMPI PUSH2 0xBED JUMP JUMPDEST PUSH1 0xFF NOT DUP4 AND DUP7 MSTORE DUP2 ISZERO ISZERO DUP3 MUL DUP7 ADD SWAP4 POP PUSH2 0xBED JUMP JUMPDEST PUSH2 0xBC3 DUP6 PUSH2 0x8BC JUMP JUMPDEST PUSH1 0x0 JUMPDEST DUP4 DUP2 LT ISZERO PUSH2 0xBE5 JUMPI DUP2 SLOAD DUP2 DUP10 ADD MSTORE PUSH1 0x1 DUP3 ADD SWAP2 POP PUSH1 0x20 DUP2 ADD SWAP1 POP PUSH2 0xBC6 JUMP JUMPDEST DUP4 DUP9 ADD SWAP6 POP POP POP JUMPDEST POP POP POP SWAP3 SWAP2 POP POP JUMP JUMPDEST PUSH1 0x0 PUSH2 0xC02 DUP3 DUP5 PUSH2 0xB73 JUMP JUMPDEST SWAP2 POP DUP2 SWAP1 POP SWAP3 SWAP2 POP POP JUMP JUMPDEST PUSH32 0x4E487B7100000000000000000000000000000000000000000000000000000000 PUSH1 0x0 MSTORE PUSH1 0x11 PUSH1 0x4 MSTORE PUSH1 0x24 PUSH1 0x0 REVERT JUMPDEST PUSH1 0x0 PUSH2 0xC47 DUP3 PUSH2 0x940 JUMP JUMPDEST SWAP2 POP PUSH32 0xFFFFFFFFFFFFFFFFFFFFFFFFFFFFFFFFFFFFFFFFFFFFFFFFFFFFFFFFFFFFFFFF DUP3 SUB PUSH2 0xC79 JUMPI PUSH2 0xC78 PUSH2 0xC0D JUMP JUMPDEST JUMPDEST PUSH1 0x1 DUP3 ADD SWAP1 POP SWAP2 SWAP1 POP JUMP INVALID LOG2 PUSH5 0x6970667358 0x22 SLT KECCAK256 LOG1 MSTORE8 COINBASE 0x5F BALANCE ISZERO 0xF7 0xC SSTORE 0x1F SLT PUSH19 0x9D2279833940B9722191070DD49E07665CCA0 GASLIMIT PUSH5 0x736F6C6343 STOP ADDMOD GT STOP CALLER "
				},
				"gasEstimates": {
					"creation": {
						"codeDepositCost": "651600",
						"executionCost": "683",
						"totalCost": "652283"
					},
					"external": {
						"adicionarNovoCadastro(string,string,string,int256)": "infinite",
						"mostrarDados(string)": "infinite"
					},
					"internal": {
						"verificarCFP(string memory)": "infinite"
					}
				},
				"methodIdentifiers": {
					"adicionarNovoCadastro(string,string,string,int256)": "6505f8bd",
					"mostrarDados(string)": "831c0eaf"
				}
			},
			"storageLayout": {
				"storage": [
					{
						"astId": 13,
						"contract": "armazenarDados.sol:armazenarDados",
						"label": "meuCadastro",
						"offset": 0,
						"slot": "0",
						"type": "t_mapping(t_string_memory_ptr,t_struct(tiposDados)8_storage)"
					},
					{
						"astId": 16,
						"contract": "armazenarDados.sol:armazenarDados",
						"label": "cpfs",
						"offset": 0,
						"slot": "1",
						"type": "t_array(t_string_storage)dyn_storage"
					},
					{
						"astId": 18,
						"contract": "armazenarDados.sol:armazenarDados",
						"label": "novoCPF",
						"offset": 0,
						"slot": "2",
						"type": "t_bool"
					}
				],
				"types": {
					"t_array(t_string_storage)dyn_storage": {
						"base": "t_string_storage",
						"encoding": "dynamic_array",
						"label": "string[]",
						"numberOfBytes": "32"
					},
					"t_bool": {
						"encoding": "inplace",
						"label": "bool",
						"numberOfBytes": "1"
					},
					"t_int256": {
						"encoding": "inplace",
						"label": "int256",
						"numberOfBytes": "32"
					},
					"t_mapping(t_string_memory_ptr,t_struct(tiposDados)8_storage)": {
						"encoding": "mapping",
						"key": "t_string_memory_ptr",
						"label": "mapping(string => struct armazenarDados.tiposDados)",
						"numberOfBytes": "32",
						"value": "t_struct(tiposDados)8_storage"
					},
					"t_string_memory_ptr": {
						"encoding": "bytes",
						"label": "string",
						"numberOfBytes": "32"
					},
					"t_string_storage": {
						"encoding": "bytes",
						"label": "string",
						"numberOfBytes": "32"
					},
					"t_struct(tiposDados)8_storage": {
						"encoding": "inplace",
						"label": "struct armazenarDados.tiposDados",
						"members": [
							{
								"astId": 3,
								"contract": "armazenarDados.sol:armazenarDados",
								"label": "nome",
								"offset": 0,
								"slot": "0",
								"type": "t_string_storage"
							},
							{
								"astId": 5,
								"contract": "armazenarDados.sol:armazenarDados",
								"label": "endereco",
								"offset": 0,
								"slot": "1",
								"type": "t_string_storage"
							},
							{
								"astId": 7,
								"contract": "armazenarDados.sol:armazenarDados",
								"label": "idade",
								"offset": 0,
								"slot": "2",
								"type": "t_int256"
							}
						],
						"numberOfBytes": "96"
					}
				}
			},
			"userdoc": {
				"kind": "user",
				"methods": {},
				"version": 1
			}
		}
	}
}