{
	"data": {
		"bytecode": {
			"linkReferences": {},
			"object": "608060405234801561001057600080fd5b50610898806100206000396000f3fe608060405234801561001057600080fd5b50600436106100365760003560e01c8063831c0eaf1461003b578063c92ba4221461006b575b600080fd5b61005560048036038101906100509190610330565b610087565b604051610062919061044e565b60405180910390f35b6100856004803603810190610080919061049c565b61015b565b005b61008f6101bc565b60008260405161009f9190610563565b90815260200160405180910390206040518060400160405290816000820180546100c8906105a9565b80601f01602080910402602001604051908101604052809291908181526020018280546100f4906105a9565b80156101415780601f1061011657610100808354040283529160200191610141565b820191906000526020600020905b81548152906001019060200180831161012457829003601f168201915b505050505081526020016001820154815250509050919050565b60006040518060400160405280848152602001838152509050806000856040516101859190610563565b908152602001604051809103902060008201518160000190816101a89190610790565b506020820151816001015590505050505050565b604051806040016040528060608152602001600081525090565b6000604051905090565b600080fd5b600080fd5b600080fd5b600080fd5b6000601f19601f8301169050919050565b7f4e487b7100000000000000000000000000000000000000000000000000000000600052604160045260246000fd5b61023d826101f4565b810181811067ffffffffffffffff8211171561025c5761025b610205565b5b80604052505050565b600061026f6101d6565b905061027b8282610234565b919050565b600067ffffffffffffffff82111561029b5761029a610205565b5b6102a4826101f4565b9050602081019050919050565b82818337600083830152505050565b60006102d36102ce84610280565b610265565b9050828152602081018484840111156102ef576102ee6101ef565b5b6102fa8482856102b1565b509392505050565b600082601f830112610317576103166101ea565b5b81356103278482602086016102c0565b91505092915050565b600060208284031215610346576103456101e0565b5b600082013567ffffffffffffffff811115610364576103636101e5565b5b61037084828501610302565b91505092915050565b600081519050919050565b600082825260208201905092915050565b60005b838110156103b3578082015181840152602081019050610398565b60008484015250505050565b60006103ca82610379565b6103d48185610384565b93506103e4818560208601610395565b6103ed816101f4565b840191505092915050565b6000819050919050565b61040b816103f8565b82525050565b6000604083016000830151848203600086015261042e82826103bf565b91505060208301516104436020860182610402565b508091505092915050565b600060208201905081810360008301526104688184610411565b905092915050565b610479816103f8565b811461048457600080fd5b50565b60008135905061049681610470565b92915050565b6000806000606084860312156104b5576104b46101e0565b5b600084013567ffffffffffffffff8111156104d3576104d26101e5565b5b6104df86828701610302565b935050602084013567ffffffffffffffff811115610500576104ff6101e5565b5b61050c86828701610302565b925050604061051d86828701610487565b9150509250925092565b600081905092915050565b600061053d82610379565b6105478185610527565b9350610557818560208601610395565b80840191505092915050565b600061056f8284610532565b915081905092915050565b7f4e487b7100000000000000000000000000000000000000000000000000000000600052602260045260246000fd5b600060028204905060018216806105c157607f821691505b6020821081036105d4576105d361057a565b5b50919050565b60008190508160005260206000209050919050565b60006020601f8301049050919050565b600082821b905092915050565b60006008830261063c7fffffffffffffffffffffffffffffffffffffffffffffffffffffffffffffffff826105ff565b61064686836105ff565b95508019841693508086168417925050509392505050565b6000819050919050565b6000819050919050565b600061068d6106886106838461065e565b610668565b61065e565b9050919050565b6000819050919050565b6106a783610672565b6106bb6106b382610694565b84845461060c565b825550505050565b600090565b6106d06106c3565b6106db81848461069e565b505050565b5b818110156106ff576106f46000826106c8565b6001810190506106e1565b5050565b601f82111561074457610715816105da565b61071e846105ef565b8101602085101561072d578190505b610741610739856105ef565b8301826106e0565b50505b505050565b600082821c905092915050565b600061076760001984600802610749565b1980831691505092915050565b60006107808383610756565b9150826002028217905092915050565b61079982610379565b67ffffffffffffffff8111156107b2576107b1610205565b5b6107bc82546105a9565b6107c7828285610703565b600060209050601f8311600181146107fa57600084156107e8578287015190505b6107f28582610774565b86555061085a565b601f198416610808866105da565b60005b828110156108305784890151825560018201915060208501945060208101905061080b565b8683101561084d5784890151610849601f891682610756565b8355505b6001600288020188555050505b50505050505056fea2646970667358221220cdb2a60a06f6d2a5065b2a08f23e2ada0391534d30672aa9a99a5c16d1643a2764736f6c63430008110033",
			"opcodes": "PUSH1 0x80 PUSH1 0x40 MSTORE CALLVALUE DUP1 ISZERO PUSH2 0x10 JUMPI PUSH1 0x0 DUP1 REVERT JUMPDEST POP PUSH2 0x898 DUP1 PUSH2 0x20 PUSH1 0x0 CODECOPY PUSH1 0x0 RETURN INVALID PUSH1 0x80 PUSH1 0x40 MSTORE CALLVALUE DUP1 ISZERO PUSH2 0x10 JUMPI PUSH1 0x0 DUP1 REVERT JUMPDEST POP PUSH1 0x4 CALLDATASIZE LT PUSH2 0x36 JUMPI PUSH1 0x0 CALLDATALOAD PUSH1 0xE0 SHR DUP1 PUSH4 0x831C0EAF EQ PUSH2 0x3B JUMPI DUP1 PUSH4 0xC92BA422 EQ PUSH2 0x6B JUMPI JUMPDEST PUSH1 0x0 DUP1 REVERT JUMPDEST PUSH2 0x55 PUSH1 0x4 DUP1 CALLDATASIZE SUB DUP2 ADD SWAP1 PUSH2 0x50 SWAP2 SWAP1 PUSH2 0x330 JUMP JUMPDEST PUSH2 0x87 JUMP JUMPDEST PUSH1 0x40 MLOAD PUSH2 0x62 SWAP2 SWAP1 PUSH2 0x44E JUMP JUMPDEST PUSH1 0x40 MLOAD DUP1 SWAP2 SUB SWAP1 RETURN JUMPDEST PUSH2 0x85 PUSH1 0x4 DUP1 CALLDATASIZE SUB DUP2 ADD SWAP1 PUSH2 0x80 SWAP2 SWAP1 PUSH2 0x49C JUMP JUMPDEST PUSH2 0x15B JUMP JUMPDEST STOP JUMPDEST PUSH2 0x8F PUSH2 0x1BC JUMP JUMPDEST PUSH1 0x0 DUP3 PUSH1 0x40 MLOAD PUSH2 0x9F SWAP2 SWAP1 PUSH2 0x563 JUMP JUMPDEST SWAP1 DUP2 MSTORE PUSH1 0x20 ADD PUSH1 0x40 MLOAD DUP1 SWAP2 SUB SWAP1 KECCAK256 PUSH1 0x40 MLOAD DUP1 PUSH1 0x40 ADD PUSH1 0x40 MSTORE SWAP1 DUP2 PUSH1 0x0 DUP3 ADD DUP1 SLOAD PUSH2 0xC8 SWAP1 PUSH2 0x5A9 JUMP JUMPDEST DUP1 PUSH1 0x1F ADD PUSH1 0x20 DUP1 SWAP2 DIV MUL PUSH1 0x20 ADD PUSH1 0x40 MLOAD SWAP1 DUP2 ADD PUSH1 0x40 MSTORE DUP1 SWAP3 SWAP2 SWAP1 DUP2 DUP2 MSTORE PUSH1 0x20 ADD DUP3 DUP1 SLOAD PUSH2 0xF4 SWAP1 PUSH2 0x5A9 JUMP JUMPDEST DUP1 ISZERO PUSH2 0x141 JUMPI DUP1 PUSH1 0x1F LT PUSH2 0x116 JUMPI PUSH2 0x100 DUP1 DUP4 SLOAD DIV MUL DUP4 MSTORE SWAP2 PUSH1 0x20 ADD SWAP2 PUSH2 0x141 JUMP JUMPDEST DUP3 ADD SWAP2 SWAP1 PUSH1 0x0 MSTORE PUSH1 0x20 PUSH1 0x0 KECCAK256 SWAP1 JUMPDEST DUP2 SLOAD DUP2 MSTORE SWAP1 PUSH1 0x1 ADD SWAP1 PUSH1 0x20 ADD DUP1 DUP4 GT PUSH2 0x124 JUMPI DUP3 SWAP1 SUB PUSH1 0x1F AND DUP3 ADD SWAP2 JUMPDEST POP POP POP POP POP DUP2 MSTORE PUSH1 0x20 ADD PUSH1 0x1 DUP3 ADD SLOAD DUP2 MSTORE POP POP SWAP1 POP SWAP2 SWAP1 POP JUMP JUMPDEST PUSH1 0x0 PUSH1 0x40 MLOAD DUP1 PUSH1 0x40 ADD PUSH1 0x40 MSTORE DUP1 DUP5 DUP2 MSTORE PUSH1 0x20 ADD DUP4 DUP2 MSTORE POP SWAP1 POP DUP1 PUSH1 0x0 DUP6 PUSH1 0x40 MLOAD PUSH2 0x185 SWAP2 SWAP1 PUSH2 0x563 JUMP JUMPDEST SWAP1 DUP2 MSTORE PUSH1 0x20 ADD PUSH1 0x40 MLOAD DUP1 SWAP2 SUB SWAP1 KECCAK256 PUSH1 0x0 DUP3 ADD MLOAD DUP2 PUSH1 0x0 ADD SWAP1 DUP2 PUSH2 0x1A8 SWAP2 SWAP1 PUSH2 0x790 JUMP JUMPDEST POP PUSH1 0x20 DUP3 ADD MLOAD DUP2 PUSH1 0x1 ADD SSTORE SWAP1 POP POP POP POP POP POP JUMP JUMPDEST PUSH1 0x40 MLOAD DUP1 PUSH1 0x40 ADD PUSH1 0x40 MSTORE DUP1 PUSH1 0x60 DUP2 MSTORE PUSH1 0x20 ADD PUSH1 0x0 DUP2 MSTORE POP SWAP1 JUMP JUMPDEST PUSH1 0x0 PUSH1 0x40 MLOAD SWAP1 POP SWAP1 JUMP JUMPDEST PUSH1 0x0 DUP1 REVERT JUMPDEST PUSH1 0x0 DUP1 REVERT JUMPDEST PUSH1 0x0 DUP1 REVERT JUMPDEST PUSH1 0x0 DUP1 REVERT JUMPDEST PUSH1 0x0 PUSH1 0x1F NOT PUSH1 0x1F DUP4 ADD AND SWAP1 POP SWAP2 SWAP1 POP JUMP JUMPDEST PUSH32 0x4E487B7100000000000000000000000000000000000000000000000000000000 PUSH1 0x0 MSTORE PUSH1 0x41 PUSH1 0x4 MSTORE PUSH1 0x24 PUSH1 0x0 REVERT JUMPDEST PUSH2 0x23D DUP3 PUSH2 0x1F4 JUMP JUMPDEST DUP2 ADD DUP2 DUP2 LT PUSH8 0xFFFFFFFFFFFFFFFF DUP3 GT OR ISZERO PUSH2 0x25C JUMPI PUSH2 0x25B PUSH2 0x205 JUMP JUMPDEST JUMPDEST DUP1 PUSH1 0x40 MSTORE POP POP POP JUMP JUMPDEST PUSH1 0x0 PUSH2 0x26F PUSH2 0x1D6 JUMP JUMPDEST SWAP1 POP PUSH2 0x27B DUP3 DUP3 PUSH2 0x234 JUMP JUMPDEST SWAP2 SWAP1 POP JUMP JUMPDEST PUSH1 0x0 PUSH8 0xFFFFFFFFFFFFFFFF DUP3 GT ISZERO PUSH2 0x29B JUMPI PUSH2 0x29A PUSH2 0x205 JUMP JUMPDEST JUMPDEST PUSH2 0x2A4 DUP3 PUSH2 0x1F4 JUMP JUMPDEST SWAP1 POP PUSH1 0x20 DUP2 ADD SWAP1 POP SWAP2 SWAP1 POP JUMP JUMPDEST DUP3 DUP2 DUP4 CALLDATACOPY PUSH1 0x0 DUP4 DUP4 ADD MSTORE POP POP POP JUMP JUMPDEST PUSH1 0x0 PUSH2 0x2D3 PUSH2 0x2CE DUP5 PUSH2 0x280 JUMP JUMPDEST PUSH2 0x265 JUMP JUMPDEST SWAP1 POP DUP3 DUP2 MSTORE PUSH1 0x20 DUP2 ADD DUP5 DUP5 DUP5 ADD GT ISZERO PUSH2 0x2EF JUMPI PUSH2 0x2EE PUSH2 0x1EF JUMP JUMPDEST JUMPDEST PUSH2 0x2FA DUP5 DUP3 DUP6 PUSH2 0x2B1 JUMP JUMPDEST POP SWAP4 SWAP3 POP POP POP JUMP JUMPDEST PUSH1 0x0 DUP3 PUSH1 0x1F DUP4 ADD SLT PUSH2 0x317 JUMPI PUSH2 0x316 PUSH2 0x1EA JUMP JUMPDEST JUMPDEST DUP2 CALLDATALOAD PUSH2 0x327 DUP5 DUP3 PUSH1 0x20 DUP7 ADD PUSH2 0x2C0 JUMP JUMPDEST SWAP2 POP POP SWAP3 SWAP2 POP POP JUMP JUMPDEST PUSH1 0x0 PUSH1 0x20 DUP3 DUP5 SUB SLT ISZERO PUSH2 0x346 JUMPI PUSH2 0x345 PUSH2 0x1E0 JUMP JUMPDEST JUMPDEST PUSH1 0x0 DUP3 ADD CALLDATALOAD PUSH8 0xFFFFFFFFFFFFFFFF DUP2 GT ISZERO PUSH2 0x364 JUMPI PUSH2 0x363 PUSH2 0x1E5 JUMP JUMPDEST JUMPDEST PUSH2 0x370 DUP5 DUP3 DUP6 ADD PUSH2 0x302 JUMP JUMPDEST SWAP2 POP POP SWAP3 SWAP2 POP POP JUMP JUMPDEST PUSH1 0x0 DUP2 MLOAD SWAP1 POP SWAP2 SWAP1 POP JUMP JUMPDEST PUSH1 0x0 DUP3 DUP3 MSTORE PUSH1 0x20 DUP3 ADD SWAP1 POP SWAP3 SWAP2 POP POP JUMP JUMPDEST PUSH1 0x0 JUMPDEST DUP4 DUP2 LT ISZERO PUSH2 0x3B3 JUMPI DUP1 DUP3 ADD MLOAD DUP2 DUP5 ADD MSTORE PUSH1 0x20 DUP2 ADD SWAP1 POP PUSH2 0x398 JUMP JUMPDEST PUSH1 0x0 DUP5 DUP5 ADD MSTORE POP POP POP POP JUMP JUMPDEST PUSH1 0x0 PUSH2 0x3CA DUP3 PUSH2 0x379 JUMP JUMPDEST PUSH2 0x3D4 DUP2 DUP6 PUSH2 0x384 JUMP JUMPDEST SWAP4 POP PUSH2 0x3E4 DUP2 DUP6 PUSH1 0x20 DUP7 ADD PUSH2 0x395 JUMP JUMPDEST PUSH2 0x3ED DUP2 PUSH2 0x1F4 JUMP JUMPDEST DUP5 ADD SWAP2 POP POP SWAP3 SWAP2 POP POP JUMP JUMPDEST PUSH1 0x0 DUP2 SWAP1 POP SWAP2 SWAP1 POP JUMP JUMPDEST PUSH2 0x40B DUP2 PUSH2 0x3F8 JUMP JUMPDEST DUP3 MSTORE POP POP JUMP JUMPDEST PUSH1 0x0 PUSH1 0x40 DUP4 ADD PUSH1 0x0 DUP4 ADD MLOAD DUP5 DUP3 SUB PUSH1 0x0 DUP7 ADD MSTORE PUSH2 0x42E DUP3 DUP3 PUSH2 0x3BF JUMP JUMPDEST SWAP2 POP POP PUSH1 0x20 DUP4 ADD MLOAD PUSH2 0x443 PUSH1 0x20 DUP7 ADD DUP3 PUSH2 0x402 JUMP JUMPDEST POP DUP1 SWAP2 POP POP SWAP3 SWAP2 POP POP JUMP JUMPDEST PUSH1 0x0 PUSH1 0x20 DUP3 ADD SWAP1 POP DUP2 DUP2 SUB PUSH1 0x0 DUP4 ADD MSTORE PUSH2 0x468 DUP2 DUP5 PUSH2 0x411 JUMP JUMPDEST SWAP1 POP SWAP3 SWAP2 POP POP JUMP JUMPDEST PUSH2 0x479 DUP2 PUSH2 0x3F8 JUMP JUMPDEST DUP2 EQ PUSH2 0x484 JUMPI PUSH1 0x0 DUP1 REVERT JUMPDEST POP JUMP JUMPDEST PUSH1 0x0 DUP2 CALLDATALOAD SWAP1 POP PUSH2 0x496 DUP2 PUSH2 0x470 JUMP JUMPDEST SWAP3 SWAP2 POP POP JUMP JUMPDEST PUSH1 0x0 DUP1 PUSH1 0x0 PUSH1 0x60 DUP5 DUP7 SUB SLT ISZERO PUSH2 0x4B5 JUMPI PUSH2 0x4B4 PUSH2 0x1E0 JUMP JUMPDEST JUMPDEST PUSH1 0x0 DUP5 ADD CALLDATALOAD PUSH8 0xFFFFFFFFFFFFFFFF DUP2 GT ISZERO PUSH2 0x4D3 JUMPI PUSH2 0x4D2 PUSH2 0x1E5 JUMP JUMPDEST JUMPDEST PUSH2 0x4DF DUP7 DUP3 DUP8 ADD PUSH2 0x302 JUMP JUMPDEST SWAP4 POP POP PUSH1 0x20 DUP5 ADD CALLDATALOAD PUSH8 0xFFFFFFFFFFFFFFFF DUP2 GT ISZERO PUSH2 0x500 JUMPI PUSH2 0x4FF PUSH2 0x1E5 JUMP JUMPDEST JUMPDEST PUSH2 0x50C DUP7 DUP3 DUP8 ADD PUSH2 0x302 JUMP JUMPDEST SWAP3 POP POP PUSH1 0x40 PUSH2 0x51D DUP7 DUP3 DUP8 ADD PUSH2 0x487 JUMP JUMPDEST SWAP2 POP POP SWAP3 POP SWAP3 POP SWAP3 JUMP JUMPDEST PUSH1 0x0 DUP2 SWAP1 POP SWAP3 SWAP2 POP POP JUMP JUMPDEST PUSH1 0x0 PUSH2 0x53D DUP3 PUSH2 0x379 JUMP JUMPDEST PUSH2 0x547 DUP2 DUP6 PUSH2 0x527 JUMP JUMPDEST SWAP4 POP PUSH2 0x557 DUP2 DUP6 PUSH1 0x20 DUP7 ADD PUSH2 0x395 JUMP JUMPDEST DUP1 DUP5 ADD SWAP2 POP POP SWAP3 SWAP2 POP POP JUMP JUMPDEST PUSH1 0x0 PUSH2 0x56F DUP3 DUP5 PUSH2 0x532 JUMP JUMPDEST SWAP2 POP DUP2 SWAP1 POP SWAP3 SWAP2 POP POP JUMP JUMPDEST PUSH32 0x4E487B7100000000000000000000000000000000000000000000000000000000 PUSH1 0x0 MSTORE PUSH1 0x22 PUSH1 0x4 MSTORE PUSH1 0x24 PUSH1 0x0 REVERT JUMPDEST PUSH1 0x0 PUSH1 0x2 DUP3 DIV SWAP1 POP PUSH1 0x1 DUP3 AND DUP1 PUSH2 0x5C1 JUMPI PUSH1 0x7F DUP3 AND SWAP2 POP JUMPDEST PUSH1 0x20 DUP3 LT DUP2 SUB PUSH2 0x5D4 JUMPI PUSH2 0x5D3 PUSH2 0x57A JUMP JUMPDEST JUMPDEST POP SWAP2 SWAP1 POP JUMP JUMPDEST PUSH1 0x0 DUP2 SWAP1 POP DUP2 PUSH1 0x0 MSTORE PUSH1 0x20 PUSH1 0x0 KECCAK256 SWAP1 POP SWAP2 SWAP1 POP JUMP JUMPDEST PUSH1 0x0 PUSH1 0x20 PUSH1 0x1F DUP4 ADD DIV SWAP1 POP SWAP2 SWAP1 POP JUMP JUMPDEST PUSH1 0x0 DUP3 DUP3 SHL SWAP1 POP SWAP3 SWAP2 POP POP JUMP JUMPDEST PUSH1 0x0 PUSH1 0x8 DUP4 MUL PUSH2 0x63C PUSH32 0xFFFFFFFFFFFFFFFFFFFFFFFFFFFFFFFFFFFFFFFFFFFFFFFFFFFFFFFFFFFFFFFF DUP3 PUSH2 0x5FF JUMP JUMPDEST PUSH2 0x646 DUP7 DUP4 PUSH2 0x5FF JUMP JUMPDEST SWAP6 POP DUP1 NOT DUP5 AND SWAP4 POP DUP1 DUP7 AND DUP5 OR SWAP3 POP POP POP SWAP4 SWAP3 POP POP POP JUMP JUMPDEST PUSH1 0x0 DUP2 SWAP1 POP SWAP2 SWAP1 POP JUMP JUMPDEST PUSH1 0x0 DUP2 SWAP1 POP SWAP2 SWAP1 POP JUMP JUMPDEST PUSH1 0x0 PUSH2 0x68D PUSH2 0x688 PUSH2 0x683 DUP5 PUSH2 0x65E JUMP JUMPDEST PUSH2 0x668 JUMP JUMPDEST PUSH2 0x65E JUMP JUMPDEST SWAP1 POP SWAP2 SWAP1 POP JUMP JUMPDEST PUSH1 0x0 DUP2 SWAP1 POP SWAP2 SWAP1 POP JUMP JUMPDEST PUSH2 0x6A7 DUP4 PUSH2 0x672 JUMP JUMPDEST PUSH2 0x6BB PUSH2 0x6B3 DUP3 PUSH2 0x694 JUMP JUMPDEST DUP5 DUP5 SLOAD PUSH2 0x60C JUMP JUMPDEST DUP3 SSTORE POP POP POP POP JUMP JUMPDEST PUSH1 0x0 SWAP1 JUMP JUMPDEST PUSH2 0x6D0 PUSH2 0x6C3 JUMP JUMPDEST PUSH2 0x6DB DUP2 DUP5 DUP5 PUSH2 0x69E JUMP JUMPDEST POP POP POP JUMP JUMPDEST JUMPDEST DUP2 DUP2 LT ISZERO PUSH2 0x6FF JUMPI PUSH2 0x6F4 PUSH1 0x0 DUP3 PUSH2 0x6C8 JUMP JUMPDEST PUSH1 0x1 DUP2 ADD SWAP1 POP PUSH2 0x6E1 JUMP JUMPDEST POP POP JUMP JUMPDEST PUSH1 0x1F DUP3 GT ISZERO PUSH2 0x744 JUMPI PUSH2 0x715 DUP2 PUSH2 0x5DA JUMP JUMPDEST PUSH2 0x71E DUP5 PUSH2 0x5EF JUMP JUMPDEST DUP2 ADD PUSH1 0x20 DUP6 LT ISZERO PUSH2 0x72D JUMPI DUP2 SWAP1 POP JUMPDEST PUSH2 0x741 PUSH2 0x739 DUP6 PUSH2 0x5EF JUMP JUMPDEST DUP4 ADD DUP3 PUSH2 0x6E0 JUMP JUMPDEST POP POP JUMPDEST POP POP POP JUMP JUMPDEST PUSH1 0x0 DUP3 DUP3 SHR SWAP1 POP SWAP3 SWAP2 POP POP JUMP JUMPDEST PUSH1 0x0 PUSH2 0x767 PUSH1 0x0 NOT DUP5 PUSH1 0x8 MUL PUSH2 0x749 JUMP JUMPDEST NOT DUP1 DUP4 AND SWAP2 POP POP SWAP3 SWAP2 POP POP JUMP JUMPDEST PUSH1 0x0 PUSH2 0x780 DUP4 DUP4 PUSH2 0x756 JUMP JUMPDEST SWAP2 POP DUP3 PUSH1 0x2 MUL DUP3 OR SWAP1 POP SWAP3 SWAP2 POP POP JUMP JUMPDEST PUSH2 0x799 DUP3 PUSH2 0x379 JUMP JUMPDEST PUSH8 0xFFFFFFFFFFFFFFFF DUP2 GT ISZERO PUSH2 0x7B2 JUMPI PUSH2 0x7B1 PUSH2 0x205 JUMP JUMPDEST JUMPDEST PUSH2 0x7BC DUP3 SLOAD PUSH2 0x5A9 JUMP JUMPDEST PUSH2 0x7C7 DUP3 DUP3 DUP6 PUSH2 0x703 JUMP JUMPDEST PUSH1 0x0 PUSH1 0x20 SWAP1 POP PUSH1 0x1F DUP4 GT PUSH1 0x1 DUP2 EQ PUSH2 0x7FA JUMPI PUSH1 0x0 DUP5 ISZERO PUSH2 0x7E8 JUMPI DUP3 DUP8 ADD MLOAD SWAP1 POP JUMPDEST PUSH2 0x7F2 DUP6 DUP3 PUSH2 0x774 JUMP JUMPDEST DUP7 SSTORE POP PUSH2 0x85A JUMP JUMPDEST PUSH1 0x1F NOT DUP5 AND PUSH2 0x808 DUP7 PUSH2 0x5DA JUMP JUMPDEST PUSH1 0x0 JUMPDEST DUP3 DUP2 LT ISZERO PUSH2 0x830 JUMPI DUP5 DUP10 ADD MLOAD DUP3 SSTORE PUSH1 0x1 DUP3 ADD SWAP2 POP PUSH1 0x20 DUP6 ADD SWAP5 POP PUSH1 0x20 DUP2 ADD SWAP1 POP PUSH2 0x80B JUMP JUMPDEST DUP7 DUP4 LT ISZERO PUSH2 0x84D JUMPI DUP5 DUP10 ADD MLOAD PUSH2 0x849 PUSH1 0x1F DUP10 AND DUP3 PUSH2 0x756 JUMP JUMPDEST DUP4 SSTORE POP JUMPDEST PUSH1 0x1 PUSH1 0x2 DUP9 MUL ADD DUP9 SSTORE POP POP POP JUMPDEST POP POP POP POP POP POP JUMP INVALID LOG2 PUSH5 0x6970667358 0x22 SLT KECCAK256 0xCD 0xB2 0xA6 EXP MOD 0xF6 0xD2 0xA5 MOD JUMPDEST 0x2A ADDMOD CALLCODE RETURNDATACOPY 0x2A 0xDA SUB SWAP2 MSTORE8 0x4D ADDRESS PUSH8 0x2AA9A99A5C16D164 GASPRICE 0x27 PUSH5 0x736F6C6343 STOP ADDMOD GT STOP CALLER "
		},
		"gasEstimates": {
			"creation": {
				"codeDepositCost": "440000",
				"executionCost": "474",
				"totalCost": "440474"
			},
			"external": {
				"enviarCadastro(string,string,int256)": "infinite",
				"mostrarDados(string)": "infinite"
			}
		},
		"methodIdentifiers": {
			"enviarCadastro(string,string,int256)": "c92ba422",
			"mostrarDados(string)": "831c0eaf"
		}
	},
	"abi": [
		{
			"inputs": [
				{
					"internalType": "string",
					"name": "nome",
					"type": "string"
				},
				{
					"internalType": "string",
					"name": "endereco",
					"type": "string"
				},
				{
					"internalType": "int256",
					"name": "idade",
					"type": "int256"
				}
			],
			"name": "enviarCadastro",
			"outputs": [],
			"stateMutability": "nonpayable",
			"type": "function"
		},
		{
			"inputs": [
				{
					"internalType": "string",
					"name": "nome",
					"type": "string"
				}
			],
			"name": "mostrarDados",
			"outputs": [
				{
					"components": [
						{
							"internalType": "string",
							"name": "endereco",
							"type": "string"
						},
						{
							"internalType": "int256",
							"name": "idade",
							"type": "int256"
						}
					],
					"internalType": "struct cadastrarDados.dadosCadastrais",
					"name": "",
					"type": "tuple"
				}
			],
			"stateMutability": "view",
			"type": "function"
		}
	]
}